:020000040800F2
:1000000080040020450100086F040008A9030008CF
:100010006D0400088D010008BD0500080000000007
:100020000000000000000000000000005F05000864
:100030008F010008000000005D0500086105000850
:100040005F0100085F0100085F0100085F01000810
:100050005F0100085F0100085F0100085F01000800
:100060005F0100085F0100085F0100085F010008F0
:100070005F0100085F0100085F0100085F010008E0
:100080005F0100085F0100085F0100085F010008D0
:100090005F0100085F0100085F0100085F010008C0
:1000A0005F0100085F0100085F0100085F010008B0
:1000B0005F0100085F0100085F0100085F010008A0
:1000C0005F0100085F0100085F0100085F01000890
:1000D0005F0100085F0100085F0100085F01000880
:1000E0005F0100085F0100085F0100085F01000870
:1000F0005F0100085F0100085F0100085F01000860
:100100005F0100085F0100085F0100085F0100084F
:100110005F0100085F0100085F0100085F0100083F
:100120005F0100085F0100085F0100085F0100082F
:10013000DFF80CD000F018F800480047C1050008AF
:10014000800400200648804706480047FEE7FEE797
:10015000FEE7FEE7FEE7FEE7FEE7FEE7FEE7FEE777
:100160007105000831010008064C074D06E0E06803
:1001700040F0010394E8070098471034AC42F6D3EE
:10018000FFF7DAFF4812000868120008FEE7704720
:10019000F8B5F64F05463C6897F84100202835D160
:1001A00065480E4601211922234600F017F968BB65
:1001B00097F84000012829D00121786887F840107D
:1001C0000268D20703D1026842F0010202600268AD
:1001D000234622F400620260212287F84120402257
:1001E00087F8422000227A64F985544AF98D3A63EF
:1001F000BE624FF48072B985016841F4807101607C
:100200004FF00110002100F0E9F800B1F8BD786866
:10021000782101614169890714D44169490525D4D0
:100220003968091BB1F5807FF4D90020202178635B
:1002300087F8411087F8420087F84000786C40F05A
:10024000200026E000210091416900918069009022
:100250000098204600F0EAF8E8B1786C0428D5D17F
:100260007868016841F400710160F8BD016841F4EB
:10027000007101606FF4806141610020202178638A
:1002800087F8411087F8420087F84000786C40F00A
:1002900004007864F8BD7868E9B20161B98D090499
:1002A0002BD0204600F0C2F80028D6D1BA6A786870
:1002B000114611F8013B0361FB8D013BFB85B962DF
:1002C000BB8D591EB9850E04456918BF15F004058C
:1002D000E5D0517802320161991EBA62B985FA8D72
:1002E000013AFA85DBE700F061F80028B5D13868FB
:1002F000001BB0F5807F10D8786841694907F2D5B6
:10030000016841F400710160202087F8410000205D
:1003100087F8400087F84200F8BD0020202178636C
:1003200087F8411087F8420087F84000786C40F069
:100330002000786491E700BF020010000000FFFF7A
:10034000B0B516494FF47A734A68B2FBF3F2002352
:10035000013AB3EB126F1FD1114CF0250F286260E8
:10036000104AD575A3604FF00703236014D81368B3
:100370004FF0FF35C3F30223DC1E83F0070338BFC1
:100380000024042B28BF042305FA03F320EA030307
:10039000A3401B01D3750860B0BD00BF0000002062
:1003A00010E000E00CED00E0FEE700006F494A6855
:1003B000506940054FF000000FD56FF48063536122
:1003C0002022486381F8412081F8420081F84000F2
:1003D000486C40F00400486401207047F0B500F418
:1003E0007F04182580B2B4F5803F604C08BF142507
:1003F0006668775907403F1AB7FA87F77F098F4237
:1004000012D12768FF1A9742F3D900202021606398
:1004100084F8411084F8420084F84000606C40F099
:10042000200060640120F0BD0020F0BDB0B54F4D4C
:10043000044668684069000616D4FFF7B7FF88B91C
:100440002868001BB0F5807FF3D900202021686365
:1004500085F8411085F8420085F84000686C40F04E
:10046000200068640120B0BD0020B0BDFEE77047E9
:10047000B0B50446A1F15000054DC0B2A84720090F
:100480001030A84704F00F002946BDE8B0400847E7
:1004900039050008F8B516460D460446FFF7E8FF93
:1004A0000D48002700EB4616102F04D0F05D00F039
:1004B0004CF80137F8E7681CC1B22046FFF7D8FFB7
:1004C00006F110040025102D08BFF8BD605D00F096
:1004D0003CF80135F7E700BF46110008F8B50446BF
:1004E00040B20D461646002848BF023548BF0024DA
:1004F000E9B22046FFF7BCFFA6F120000D49002716
:10050000C0B201EB0016082F04D0F05D00F01DF81A
:100510000137F8E7681CC1B22046FFF7A9FF06F1D2
:1005200008040025082D08BFF8BD605D00F00DF837
:100530000135F7E7660B0008E0B58DF807000DF10F
:1005400007010020FFF724FE8CBDE0B58DF8070001
:100550000DF107014020FFF71BFE8CBD704770476F
:100560000248016801310160704700BF2800002087
:100570000E480F4A016841F00101016041681140D5
:100580000C4A4160016811400160016821F480213A
:100590000160416821F4FE0141604FF41F01816058
:1005A00005484FF000610160704700BF0010024035
:1005B0000000FFF8FFFFF6FE08ED00E0FEE7000098
:1005C00082B0DC4E4FF6FF02306840F01000306021
:1005D000D94801681140D94A114301600020FFF752
:1005E000AFFED74C0222606940F001006061606993
:1005F00000F0010001900198A06940F08050A061D6
:10060000A06900F0805001900198CE48016862F323
:100610001A610160206800F00C00042808D154F829
:10062000040C206800F00C0008281BD120683DE075
:10063000206800F00C00082802D12068C003EED426
:1006400054F8040C40F4803044F8040CDFF89C04A7
:10065000016854F8042C9203E3D40268521A642A05
:10066000F7D923E0B84900200860DFF88004026869
:1006700054F8043C9B0104D503689B1A022BF7D95C
:1006800014E0226822F400322260226822F47412FC
:1006900002F5E812226001220A60016854F8042C75
:1006A000920103D40268521A022AF7D93068A74D82
:1006B00010F0060F09D13068022161F302003060AA
:1006C000306800F0070002285DD1206840F4E06047
:1006D0002060206840F460502060206820F0F00026
:1006E000206054F8040C80014DD52068022141F2AD
:1006F000883261F301002060DFF8F00301682368AD
:1007000003F00C03082B04D003685B1A9342F6D95C
:1007100039E0306800F00700032809D3306802216F
:1007200061F302003060306800F0070002282AD12F
:100730002068042161F30A202060206820F46050C2
:1007400020608348216801F00C02082A10D1C1F30F
:100750008342E7A3C9039A5C02D402FB05F007E0D9
:1007600021685043E6A2C1F34041515CB0FBF1F077
:100770002168E4A2C1F30311515CC840E549486017
:100780000868FFF7DDFD6069E34BE44F4FF48041FB
:100790000022A94640F004009E466061606900F0B6
:1007A000040001900198606940F008006061CF4842
:1007B0004161C0E90322836047606169C0E90622A4
:1007C000C0E9082201F008010191019990F8411057
:1007D000D9BB80F84020B8469A46A64601264FF07D
:1007E0000F0C0027616941F008016161616901F046
:1007F000080101910199CA498B460021082913D0AB
:1008000006FA01F313F0C00F0BD03B465D460829F2
:1008100028BF203B28BF04352C680CFA03F3234380
:100820002B6004370131E9E7DEF8181074464746BB
:10083000534641F40011CEF81810DEF8181001F4F8
:10084000001101910199D0F808E02421B14EB5A51D
:1008500080F84110396821F001013960716824681D
:10086000C4F302242C5D002521FA04F4AF498C4224
:1008700038BF0125591CA14588BF01228E4538BFCC
:100880002A46002A40F09680A94A7D688E45B4FB2E
:10089000F2F225F03F0545EA02057D603D6A25F04C
:1008A0003F0512D2511C621E4CF6FF732943396278
:1008B0004FEA4E01B2FBF1F101316FF31F31042910
:1008C00098BF0421FA699A434EE04FF49671BC46F2
:1008D000013C51434FF47A72B1FBF2F14CF6FF72D6
:1008E000013129433962F96921EA0202C16849B13B
:1008F000192504270EFB05F5B4FBF5F5013567F363
:100900001F3506E00EEB4E05B4FBF5F501356FF330
:100910001F352D050AD0E9B1192104230EFB01F181
:10092000B4FBF1F1013163F31F311AE00121674695
:100930001AE000BF002002400CED00E00003FA05C1
:1009400004100240040001406000424200093D00E2
:1009500000127A000EEB4E01B4FBF1F101316FF39E
:100960001F31674641F40041114300F11005F96160
:10097000016A3A6822F0C0021143426A114348F208
:10098000FF323960B96891433CCD194311432022AD
:10099000B960F96821F0FF0121432943F960396802
:1009A00041F0010139600021416480F84120416338
:1009B00080F8421001680268521AC92AFBD3002449
:1009C0001C2C07D0301900F108010020FFF7E0FBD4
:1009D0000134F5E75B4D0024E0B2082812D2A4F1FF
:1009E0005000C0B2A84700200026A8471020A84702
:1009F00070B2002804D40020FFF7A7FD0136F7E706
:100A00000134E9E700244BA500260027092C0CD06F
:100A10002A5DF8B2F1B2FFF761FD0837013478B210
:100A2000002844BF02360027F0E7002440F2E478B3
:100A30000A2600270025042C29D0C7F10300012134
:100A4000020604D001EB810101384900F8E7B8FB48
:100A5000F1F0B0FBF6F101EB8101A0EB41011DB912
:100A6000022C01D859B10125E00041F03001CAB291
:100A7000C0B20221FFF732FD01370134DBE7E000AD
:100A800002212022C0B2FFF729FD0025F4E72C4CFB
:100A9000002004210022A047102004210122A047A9
:100AA000202004210222A047302004210622A04752
:100AB000002006210322A047102006210422A0477F
:100AC000202006210522A047302006210622A0472B
:100AD000402004210722A047502004210722A047DC
:100AE000482006210722A047FEE700BF280000207B
:100AF00002030405060708090A0B0C0D0E0F10105F
:100B000001020000000000000000000001020304D8
:100B10000607080900000020A086010000540040DC
:100B2000000C0140000000000102030480841E004C
:100B300040420F004D656E20597568616E000000DF
:100B4000950400083905000802E008C8121F08C112
:100B5000002AFAD170477047002001E001C1121F3E
:100B6000002AFBD1704700000000000000000000D8
:100B7000000000000000000000F80000000000007D
:100B800000333000000000100C06100C06000000BE
:100B900000000000000040C07840C0784000043FE2
:100BA00004043F040400007088FC083000000018B2
:100BB00020FF211E0000F008F000E01800000021D6
:100BC0001C031E211E0000F00888700000001E217A
:100BD00023241927211010160E0000000000000029
:100BE000000000000000000000E018040200000007
:100BF00000071820400000020418E0000000004038
:100C0000201807000000404080F0804040000202B1
:100C1000010F01020200000000F0000000000101CD
:100C2000011F01010100000000000000000080B071
:100C30007000000000000000000000000000000143
:100C4000010101010101000000000000000000306E
:100C50003000000000000000000080601804006008
:100C600018060100000000E010080810E000000F66
:100C7000102020100F00001010F8000000000020CD
:100C8000203F202000000070080808887000003015
:100C900028242221300000300888884830000018BD
:100CA000202020110E000000C02010F800000007D6
:100CB0000424243F240000F808888808080000194C
:100CC000212020110E0000E0108888180000000F7D
:100CD000112020110E0000380808C8380800000054
:100CE000003F000000000070880808887000001CA9
:100CF000222121221C0000E010080810E000000062
:100D0000312222110F00000000C0C00000000000CE
:100D100000303000000000000080000000000000F3
:100D200080600000000000008040201008000001EA
:100D300002040810200040404040404040000404AD
:100D40000404040404000008102040800000002077
:100D5000100804020100007048080808F0000000B4
:100D6000003036010000C030C828E810E000071845
:100D7000272423140B000000C038E0000000203CB2
:100D800023020227382008F8888888700000203F56
:100D9000202020110E00C03008080808380007186D
:100DA00020202010080008F808080810E000203F64
:100DB000202020100F0008F88888E8081000203F45
:100DC00020202320180008F88888E8081000203F19
:100DD000200003000000C030080808380000071891
:100DE0002020221E020008F808000008F808203F12
:100DF000210101213F20000808F808080000002018
:100E0000203F2020000000000808F8080800C080EB
:100E100080807F00000008F888C028180800203F64
:100E200020012638200008F8080000000000203FBC
:100E300020202020300008F8F800F8F80800203FB3
:100E4000003F003F200008F830C00008F808203FAD
:100E5000200007183F00E01008080810E0000F10FD
:100E6000202020100F0008F808080808F000203F94
:100E7000210101010000E01008080810E0000F182F
:100E8000242438504F0008F8888888887000203F54
:100E90002000030C30200070880808083800003853
:100EA000202121221C00180808F80808180000005A
:100EB000203F2000000008F808000008F808001F84
:100EC000202020201F000878880000C83808000073
:100ED00007380E010000F80800F80008F800033C8D
:100EE0000700073C03000818688080681808203055
:100EF0002C03032C30200838C800C8380800000034
:100F0000203F2000000010080808C83808002038DA
:100F1000262120201800000000FE0202020000002E
:100F2000007F40404000000C30C000000000000086
:100F300000010638C00000020202FE00000000406E
:100F400040407F0000000000040202020400000094
:100F50000000000000000000000000000000808091
:100F60008080808080800002020400000000000079
:100F70000000000000000000808080800000001958
:100F8000242222223F2008F8008080000000003F39
:100F9000112020110E000000008080800000000E53
:100FA000112020201100000000808088F800000E31
:100FB000112020103F200000808080800000001F52
:100FC000222222221300008080F0888888180020C6
:100FD000203F202000000000808080808000006B87
:100FE00094949493600008F8008080800000203F73
:100FF000210000203F200080989800000000002081
:10100000203F20200000000000809898000000C0D1
:101010008080807F000008F8000080808000203FF2
:1010200024022D302000000808F8000000000020F5
:10103000203F202000008080808080808000203F32
:1010400020003F20003F8080008080800000203F03
:10105000210000203F200000808080800000001FD1
:10106000202020201F00808000808000000080FF62
:10107000A12020110E000000008080808000000E62
:10108000112020A0FF8080808000808080002020B0
:101090003F2120000100000080808080800000331C
:1010A000242424241900008080E0808000000000B7
:1010B000001F202000008080000000808000001FB2
:1010C000202020103F208080800000808080000150
:1010D0000E300806010080800080008080800F3084
:1010E0000C030C300F000080800080808000002006
:1010F000312E0E3120008080800000808080808131
:101100008E701806010000808080808080000021A1
:10111000302C2221300000000000807C0202000000
:101120000000003F40400002027C800000000040C0
:10113000403F0000000000000000FF000000000031
:101140000000FF0000000000041464040CB402025C
:1011500042330200000040412111090503FF03054D
:101160000911214140001010D0FF9000109196907D
:10117000F09094931000040300FF000104040404A1
:10118000FF0404040400008060F80704E4A4A4BF82
:10119000A4A4E4040000010000FF40407F4A4A4A42
:1011A0004A4A7F4040000000F888888888FF888885
:1011B0008888F800000000001F080808087F888859
:1011C00088889F80F0000000FE0282828282FA827C
:1011D00082828282020080601F40404040407F4007
:1011E000404458404000008060F80704E4A4A4BFD5
:1011F000A4A4E4040000010000FF40407F4A4A4AE2
:101200004A4A7F404000000000000000000000004B
:101210000000000000000000363600000000000062
:10122000000000000000000000E0380C0701071C6F
:1012300070C000000000C0F0DFC1C1C1C1C1C1C1A8
:10124000C1C3CEF8E0C00000681200080000002012
:1012500028000000480B0008901200082800002019
:1012600058040000580B0008100000000024F4008F
:10127000AED580A83FD300402002B00010A1C8DA4C
:101280001281EFD9F1DB30A4A68D14AF000000006D
:0400000508000131BD
:00000001FF
