:020000040800F2
:10000000C00900202D020008594C00089F1A000862
:10001000554C000829070008BD51000800000000E9
:10002000000000000000000000000000854C0008F7
:100030002D070008000000005B4C0008DD4C0008A4
:10004000470200084702000847020008470200086C
:10005000470200084702000847020008470200085C
:10006000470200084702000847020008470200084C
:10007000470200084702000847020008470200083C
:10008000470200084702000847020008470200082C
:10009000470200084702000847020008470200081C
:1000A000470200084702000847020008470200080C
:1000B00047020008470200083D4D000847020008BB
:1000C00047020008470200084702000847020008EC
:1000D000470200087D510008470200084702000857
:1000E00047020008470200084702000847020008CC
:1000F00047020008470200084702000847020008BC
:1001000047020008470200084702000847020008AB
:10011000470200084702000847020008470200089B
:10012000470200084702000847020008470200088B
:1001300000F002F800F06BF80AA090E8000C82448E
:100140008344AAF10107DA4501D100F060F8AFF26B
:10015000090EBAE80F0013F0010F18BFFB1A43F0A5
:1001600001031847D8B00000F8B000000A444FF06F
:10017000000C10F8013B13F0070408BF10F8014B06
:100180001D1108BF10F8015B641E05D010F8016B4B
:10019000641E01F8016BF9D113F0080F1EBF10F8AF
:1001A000014BAD1C0C1B09D16D1E58BF01F801CBD2
:1001B000FAD505E014F8016B01F8016B6D1EF9D555
:1001C0009142D6D37047000000230024002500266A
:1001D000103A28BF78C1FBD8520728BF30C148BFAA
:1001E0000B607047642900F09F80752900F09C80A7
:1001F000782900F0D580632900F02982732900F066
:100200002E82002070471FB51FBD10B510BD00F035
:1002100059FA1146FFF7F7FF05F046F800F077FAB4
:1002200003B4FFF7F2FF03BC04F0EDFF0948804779
:1002300009480047FEE7FEE7FEE7FEE7FEE7FEE7C8
:10024000FEE7FEE7FEE7FEE704480549054A064BE0
:1002500070470000E54C000831010008C003002091
:10026000C0090020C0050020C00500207047000024
:100270000FB4044910B503AA029800F0F5F910BCB8
:100280005DF814FB1400002070B504468569006811
:10029000C10601D5302600E02026C00707D070BD7A
:1002A000D4E9012130469047206A401C20626D1E2F
:1002B000F6D570BD70B5044685690078C00707D1D2
:1002C00070BDD4E9012120209047206A401C2062A3
:1002D0006D1EF6D570BD70B50C460546012A05D0D9
:1002E0002878800600D5EA69002302E0012305E0B2
:1002F0005B1C934202D2E05C0028F9D1A869E618A1
:10030000C01AA861286A184428622846FFF7BCFF73
:1003100004E0D5E9012114F8010B9047B442F8D369
:100320002846FFF7C7FF70BD2DE9F04106460024BF
:1003300010687529314616A510D0AFF3008000284B
:1003400002DA404213A507E031688A0701D512A5F9
:1003500002E0490704D511A5012401E0AFF30080B4
:1003600000210A2206F1240709E0B0FBF2FCB0FBF1
:10037000F2F302FB1C00303078541846491C002868
:10038000F3D123462A463046BDE8F04100F0FCB8E0
:10039000000000002D0000002B00000020000000E5
:1003A00070B504460D4621461068AFF300802188E1
:1003B000090502D50F4A7A4402E00E4A7A440E3209
:1003C000002104F1240305E000F00F060009965D0A
:1003D0005E54491C0028F7D120780023000704D57B
:1003E000702D02D009B1022311322046BDE87040C1
:1003F00000F0CAB856AB00002DE9F05F894604460C
:100400004FF0000ADFF874B1FB44C0F820A020468A
:10041000E1688847002874D0252806D0D4E9012156
:100420009047206A401C2062F1E700265F46204684
:10043000E16888472028054607DB312D05D2781969
:1004400010F8200C08B10643F1E7B00701D526F0FB
:100450000406C4F81CA00027C4F818A02A2D09D04F
:10046000284604F0C9FE38B304EB8708303DC8F8CD
:10047000185019E059F8041B204604EB87029161DB
:10048000E1688847012F054618D1E069002820DA85
:1004900026F020061DE0D8F8180000EB800005EBE0
:1004A00040003038C8F818002046E1688847054603
:1004B00004F0A2FE0028EED1012F0AD02E2D08D183
:1004C0002046E16888477F1C0546022F46F020063B
:1004D000C4DBA069002803DA404246F00106A061AF
:1004E000F00701D026F010066C2D0BD0682D09D036
:1004F0004C2D39D06A2D35D0742D35D07A2D33D08E
:1005000016E038E0E1682F4620468847B8420546A5
:1005100009D16C2F26D04FF48060E1680643204655
:100520008847054604E06C2F1AD04FF480700643CC
:100530000DB3A5F14100192802D8203546F4006614
:100540004A462946204626604E46FFF74BFE80B1BC
:1005500001280BD0F61D26F0070000F1080956E728
:100560004020E4E78020D8E70020D6E706F1040920
:100570004DE7284652E7206ABDE8F09F2CAB00000B
:1005800070477047704770472DE9F0470D46994610
:100590009246044600F124080168880604D5E06903
:1005A00021F01001216000E00120A84201DD471B7D
:1005B00000E00027A1697A1902EB0900081AA0617E
:1005C0002078C00602D42046FFF75EFE002608E031
:1005D000D4E901211AF806009047206A401C761CD5
:1005E00020624E45F4DB2078C0060AD52046FFF78E
:1005F0004BFE06E0D4E9012130209047206A401CE0
:100600002062381EA7F10107F4DC07E0D4E90121DC
:1006100018F805009047206A401C2062281EA5F1AA
:100620000105F3DC2046FFF745FE2078000602D5E1
:100630000220BDE8F0870120FBE710B5436913B144
:10064000AFF3008001E0FFF746FE012010BD1278F5
:1006500000F124010A7000224A700122EDE71168BE
:100660004FF0FF32E9E70000074B70B50D467B44C1
:1006700000F011F80446284600F020F810B14FF0C1
:10068000FF3070BD204670BD0F4C000001694A1C50
:1006900002610878704700B58FB0CDE901310021C3
:1006A000059105497944CDE9031011466846FFF7E5
:1006B000A3FE0FB000BD0000E5FFFFFF007B00F0D0
:1006C00080007047754600F02BF8AE46050069467D
:1006D000534620F00700854618B020B5FFF7B4FD5B
:1006E000BDE820404FF000064FF000074FF0000833
:1006F0004FF0000B21F00701AC46ACE8C009ACE8B4
:10070000C009ACE8C009ACE8C0098D46704710B517
:100710000446AFF300802046BDE81040FFF780BDDF
:10072000004870475C03002000BFFEE770470000F0
:1007300070B50446B3F5804F13D1D1E9000540EA06
:1007400005108D6840EA05208D6928438D8940EAAF
:10075000054054F82250064E3540284344F8220004
:1007600003E06FF0704044F82200002070BD0000EC
:100770000000F0CF30B50246086852F8200020F0A3
:1007800001000C6842F824008868082801D1402341
:1007900000E00023486818438C682043CC6820435D
:1007A0000C6920434C6920438C692043CC69204369
:1007B0000C6A20434C6A20438C6A2043CC6A204355
:1007C0000C6B20434C6B20430C6852F82440044DC2
:1007D0002C4020430C6842F82400002030BD00006B
:1007E0008000F0FF10B50346D1E9000440EA041090
:1007F0008C6840EA04208C8940EA0444088A401E40
:1008000044EA0054087D801E44EA00608C6920435D
:10081000541C53F8244004F040442043541C43F833
:100820002400002010BD000070B50446002594F897
:100830002100022803D00420A0630125C1E0206824
:10084000006820F00E00216808602068006820F031
:100850000100216808605C492068884252D95A49E1
:1008600078392068884201D1012047E0564964392F
:100870002068884201D1102040E053495039206857
:10088000884201D1801539E04F493C3920688842BF
:1008900001D1801432E04C4928392068884202D1C5
:1008A0004FF480302AE0484914392068884202D148
:1008B0004FF4801022E044492068884201D140046E
:1008C0001CE042492068884201D1012016E03F49DE
:1008D00014312068884201D110200FE03B492831B3
:1008E0002068884201D1801508E038493C312068F1
:1008F000884201D1801401E04FF480303349091F50
:10090000086051E0304978392068884201D10120DF
:1009100047E02D4964392068884201D1102040E029
:10092000294950392068884201D1801539E026498B
:100930003C392068884201D1801432E022492839AC
:100940002068884202D14FF480302AE01E491439D1
:100950002068884202D14FF4801022E01A492068B2
:10096000884201D140041CE018492068884201D126
:10097000012016E0154914312068884201D1102069
:100980000FE0124928312068884201D1801508E023
:100990000E493C312068884201D1801401E04FF4B7
:1009A0008030094980394860012084F8210000BF67
:1009B000002084F8200000BF606B10B12046616BFE
:1009C0008847284670BD00008000024008040240AD
:1009D0002DE9F847024600239C467BE14FF00108D1
:1009E00008FA03F4D1F8008008EA0400A0427DD19F
:1009F000DFF8F4A2D1F80480A8EB0A09D0453AD078
:100A000014DCB8F1030F50D009DCB8F1000F31D07D
:100A1000B8F1010F1CD0B8F1020F49D120E0B8F1B4
:100A2000110F18D0B8F1120F42D11EE0B9F5881F8E
:100A300025D006DCB9F5803F20D0B9F5801F37D12D
:100A40001AE0B9F5001F18D0B9F5041F30D117E02E
:100A5000D1F80CC02DE0D1F80C8008F1040C28E08E
:100A6000D1F80C8008F1080C23E0D1F80C8008F1D3
:100A70000C0C1EE000BF00BF00BF00BF00BF00BFE6
:100A8000D1F80880B8F1000F02D14FF0040C0BE050
:100A9000D1F80880B8F1010F03D14FF0080C1461B0
:100AA00002E04FF0080C546103E04FF0000C00E04E
:100AB00000BF00BFFF2801D8904601E002F1040802
:100AC0004646FF2802D84FEA830803E0A3F108084E
:100AD0004FEA88084746D6F800804FF00F0909FA18
:100AE00007F928EA09080CFA07F900E07AE048EA71
:100AF0000908C6F80080D1F8048008F08058B8F1E1
:100B0000805F6FD100BFDFF8E481D8F8188048F02B
:100B10000108DFF8D891C9F81880C846D8F81880BD
:100B200008F00108CDF8008000BF00BF4FEAB938D7
:100B30004FEA930958F829504FEA83784FEA187919
:100B40004FF00F0808FA09F825EA0805DFF8A08138
:100B5000424502D14FF0000824E0DFF89881424579
:100B600002D14FF001081DE0DFF88C81424502D12F
:100B70004FF0020816E0DFF88481424502D14FF0C1
:100B800003080FE0DFF87881424502D14FF00408F6
:100B900008E0DFF87081424502D14FF0050801E01E
:100BA0004FF006084FEA83794FEA197908FA09F8F5
:100BB00048EA0505DFF850814FEA930948F82950C3
:100BC000D1F8048008F48038B8F5803F0BD1DFF805
:100BD0003C81D8F8008048EA0008DFF83091C9F875
:100BE00000800AE075E0DFF82481D8F8008028EA68
:100BF0000008DFF81891C9F80080D1F8048008F4E3
:100C00000038B8F5003F0ED1DFF8008108F1040884
:100C1000D8F8008048EA0008DFF8F09009F10409EC
:100C2000C9F800800DE0DFF8E48008F10408D8F886
:100C3000008028EA0008DFF8D49009F10409C9F817
:100C40000080D1F8048008F48018B8F5801F0ED118
:100C5000DFF8B88008F10808D8F8008048EA0008F2
:100C6000DFF8A89009F10809C9F800800DE0DFF865
:100C70009C8008F10808D8F8008028EA0008DFF80E
:100C80008C9009F10809C9F80080D1F8048008F4B3
:100C90000018B8F5001F0ED1DFF8708008F10C08BD
:100CA000D8F8008048EA0008DFF8609009F10C09E4
:100CB000C9F800800DE0DFF8548008F10C08D8F87E
:100CC000008028EA0008DFF8449009F10C09C9F80F
:100CD00000805B1CD1F8008028FA03F8B8F1000FFF
:100CE0007FF47CAEBDE8F8870000111000100240D0
:100CF00000080140000C01400010014000140140B8
:100D000000180140001C014008000140000401409F
:100D10000AB1016101E00B040361704701480068FA
:100D20007047000004000020034800680349097868
:100D30000844014908607047040000200C000020AE
:100D400010B50848006840F010000649086005200A
:100D500000F080F80F2000F007F800F02BF80020DA
:100D600010BD00000020024070B504460E48007817
:100D70004FF47A71B1FBF0F00C490968B1FBF0F562
:100D8000284600F085FC08B1012070BD102C07D268
:100D900000222146501E00F01EF80548046001E0C4
:100DA0000120F2E70020F0E70C0000200000002006
:100DB00008000020704701460846002809DB00F0C3
:100DC0001F0301229A4043099B0003F1E023C3F86B
:100DD000002100BF70472DE9F05F80460D461646A2
:100DE000002704F0EDF9074639462A46334601F05C
:100DF0000700C0F1070ABAF1040F02D94FF0040A44
:100E000001E0C0F1070AD14600F1040ABAF1070F68
:100E100002D24FF0000A01E0A0F1030AD4464FF0DD
:100E2000010A0AFA09FAAAF1010A0AEA020A0AFA06
:100E30000CFA4FF0010B0BFA0CFBABF1010B0BEAB8
:100E4000030B4AEA0B042146404604F0C1F9BDE811
:100E5000F09F000000BF00F00702064B19684FF634
:100E6000FF031940044B0B4343EA0221014B196075
:100E700000BF70470CED00E00000FA0570B50446B5
:100E80000D460CB9012070BD5A48006800F00700FB
:100E9000A8420ED25748006820F007002843554961
:100EA00008600846006800F00700A84201D0012051
:100EB000E9E7207800F0020002281DD1207800F038
:100EC0000400042805D14C48406840F4E0604A49D9
:100ED0004860207800F00800082805D1464840689E
:100EE00040F46050444948604348406820F0F000B6
:100EF000A168084340494860207800F0010078B3B9
:100F00006068012806D13C48006800F4003090B9C0
:100F10000120B8E76068022806D13748006800F071
:100F2000007040B90120AEE73348006800F00200CD
:100F300008B90120A7E73048406820F00300616845
:100F400008432D494860FFF7E9FE064609E0FFF730
:100F5000E5FE801B41F28831884202D9032092E7E6
:100F600007E02548406800F00C006168B0EB810F95
:100F7000EDD12048006800F00700A8420ED91D48B6
:100F8000006820F0070028431A49086008460068F6
:100F900000F00700A84201D0012074E7207800F09B
:100FA0000400042807D11448406820F4E060E16898
:100FB000084311494860207800F00800082808D14B
:100FC0000D48406820F46050216940EAC1000A4998
:100FD000486000F03FF808494968C1F30311074A27
:100FE000515CC8400649086006480068FFF7BCFE2F
:100FF000002048E70020024000100240B8670008C7
:101000000000002008000020014800687047000030
:101010000000002000B5FFF7F7FF04494968C1F35D
:101020000221034A515CC84000BD0000001002408C
:10103000C867000800B5FFF7E7FF04494968C1F336
:10104000C221034A515CC84000BD000000100240AC
:10105000C8670008F0B585B00FF26C0C9CE8E01092
:1010600001A8A0E8E0101CA52D6800950021002231
:10107000002300240020194D696801F00C05F5B12A
:10108000042D02D0082D19D101E0154819E001AD59
:10109000C1F38346AC5D01F4803555B10F4D6D68E9
:1010A000C5F340451DF805200D4D6543B5FBF2F332
:1010B00002E00C4D04FB05F3184602E000BF0848AF
:1010C00000BF00BF05B0F0BD020304050607080914
:1010D0000A0B0C0D0E0F1010010200000010024050
:1010E00000127A0000093D00F8B504460CB9012051
:1010F000F8BD207800F00100002878D0F84840685A
:1011000000F00C0004280CD0F548406800F00C00FA
:10111000082811D1F248406800F48030B0F5803FD3
:101120000AD1EF48006800F4003000285FD0606802
:1011300000285CD10120DBE700BF6068B0F5803F8C
:1011400006D1E748006840F48030E549086028E0AF
:10115000606858B9E248006820F48030E0490860CF
:101160000846006820F4802008601AE06068B0F546
:10117000A02F0BD1DA48006840F48020D8490860DD
:101180000846006840F4803008600AE0D4480068EF
:1011900020F48030D24908600846006820F480209E
:1011A000086000BF606888B1FFF7B8FD054606E03B
:1011B000FFF7B4FD401B642801D9032098E7C84815
:1011C000006800F400300028F2D010E0FFF7A6FD20
:1011D000054606E0FFF7A2FD401B642801D9032065
:1011E00086E7BF48006800F400300028F2D120787C
:1011F00000F00200022857D1B948406800F00C0006
:1012000050B1B748406800F00C00082818D1B44825
:10121000406800F4803098B9B148006800F00200DE
:1012200020B12069012801D0012061E7AC480068A5
:1012300020F0F800616940EAC100A949086033E084
:101240002069E8B10120A7490860FFF767FD05465E
:1012500006E0FFF763FD401B022801D9032047E7A2
:101260009F48006800F002000028F2D09C48006807
:1012700020F0F800616940EAC1009949086013E074
:10128000002098490860FFF749FD054606E0FFF792
:1012900045FD401B022801D9032029E7904800683A
:1012A00000F002000028F2D1207800F008000828A1
:1012B0002DD1A069B8B101208B490860FFF72EFD40
:1012C000054606E0FFF72AFD401B022801D903204E
:1012D0000EE78348406A00F002000028F2D00120A7
:1012E00003F0BCFC13E000207F490860FFF716FD07
:1012F000054606E0FFF712FD401B022801D9032036
:10130000F6E67748406A00F002000028F2D1207823
:1013100000F00400042873D100277148C06900F070
:10132000805070B900BF6E48C06940F080506C4971
:10133000C8610846C06900F08050009000BF00BF3F
:1013400001276A48006800F48070B0B967480068F7
:1013500040F4807065490860FFF7E0FC054606E050
:10136000FFF7DCFC401B642801D90320C0E65F487E
:10137000006800F480700028F2D000BFE068012807
:1013800006D15748006A40F001005549086227E03D
:10139000E06858B95248006A20F0010050490862DC
:1013A0000846006A20F00400086219E0E068052899
:1013B0000BD14B48006A40F00400494908620846D6
:1013C000006A40F0010008620AE04548006A20F027
:1013D0000100434908620846006A20F004000862E0
:1013E00000BFE068A0B1FFF799FC054609E0FFF7F0
:1013F00095FC401B41F28831884202D9032077E6F0
:1014000022E03748006A00F002000028EFD012E026
:10141000FFF784FC054608E0FFF780FC401B41F223
:101420008831884201D9032062E62D48006A00F025
:1014300002000028F0D1012F05D12948C06920F011
:1014400080502749C86100BFE069C8B3244840689C
:1014500000F00C00082860D0E069022848D1002084
:1014600020490866FFF75AFC054606E0FFF756FCE0
:10147000401B022801D903203AE61948006800F011
:1014800000700028F2D1206AB0F5803F07D11448DF
:10149000406820F40030A168084311494860D4E94D
:1014A000080108430E49496821F4741108430C49A6
:1014B000486001200B490866FFF730FC054607E04D
:1014C0003DE0FFF72BFC401B022801D903200FE66B
:1014D0000348006800F000700028F2D02FE0000000
:1014E000001002400000424280044242007000406E
:1014F000002014490866FFF711FC054606E0FFF7D7
:101500000DFC401B022801D90320F1E50E480068BC
:1015100000F000700028F2D111E0E069012800D14C
:10152000E6E50948466806F48031206A814204D124
:1015300006F47011606A814201D00120D8E50020D4
:10154000D6E50000000042420010024070B504469B
:101550000E4615460CB9012070BD94F8410028B91B
:10156000002084F84000204600F020F804F1080133
:101570002068FFF7FFF83146A2682068FFF732F9CC
:101580002946236BD4E90102FFF7D2F8A16820684D
:1015900050F8210040F00100A268216841F82200C3
:1015A000012084F841000020D6E7000010B586B085
:1015B000044600BF2848406940F4807026494861CD
:1015C0000846406900F48070019000BF00BF00BF72
:1015D0000846806940F0200088610846806900F074
:1015E0002000019000BF00BF00BF0846806940F0A6
:1015F000400088610846806900F04000019000BF0B
:1016000000BF00BF0846806940F4807088610846CA
:10161000806900F48070019000BF00BF4CF233700D
:10162000029002200390012004900320059002A95B
:101630000A48FFF7CDF94FF68070029002A90848DA
:10164000FFF7C6F941F20100029002A90548FFF731
:10165000BFF906B010BD00000010024000140140A8
:101660000018014000200140042808D14FF0E0217B
:10167000096941F004014FF0E022116107E04FF0E9
:10168000E021096921F004014FF0E0221161704767
:1016900070B504462546681EB0F1807F01D3012055
:1016A0000FE0681E4FF0E02148610F214FF0FF303E
:1016B00003F08EFD00204FF0E021886107200861D3
:1016C000002070BD10B504460CB9012010BD94F87F
:1016D0003D0028B9002084F83C00204600F00CF8BA
:1016E000022084F83D00211D206803F049FB012001
:1016F00084F83D000020E9E7704701460868C068AB
:1017000040F001000B68D8600868806800F00702AC
:10171000062A05D00868006840F001000B681860D0
:1017200000207047704701460022002391F83920BD
:1017300091F83A3042EA0300704700002DE9F04783
:101740000446206805682068C668206847694FF02D
:101750000008C14605F00F08B8F1000F0AD105F0E6
:10176000200038B106F0200020B1204603F0AEFB87
:10177000BDE8F087B8F1000F6DD007F0010018B98F
:1017800006F49070002866D005F0010030B106F430
:10179000807018B1E06B40F00100E06305F00400D8
:1017A00030B107F0010018B1E06B40F00200E063D7
:1017B00005F0020030B107F0010018B1E06B40F015
:1017C0000400E06305F0080030B107F0010018B133
:1017D000E06B40F00800E063E06B68B305F02000C8
:1017E00028B106F0200010B1204603F06FFB2068FE
:1017F0004069C0F38019E06B00F0080010B9B9F13E
:10180000000F22D0204603F041FB2068406900F021
:101810004000B0B12068406920F040002168486174
:10182000606B50B11748616B4863606BFEF7FCFF5B
:1018300010B1606B416B88470CE02046FFF772FFE8
:1018400008E02046FFF76EFF04E02046FFF76AFF3E
:101850000020E0638CE705F0800030B106F08000E6
:1018600018B1204603F056FC82E705F0400030B185
:1018700006F0400018B1204603F018FB78E700BFDF
:1018800076E70000794E000810B504460CB9012037
:1018900010BDA06900B100E000BF94F8390028B97C
:1018A000002084F83800204600F028F8242084F82E
:1018B00039002068C06820F400502168C8602046C4
:1018C00003F058FB2068006920F49040216808610B
:1018D0002068406920F02A00216848612068C068BB
:1018E00040F400502168C8600020E063202084F8A4
:1018F000390084F83A000020CAE7000010B586B02D
:10190000044625492068884244D100BF23488069A5
:1019100040F00400214988610846806900F0040015
:10192000019000BF00BF00BF0846806940F48040BE
:1019300088610846806900F48040019000BF00BFC4
:1019400000BF0846806940F0010088610846806950
:1019500000F00100019000BF00BF48150290022076
:101960000390012004900320059002A90C48FFF782
:101970002FF84FF4806002900020039002A90848DD
:10198000FFF726F82520FFF716FA03221146252037
:10199000FFF721FA06B010BD0038014000100240E8
:1019A0000008014010B5034693F83A0020282FD1D3
:1019B00001B10AB9012010BD00BF93F83800012819
:1019C00001D10220F7E7012083F8380000BF9962B7
:1019D0009A85DA850020D863222083F83A0000BF78
:1019E000002083F8380000BF1868C06840F4807099
:1019F0001C68E0601868406940F001001C68606184
:101A00001868C06840F020001C68E0600020D2E741
:101A10000220D0E71D4A0168914236D11C4909884D
:101A200001F4004189BB1A49098801F4804171B170
:101A3000184909780A2903D00021154A118024E0A9
:101A40001349098841F40041114A11801DE01149F0
:101A500009780D2906D10E49098841F480410C4AC4
:101A6000118012E00B490978094A1288C2F30D026D
:101A7000094B995406490988491C054A11801146A9
:101A80000988C72901DD0021118070470038014015
:101A9000180000201A000020BC010020704700BF81
:101AA000FEE7000070B50446002609480588408816
:101AB00045430021084602F04DFE03F079F800BFCF
:101AC00002E004490C80761CAE42FAD370BD0000DF
:101AD0000C0300200008006C10B5044655488471C2
:101AE000002C51D1F020534908804FF4A070488059
:101AF0000846808849F24131884205D04D488088A7
:101B000045F21031884214D12C204A4908812A20FC
:101B100048812B2088810846808845F21031884210
:101B200006D14FF4A070434908804FF4F07048800C
:101B30007BE04048808845F21051884210D14FF434
:101B400030503C4908814FF4285048814FF42C50C4
:101B500088814FF4F07008804FF44870488064E04A
:101B60003448808841F6631188425ED12C20314987
:101B700008812B2048812A2088814FF4F07008804A
:101B80004FF44870488050E04FF4A0702949088015
:101B9000F02048800846808849F24131884205D0CB
:101BA0002448808845F21031884207D12C202149F1
:101BB00008812A2048812B20888129E01D488088BF
:101BC00045F21051884210D14FF430501949088124
:101BD0004FF4285048814FF42C5088814FF44870BE
:101BE00008804FF4F070488012E01248808841F677
:101BF000631188420CD12C200E4908812A2048818B
:101C00002B2088814FF4487008804FF4F070488092
:101C10000848808845F21031884206D14FF4F070B0
:101C2000044908804FF4A0704880002002F058FC5E
:101C300010BD00000C0300202DE9FF4F84B0814649
:101C40008A460020039002900698A0EB09050798A9
:101C5000A0EB0A06CDF80490CDF800A0002D01DD20
:101C6000012705E00DB9002702E04FF0FF376D4274
:101C7000002E02DD4FF0010806E016B94FF0000813
:101C800002E04FF0FF387642B54201DD2C4600E01D
:101C900034464FF0000B21E0009A91B2019A90B2C5
:101CA00000F022F8039828440390029830440290F0
:101CB0000398A04205DD0398001B03900198384467
:101CC00001900298A04205DD0298001B0290009846
:101CD000404400900BF101001FFA80FB601C83451B
:101CE000DADD08B0BDE8F08F30B504460D46294670
:101CF000204602F02FFD02F05BFF024800880249F7
:101D0000088030BD1C0000200008006CF0B50446BF
:101D10000D4616461F462B46324629462046FFF7FB
:101D20008BFF3B46224629462046FFF785FF3B4670
:101D3000324639462046FFF77FFF3B46324629466A
:101D40003046FFF779FFF0BD2DE9F04306460F4618
:101D50009046002445460320A0EB48093CE07A1B4E
:101D600091B2321990B2FFF7BFFF3A1B91B27219CC
:101D700090B2FFF7B9FF3A1991B2721990B2FFF71A
:101D8000B3FF7A1991B2321990B2FFF7ADFF7A1909
:101D900091B2321B90B2FFF7A7FF3A1991B2721BB2
:101DA00090B2FFF7A1FF7A1B91B2321B90B2FFF7FE
:101DB0009BFF3A1B91B2721B90B2FFF795FF641C18
:101DC000B9F1000F03DAA000801D814404E0601B1C
:101DD00080000A3081446D1EAC42C0DDBDE8F08356
:101DE00030B504460D463E48808849F2413188426C
:101DF00005D03B48808845F21031884214D13849DB
:101E0000488902F0C9FE201202F0BAFEE0B202F0E8
:101E1000B7FE3349888902F0BFFE281202F0B0FEF7
:101E2000E8B202F0ADFE54E02D48808845F2105132
:101E3000884220D12A49488902F0AEFE201202F0E1
:101E40009FFE27494989491C88B202F0A5FEE0B2ED
:101E500002F096FE2249888902F09EFE281202F0C6
:101E60008FFE1F498989491C88B202F095FEE8B2AD
:101E700002F086FE2DE01A48808841F66311884200
:101E800027D11748807920B915480088401E001BCB
:101E900084B21349488902F07FFE201202F070FEDE
:101EA000E0B202F06DFE201202F06AFEE0B202F033
:101EB00067FE0B49888902F06FFE281202F060FE6F
:101EC000E8B202F05DFE281202F05AFEE8B202F01B
:101ED00057FE0348008903490880891C0A8030BDE9
:101EE0000C030020FE07006C2DE9F04F05460E465E
:101EF00017469846DDF824A04FF0000B781B401CD5
:101F00001FFA80FB344613E02146284602F022FCEB
:101F100002F04EFE4FF0000906E00749A1F800A0CC
:101F200009F101001FFA80F9D945F6DB601C84B283
:101F30004445E9DDBDE8F08F0008006C00B593B0C2
:101F400000BFFE48806940F00800FC4988610846EF
:101F5000806900F00800009000BF00BF01200F90D2
:101F600010901190032012900FA9F548FEF730FD54
:101F70004FF02040F3490860F3484860062088602D
:101F80000021F048C160016110214161002181619F
:101F9000C16141624FF4805181620021C1624FF4FE
:101FA0008041016300214163816306200890002085
:101FB00009901A200A9000200E90049003200190AE
:101FC00000200290062003900020079001AA08A993
:101FD000DC48FFF7BBFA322003F022F9D32002F0ED
:101FE000DBFD02F0EDF9D949888002F0E9F9D74923
:101FF000888002F0E5F9D5498880084680884FF648
:10200000FF7101EA0020D149888002F0D9F9CF4957
:1020100089880843CD4988800846808849F2413143
:10202000884278D0D42002F0B7FD02F0C9F9C74940
:10203000888002F0C5F9C549888002F0C1F9C3491A
:102040008880084680884FF6FF7101EA0020BF496A
:10205000888002F0B5F9BD4989880843BB4988806A
:102060000846808845F21031884254D04FF45A40D7
:1020700002F092FD02F0A4F9B44988804FF45B406D
:1020800002F08AFD02F09CF9B049888008468088F9
:102090004FF6FF7101EA0020AC4988804FF45C40A4
:1020A00002F07AFD02F08CF9A84989880843A74913
:1020B000888008468088B0F5004F02D145F2105064
:1020C0008880A248808845F21051884223D0A12000
:1020D00002F062FD02F074F99C49888002F070F908
:1020E0009A498880084680884FF6FF7101EA0020EF
:1020F0009649888002F064F9944989880843934995
:1021000088800846808845F26171884203D141F693
:1021100063108E4988808D4881888DA0FEF7A8F8CD
:102120008A48808849F2413188427CD1CF2002F030
:1021300033FD002002F024FDC12002F021FD3020FB
:1021400002F01EFDED2002F027FD642002F018FDD4
:10215000032002F015FD122002F012FD812002F092
:102160000FFDE82002F018FD852002F009FD102087
:1021700002F006FD7A2002F003FDCB2002F00CFDF8
:10218000392002F0FDFC2C2002F0FAFC002002F0C5
:10219000F7FC342002F0F4FC022002F0F1FCF720FE
:1021A00002F0FAFC202002F0EBFCEA2002F0F4FC42
:1021B000002002F0E5FC002002F0E2FCC02002F06A
:1021C000EBFC1B2002F0DCFCC12002F0E5FC01204E
:1021D00002F0D6FCC52002F0DFFC302002F0D0FC7B
:1021E000302002F0CDFCC72002F0D6FCB72002F070
:1021F000C7FC362002F0D0FC482002F0C1FC3A2097
:1022000002F0CAFC552002F0BBFCB12002F0C4FC75
:10221000002002F0B5FC1A2002F0B2FCB62002F059
:10222000BBFC0A2000E0ACE002F0AAFCA22002F015
:10223000A7FCF22002F0B0FC002002F0A1FC262056
:1022400002F0AAFC012002F09BFCE02002F0A4FCBA
:102250000F2002F095FC2A2002F092FC282002F0C8
:102260008FFC082002F08CFC0E2002F089FC082074
:1022700002F086FC542002F083FCA92002F080FCCE
:10228000432002F07DFC0A2002F07AFC0F2002F0CD
:1022900077FC002002F074FC002002F071FC0020AA
:1022A00002F06EFC002002F06BFCE12002F074FCF6
:1022B000002002F065FC152002F062FC172002F0FD
:1022C0005FFC072002F05CFC112002F059FC0620A4
:1022D00002F056FC2B2002F053FC562002F050FC7A
:1022E0003C2002F04DFC052002F04AFC102002F0D8
:1022F00047FC0F2002F044FC3F2002F041FC3F204D
:1023000002F03EFC0F2002F03BFC2B2002F044FCCC
:10231000002002F035FC002002F032FC012002F027
:102320002FFC3F2002F02CFC2A2002F035FC00207C
:1023300002F026FC002002F023FC11E00010024015
:10234000000C0140C4020020040100A00C03002086
:10235000204C43442049443A25780D0A00000000EF
:10236000002002F00DFCEF2002F00AFC112002F028
:1023700013FC782002F054FF292002F00DFC01F03C
:10238000CBBFFE48808845F21031884240F07C8700
:10239000ED2002F001FC012002F0F2FBFE2002F031
:1023A000EFFBEE2002F0F8FBDE2002F0E9FB21203B
:1023B00002F0E6FBF12002F0EFFB012002F0E0FB6F
:1023C000DF2002F0E9FB102002F0DAFBC42002F06B
:1023D000E3FB8F2002F0D4FBC62002F0DDFB0020DF
:1023E00002F0CEFBE22002F0CBFBE22002F0C8FBC1
:1023F000E22002F0C5FBBF2002F0CEFBAA2002F0D3
:10240000BFFBB02002F0C8FB0D2002F0B9FB00209A
:1024100002F0B6FB0D2002F0B3FB002002F0B0FB8F
:10242000112002F0ADFB002002F0AAFB192002F0FF
:10243000A7FB002002F0A4FB212002F0A1FB00205A
:1024400002F09EFB2D2002F09BFB002002F098FB87
:102450003D2002F095FB002002F092FB5D2002F08F
:102460008FFB002002F08CFB5D2002F089FB002036
:1024700002F086FBB12002F08FFB802002F080FB8F
:10248000002002F07DFB8B2002F07AFB002002F09E
:1024900077FB962002F074FB002002F071FBB22063
:1024A00002F07AFB002002F06BFB002002F068FBD8
:1024B000022002F065FB002002F062FB032002F024
:1024C0005FFB002002F05CFBB32002F065FB002004
:1024D00002F056FB002002F053FB002002F050FBFC
:1024E000002002F04DFB002002F04AFB002002F029
:1024F00047FB002002F044FB002002F041FB0020DB
:1025000002F03EFB002002F03BFB002002F038FB13
:10251000002002F035FB002002F032FB002002F028
:102520002FFB002002F02CFB002002F029FB0020F2
:1025300002F026FB002002F023FB002002F020FB2B
:10254000002002F01DFB002002F01AFB002002F028
:1025500017FB002002F014FB002002F011FBB42056
:1025600002F01AFB8B2002F00BFB002002F008FBAC
:10257000962002F005FB002002F002FBA12002F0F1
:10258000FFFA002002F0FCFAB52002F005FB022061
:1025900002F0F6FA002002F0F3FA032002F0F0FA5B
:1025A000002002F0EDFA042002F0EAFA002002F026
:1025B000E7FAB62002F0F0FA002002F0E1FA00207B
:1025C00002F0DEFAB72002F0E7FA002002F0D8FAB3
:1025D000002002F0D5FA3F2002F0D2FA002002F0EB
:1025E000CFFA5E2002F0CCFA002002F0C9FA642093
:1025F00002F0C6FA002002F0C3FA8C2002F0C0FA02
:10260000002002F0BDFAAC2002F0BAFA002002F07D
:10261000B7FADC2002F0B4FA002002F0B1FA702020
:1026200002F0AEFA002002F0ABFA902002F0A8FA15
:10263000002002F0A5FAEB2002F0A2FA002002F03E
:102640009FFADC2002F09CFA002002F099FAB820F0
:1026500002F0A2FA002002F093FA002002F090FAB1
:10266000002002F08DFA002002F08AFA002002F029
:1026700087FA002002F084FA002002F081FA00209C
:1026800002F07EFABA2002F087FA242002F078FAEB
:10269000002002F075FA002002F072FA002002F029
:1026A0006FFAC12002F078FA202002F069FA0020C7
:1026B00002F066FA542002F063FA002002F060FA99
:1026C000FF2002F05DFA002002F05AFAC22002F068
:1026D00063FA0A2002F054FA002002F051FA0420B2
:1026E00002F04EFA002002F04BFAC32002F054FA36
:1026F0003C2002F045FA002002F042FA3A2002F0B3
:102700003FFA002002F03CFA392002F039FA0020AA
:1027100002F036FA372002F033FA002002F030FAE5
:102720003C2002F02DFA002002F02AFA362002F0B6
:1027300027FA002002F024FA322002F021FA0020C9
:1027400002F01EFA2F2002F01BFA002002F018FA05
:102750002C2002F015FA002002F012FA292002F0D3
:102760000FFA002002F00CFA262002F009FA0020ED
:1027700002F006FA242002F003FA01E00C03002024
:10278000002002F0FDF9242002F0FAF9002002F006
:10279000F7F9232002F0F4F9002002F0F1F93C20CF
:1027A00002F0EEF9002002F0EBF9362002F0E8F931
:1027B000002002F0E5F9322002F0E2F9002002F0F8
:1027C000DFF92F2002F0DCF9002002F0D9F92C20EB
:1027D00002F0D6F9002002F0D3F9292002F0D0F956
:1027E000002002F0CDF9262002F0CAF9002002F004
:1027F000C7F9242002F0C4F9002002F0C1F9242016
:1028000002F0BEF9002002F0BBF9232002F0B8F973
:10281000002002F0B5F9C42002F0BEF9622002F0F7
:10282000AFF9002002F0ACF9052002F0A9F9002070
:1028300002F0A6F9842002F0A3F9002002F0A0F92A
:10284000F02002F09DF9002002F09AF9182002F021
:1028500097F9002002F094F9A42002F091F90020E9
:1028600002F08EF9182002F08BF9002002F088F9AE
:10287000502002F085F9002002F082F90C2002F0CD
:102880007FF9002002F07CF9172002F079F900208E
:1028900002F076F9952002F073F9002002F070F949
:1028A000F32002F06DF9002002F06AF9E62002F050
:1028B00067F9002002F064F9C52002F06DF93220BA
:1028C00002F05EF9002002F05BF9442002F058F9B2
:1028D000002002F055F9652002F052F9002002F0C4
:1028E0004FF9762002F04CF9002002F049F98820D7
:1028F00002F046F9002002F043F9C62002F04CF93C
:10290000202002F03DF9002002F03AF9172002F0F1
:1029100037F9002002F034F9012002F031F90020EB
:1029200002F02EF9C72002F037F9002002F028F952
:10293000002002F025F9002002F022F9002002F028
:102940001FF9C82002F028F9002002F019F9002030
:1029500002F016F9002002F013F9002002F010F93D
:10296000C92002F019F9002002F00AF9002002F053
:1029700007F9002002F004F9002002F001F900201C
:1029800002F0FEF8002002F0FBF8002002F0F8F858
:10299000002002F0F5F8002002F0F2F8002002F02A
:1029A000EFF8002002F0ECF8002002F0E9F8002037
:1029B00002F0E6F8002002F0E3F8002002F0E0F870
:1029C000002002F0DDF8E02002F0E6F8162002F028
:1029D000D7F8002002F0D4F81C2002F0D1F8002033
:1029E00002F0CEF8212002F0CBF8002002F0C8F867
:1029F000362002F0C5F8002002F0C2F8462002F0AE
:102A0000BFF8002002F0BCF8522002F0B9F8002014
:102A100002F0B6F8642002F0B3F8002002F0B0F83B
:102A20007A2002F0ADF8002002F0AAF88B2002F024
:102A3000A7F8002002F0A4F8992002F0A1F80020E5
:102A400002F09EF8A82002F09BF8002002F098F80F
:102A5000B92002F095F8002002F092F8C42002F0AC
:102A60008FF8002002F08CF8CA2002F089F80020CC
:102A700002F086F8D22002F083F8002002F080F8FD
:102A8000D92002F07DF8002002F07AF8E02002F070
:102A900077F8002002F074F8F32002F071F80020BB
:102AA00002F06EF8E12002F077F8162002F068F8E4
:102AB000002002F065F81C2002F062F8002002F00D
:102AC0005FF8222002F05CF8002002F059F836206E
:102AD00002F056F8002002F053F8452002F050F8BA
:102AE000002002F04DF8522002F04AF8002002F0D7
:102AF00047F8642002F044F8002002F041F87A2000
:102B000002F03EF8002002F03BF88B2002F038F88B
:102B1000002002F035F8992002F032F8002002F08F
:102B20002FF8A82002F02CF8002002F029F8B92094
:102B300002F026F8002002F023F8C42002F020F86A
:102B4000002002F01DF8CA2002F01AF8002002F05E
:102B500017F8D22002F014F8002002F011F8D82063
:102B600002F00EF8002002F00BF8E02002F008F866
:102B7000002002F005F8F32002F002F8002001F036
:102B8000FFFFE22002F008F8052001F0F9FF002025
:102B900001F0F6FF0B2001F0F3FF002001F0F0FF41
:102BA0001B2001F0EDFF002001F0EAFF342001F0CE
:102BB000E7FF002001F0E4FF442001F0E1FF0020E6
:102BC00001F0DEFF4F2001F0DBFF002001F0D8FF15
:102BD000612001F0D5FF002001F0D2FF792001F043
:102BE000CFFF002001F0CCFF882001F0C9FF0020BA
:102BF00001F0C6FF972001F0C3FF002001F0C0FFE5
:102C0000A62001F0BDFF002001F0BAFFB72001F0BF
:102C1000B7FF002001F0B4FFC22001F0B1FF002097
:102C200001F0AEFFC72001F0ABFF002001F0A8FFCC
:102C3000D12001F0A5FF002001F0A2FFD62001F075
:102C40009FFF002001F09CFFDD2001F099FF002094
:102C500001F096FFF32001F093FF002001F090FFB8
:102C6000E32001F099FF052001F08AFF002001F028
:102C700087FF0A2001F084FF002001F081FF1C2063
:102C800001F07EFF002001F07BFF332001F078FF90
:102C9000002001F075FF442001F072FF002001F0D8
:102CA0006FFF502001F06CFF002001F069FF6220EF
:102CB00001F066FF002001F063FF782001F060FF63
:102CC000002001F05DFF882001F05AFF002001F094
:102CD00057FF972001F054FF002001F051FFA6207C
:102CE00001F04EFF002001F04BFFB72001F048FF3C
:102CF000002001F045FFC22001F042FF002001F05A
:102D00003FFFC72001F03CFF002001F039FFD12038
:102D100001F036FF002001F033FFD52001F030FF35
:102D2000002001F02DFFDD2001F02AFF002001F03E
:102D300027FFF32001F024FF002001F021FFE42011
:102D400001F02AFF012001F01BFF002001F018FF15
:102D5000012001F015FF002001F012FF022001F018
:102D60000FFF002001F00CFF2A2001F009FF0020D6
:102D700001F006FF3C2001F003FF002001F000FFFE
:102D80004B2001F0FDFE002001F0FAFE5D2001F075
:102D9000F7FE002001F0F4FE742001F0F1FE0020A7
:102DA00001F0EEFE842001F0EBFE002001F0E8FED1
:102DB000932001F0E5FE002001F0E2FEA22001F0E8
:102DC000DFFE002001F0DCFEB32001F0D9FE002080
:102DD00001F0D6FEBE2001F0D3FE002001F0D0FEAF
:102DE000C42001F0CDFE002001F0CAFECD2001F08C
:102DF000C7FE002001F0C4FED32001F0C1FE002078
:102E000001F0BEFEDD2001F0BBFE002001F0B8FEA7
:102E1000F32001F0B5FE002001F0B2FEE52001F044
:102E2000BBFE002001F0ACFE002001F0A9FE002056
:102E300001F0A6FE002001F0A3FE022001F0A0FE9A
:102E4000002001F09DFE292001F09AFE002001F0F3
:102E500097FE3C2001F094FE002001F091FE4B20F3
:102E600001F08EFE002001F08BFE5D2001F088FE57
:102E7000002001F085FE742001F082FE002001F0A8
:102E80007FFE842001F07CFE002001F079FE93207B
:102E900001F076FE002001F073FEA22001F070FE2A
:102EA000002001F06DFEB32001F06AFE002001F069
:102EB00067FEBE2001F064FE002001F061FEC42028
:102EC00001F05EFE002001F05BFECD2001F058FE17
:102ED000002001F055FED32001F052FE002001F049
:102EE0004FFEDC2001F04CFE002001F049FEF320F3
:102EF00001F046FE002001F043FEE62001F04CFE0A
:102F0000112001F03DFE002001F03AFE342001F0D6
:102F100037FE002001F034FE562001F031FE002083
:102F200001F02EFE762001F02BFE002001F028FE9D
:102F3000772001F025FE002001F022FE662001F03E
:102F40001FFE002001F01CFE882001F019FE002069
:102F500001F016FE992001F013FE002001F010FE92
:102F6000BB2001F00DFE002001F00AFE992001F0C7
:102F700007FE002001F004FE662001F001FE0020A3
:102F800001F0FEFD552001F0FBFD002001F0F8FDF1
:102F9000552001F0F5FD002001F0F2FD452001F083
:102FA000EFFD002001F0ECFD432001F0E9FD0020E1
:102FB00001F0E6FD442001F0E3FD002001F0E0FD1A
:102FC000E72001F0E9FD322001F0DAFD002001F0F8
:102FD000D7FD552001F0D4FD002001F0D1FD762071
:102FE00001F0CEFD002001F0CBFD662001F0C8FD10
:102FF000002001F0C5FD672001F0C2FD002001F0B6
:10300000BFFD672001F0BCFD002001F0B9FD872065
:1030100001F0B6FD002001F0B3FD992001F0B0FDF4
:10302000002001F0ADFDBB2001F0AAFD002001F061
:10303000A7FD992001F0A4FD002001F0A1FD77205B
:1030400001F09EFD002001F09BFD442001F098FD61
:10305000002001F095FD562001F092FD002001F0C6
:103060008FFD232001F08CFD002001F089FD33202D
:1030700001F086FD002001F083FD452001F080FD78
:10308000002001F07DFDE82001F086FD002001F028
:1030900077FD002001F074FD992001F071FD002002
:1030A00001F06EFD872001F06BFD002001F068FD4E
:1030B000882001F065FD002001F062FD772001F01D
:1030C0005FFD002001F05CFD662001F059FD00204D
:1030D00001F056FD882001F053FD002001F050FD65
:1030E000AA2001F04DFD002001F04AFDBB2001F0B7
:1030F00047FD002001F044FD992001F041FD002032
:1031000001F03EFD662001F03BFD002001F038FD9E
:10311000552001F035FD002001F032FD552001F071
:103120002FFD002001F02CFD442001F029FD00209E
:1031300001F026FD442001F023FD002001F020FDD8
:10314000552001F01DFD002001F01AFDE92001F0DD
:1031500023FDAA2001F014FD002001F011FD002044
:1031600001F00EFD002001F00BFD002001F014FD28
:10317000AA2001F005FDCF2001F00EFD002001F096
:10318000FFFC002001F0FCFC002001F0F9FC002015
:1031900001F0F6FC002001F0F3FC002001F0F0FC4F
:1031A000002001F0EDFC002001F0EAFC002001F01D
:1031B000E7FC002001F0E4FC002001F0E1FC00202D
:1031C00001F0DEFC002001F0DBFC002001F0D8FC67
:1031D000002001F0D5FC002001F0D2FC002001F01D
:1031E000CFFCF02001F0D8FC002001F0C9FC5020F9
:1031F00001F0C6FC002001F0C3FC002001F0C0FC7F
:10320000002001F0BDFCF32001F0C6FC002001F01D
:10321000B7FCF92001F0C0FC062001F0B1FC102041
:1032200001F0AEFC292001F0ABFC002001F0A8FC6D
:103230003A2001F0B1FC552001F0A2FC112001F070
:10324000ABFC642001F0ECFF292001F0A5FC352047
:1032500001F0A2FC002001F093FC512001F09CFC45
:10326000FF2001F08DFC532001F096FC2C2001F092
:1032700087FC552001F090FC822001F081FC2C207D
:1032800001F08AFC01F048B8FE48808845F21051F0
:1032900088427DD155214FF4704001F093FCAA2162
:1032A0004FF2010001F08EFC52214FF2020001F0BA
:1032B00089FC08214FF2030001F084FC01214FF248
:1032C000040001F07FFC0D214FF4304001F07AFC46
:1032D0000D214BF2010001F075FC0D214BF20200B3
:1032E00001F070FC34214FF4364001F06BFC3421C6
:1032F0004BF2016001F066FC34214BF2026001F0F8
:1033000061FC0D214FF4314001F05CFC0D214BF2CA
:10331000011001F057FC0D214BF2021001F052FC9C
:1033200034214FF4374001F04DFC34214BF2017051
:1033300001F048FC34214BF2027001F043FC002103
:103340004FF4324001F03EFC00214BF2012001F02D
:1033500039FC00214BF2022001F034FC24214FF40F
:10336000384001F02FFC24214BF6010001F02AFC2B
:1033700024214BF6020001F025FC01214FF43F40CF
:1033800001F020FC0F214FF4334001F01BFC00E062
:10339000FDE30F214BF2013001F014FC0F214BF241
:1033A000023001F00FFC34214FF4394001F00AFCE7
:1033B00034214BF6011001F005FC34214BF60210CC
:1033C00001F000FC08214FF4354001F0FBFB08211F
:1033D0004BF2015001F0F6FB08214BF2025001F0D4
:1033E000F1FB03214FF4424001F0ECFB24214FF4A8
:1033F0003A4001F0E7FB24214BF6012001F0E2FB0B
:1034000024214BF6022001F0DDFB00214FF43C406B
:1034100001F0D8FB78214BF6014001F0D3FB0021ED
:103420004BF6024001F0CEFB00214FF43D4001F08D
:10343000C9FB78214BF6015001F0C4FB00214BF68B
:10344000025001F0BFFB00214FF43E4001F0BAFBF7
:1034500064214BF6016001F0B5FB00214FF45140AF
:1034600001F0B0FB33214DF2011001F0ABFB002164
:103470004DF2021001F0A6FB34214DF2031001F0D1
:10348000A1FB00214DF2041001F09CFB3A214DF20A
:10349000051001F097FB00214DF2061001F092FBA0
:1034A0004A214DF2071001F08DFB00214DF208106A
:1034B00001F088FB5C214DF2091001F083FB002133
:1034C0004DF20A1001F07EFB81214DF20B1001F04C
:1034D00079FB00214DF20C1001F074FBA6214DF296
:1034E0000D1001F06FFB00214DF20E1001F06AFB90
:1034F000E5214DF20F1001F065FB01214DF2101096
:1035000001F060FB13214DF2111001F05BFB012172
:103510004DF2121001F056FB54214DF2131001F040
:1035200051FB01214DF2141001F04CFB82214DF2B0
:10353000151001F047FB01214DF2161001F042FB7E
:10354000CA214DF2171001F03DFB02214DF2181077
:1035500001F038FB00214DF2191001F033FB02217C
:103560004DF21A1001F02EFB01214DF21B1001F05B
:1035700029FB02214DF21C1001F024FB34214DF2F5
:103580001D1001F01FFB02214DF21E1001F01AFB6D
:1035900067214DF21F1001F015FB02214DF22010A2
:1035A00001F010FB84214DF2211001F00BFB0221F0
:1035B0004DF2221001F006FBA4214DF2231001F080
:1035C00001FB02214DF2241001F0FCFAB7214DF26B
:1035D000251001F0F7FA02214DF2261001F0F2FA5F
:1035E000CF214DF2271001F0EDFA02214DF2281003
:1035F00001F0E8FADE214DF2291001F0E3FA022190
:103600004DF22A1001F0DEFAF2214DF22B1001F0FA
:10361000D9FA02214DF22C1001F0D4FAFE214DF21C
:103620002D1001F0CFFA03214DF22E1001F0CAFA4D
:1036300010214DF22F1001F0C5FA03214DF2301088
:1036400001F0C0FA33214DF2311001F0BBFA032131
:103650004DF2321001F0B6FA6D214DF2331001F047
:10366000B1FA00214FF4524001F0ACFA33214DF28F
:10367000012001F0A7FA00214DF2022001F0A2FA88
:10368000342101E00C0300204DF2032001F09AFAEE
:1036900000214DF2042001F095FA3A214DF2052067
:1036A00001F090FA00214DF2062001F08BFA4A2138
:1036B0004DF2072001F086FA00214DF2082001F0BA
:1036C00081FA5C214DF2092001F07CFA00214DF2D3
:1036D0000A2001F077FA81214DF20B2001F072FAF5
:1036E00000214DF20C2001F06DFAA6214DF20D20C3
:1036F00001F068FA00214DF20E2001F063FAE52195
:103700004DF20F2001F05EFA01214DF2102001F080
:1037100059FA13214DF2112001F054FA01214DF212
:10372000122001F04FFA54214DF2132001F04AFA11
:1037300001214DF2142001F045FA82214DF21520AD
:1037400001F040FA01214DF2162001F03BFACA21A6
:103750004DF2172001F036FA02214DF2182001F047
:1037600031FA00214DF2192001F02CFA02214DF21C
:103770001A2001F027FA01214DF21B2001F022FA54
:1037800002214DF21C2001F01DFA34214DF21D20C2
:1037900001F018FA02214DF21E2001F013FA672100
:1037A0004DF21F2001F00EFA02214DF2202001F00F
:1037B00009FA84214DF2212001F004FA02214DF290
:1037C000222001F0FFF9A4214DF2232001F0FAF9A3
:1037D00002214DF2242001F0F5F9B7214DF2252008
:1037E00001F0F0F902214DF2262001F0EBF9CF2192
:1037F0004DF2272001F0E6F902214DF2282001F0D8
:10380000E1F9DE214DF2292001F0DCF902214DF22F
:103810002A2001F0D7F9F2214DF22B2001F0D2F944
:1038200002214DF22C2001F0CDF9FE214DF22D2088
:1038300001F0C8F903214DF22E2001F0C3F9102147
:103840004DF22F2001F0BEF903214DF2302001F09E
:10385000B9F933214DF2312001F0B4F903214DF2D1
:10386000322001F0AFF96D214DF2332001F0AAF9B9
:1038700000214FF4534001F0A5F933214DF20130FE
:1038800001F0A0F900214DF2023001F09BF9342142
:103890004DF2033001F096F900214DF2043001F0B1
:1038A00091F93A214DF2053001F08CF900214DF2E9
:1038B000063001F087F94A214DF2073001F082F914
:1038C00000214DF2083001F07DF95C214DF2093004
:1038D00001F078F900214DF20A3001F073F98121ED
:1038E0004DF20B3001F06EF900214DF20C3001F079
:1038F00069F9A6214DF20D3001F064F900214DF275
:103900000E3001F05FF9E5214DF20F3001F05AF968
:1039100001214DF2103001F055F913214DF2113013
:1039200001F050F901214DF2123001F04BF9542110
:103930004DF2133001F046F901214DF2143001F03F
:1039400041F982214DF2153001F03CF901214DF28F
:10395000163001F037F9CA214DF2173001F032F973
:1039600002214DF2183001F02DF900214DF21930ED
:1039700001F028F902214DF21A3001F023F901215A
:103980004DF21B3001F01EF902214DF21C3001F006
:1039900019F934214DF21D3001F014F902214DF2D4
:1039A0001E3001F00FF967214DF21F3001F00AF9C6
:1039B00002214DF2203001F005F984214DF2213031
:1039C00001F000F902214DF2223001F0FBF8A421B0
:1039D0004DF2233001F0F6F802214DF2243001F0CF
:1039E000F1F8B7214DF2253001F0ECF802214DF24B
:1039F000263001F0E7F8CF214DF2273001F0E2F850
:103A000002214DF2283001F0DDF8DE214DF229309F
:103A100001F0D8F802214DF22A3001F0D3F8F2215A
:103A20004DF22B3001F0CEF802214DF22C3001F096
:103A3000C9F8FE214DF22D3001F0C4F803214DF2FA
:103A40002E3001F0BFF810214DF22F3001F0BAF8FE
:103A500003214DF2303001F0B5F833214DF2313011
:103A600001F0B0F803214DF2323001F0ABF86D21D6
:103A70004DF2333001F0A6F800214FF4544001F02C
:103A8000A1F833214DF2014001F09CF800214DF2E4
:103A9000024001F097F834214DF2034001F092F812
:103AA00000214DF2044001F08DF83A214DF205401D
:103AB00001F088F800214DF2064001F083F84A2118
:103AC0004DF2074001F07EF800214DF2084001F070
:103AD00079F85C214DF2094001F074F800214DF2B3
:103AE0000A4001F06FF881214DF20B4001F06AF8B5
:103AF00000214DF20C4001F065F8A6214DF20D4079
:103B000001F060F800214DF20E4001F05BF8E52174
:103B10004DF20F4001F056F801214DF2104001F036
:103B200051F813214DF2114001F04CF801214DF2F2
:103B3000124001F047F854214DF2134001F042F8D1
:103B400001214DF2144001F03DF882214DF2154063
:103B500001F038F801214DF2164001F033F8CA2186
:103B60004DF2174001F02EF802214DF2184001F0FD
:103B700029F800214DF2194001F024F802214DF2FC
:103B80001A4001F01FF801214DF21B4000E005E34F
:103B900001F018F802214DF21C4001F013F8342115
:103BA0004DF21D4001F00EF802214DF21E4001F0D1
:103BB00009F867214DF21F4001F004F802214DF28F
:103BC000204000F0FFFF84214DF2214000F0FAFF79
:103BD00002214DF2224000F0F5FFA4214DF22340D6
:103BE00000F0F0FF02214DF2244000F0EBFFB7217E
:103BF0004DF2254000F0E6FF02214DF2264000F094
:103C0000E1FFCF214DF2274000F0DCFF02214DF211
:103C1000284000F0D7FFDE214DF2294000F0D2FF0E
:103C200002214DF22A4000F0CDFFF2214DF22B404F
:103C300000F0C8FF02214DF22C4000F0C3FFFE212E
:103C40004DF22D4000F0BEFF03214DF22E4000F05A
:103C5000B9FF10214DF22F4000F0B4FF03214DF2C7
:103C6000304000F0AFFF33214DF2314000F0AAFFA9
:103C700003214DF2324000F0A5FF6D214DF233409B
:103C800000F0A0FF00214FF4554000F09BFF3321CE
:103C90004DF2015000F096FF00214DF2025000F06D
:103CA00091FF34214DF2035000F08CFF00214DF2C2
:103CB000045000F087FF3A214DF2055000F082FFDA
:103CC00000214DF2065000F07DFF4A214DF20750D1
:103CD00000F078FF00214DF2085000F073FF5C21E6
:103CE0004DF2095000F06EFF00214DF20A5000F035
:103CF00069FF81214DF20B5000F064FF00214DF26D
:103D00000C5000F05FFFA6214DF20D5000F05AFF5D
:103D100000214DF20E5000F055FFE5214DF20F50FD
:103D200000F050FF01214DF2105000F04BFF132125
:103D30004DF2115000F046FF01214DF2125000F0FB
:103D400041FF54214DF2135000F03CFF01214DF290
:103D5000145000F037FF82214DF2155000F032FF71
:103D600001214DF2165000F02DFFCA214DF21750DF
:103D700000F028FF02214DF2185000F023FF00212F
:103D80004DF2195000F01EFF02214DF21A5000F0C2
:103D900019FF01214DF21B5000F014FF02214DF2DA
:103DA0001C5000F00FFF34214DF21D5000F00AFFAF
:103DB00002214DF21E5000F005FF67214DF21F5009
:103DC00000F000FF02214DF2205000F0FBFE8421A4
:103DD0004DF2215000F0F6FE02214DF2225000F08B
:103DE000F1FEA4214DF2235000F0ECFE02214DF231
:103DF000245000F0E7FEB7214DF2255000F0E2FE1E
:103E000002214DF2265000F0DDFECF214DF2275069
:103E100000F0D8FE02214DF2285000F0D3FEDE2142
:103E20004DF2295000F0CEFE02214DF22A5000F052
:103E3000C9FEF2214DF22B5000F0C4FE02214DF2DA
:103E40002C5000F0BFFEFE214DF22D5000F0BAFEC6
:103E500003214DF22E5000F0B5FE10214DF22F50EF
:103E600000F0B0FE03214DF2305000F0ABFE3321E4
:103E70004DF2315000F0A6FE03214DF2325000F019
:103E8000A1FE6D214DF2335000F09CFE00214FF455
:103E9000564000F097FE33214DF2016000F092FE93
:103EA00000214DF2026000F08DFE34214DF20360DE
:103EB00000F088FE00214DF2046000F083FE3A21FC
:103EC0004DF2056000F07EFE00214DF2066000F02C
:103ED00079FE4A214DF2076000F074FE00214DF298
:103EE000086000F06FFE5C214DF2096000F06AFE90
:103EF00000214DF20A6000F065FE81214DF20B6059
:103F000000F060FE00214DF20C6000F05BFEA62187
:103F10004DF20D6000F056FE00214DF20E6000F0F3
:103F200051FEE5214DF20F6000F04CFE01214DF2F3
:103F3000106000F047FE13214DF2116000F042FEC8
:103F400001214DF2126000F03DFE54214DF213604C
:103F500000F038FE01214DF2146000F033FE8221A2
:103F60004DF2156000F02EFE01214DF2166000F0BA
:103F700029FECA214DF2176000F024FE02214DF205
:103F8000186000F01FFE00214DF2196000F01AFECB
:103F900002214DF21A6000F015FE01214DF21B6066
:103FA00000F010FE02214DF21C6000F00BFE3421E7
:103FB0004DF21D6000F006FE02214DF21E6000F081
:103FC00001FE67214DF21F6000F0FCFD02214DF261
:103FD000206000F0F7FD84214DF2216000F0F2FD39
:103FE00002214DF2226000F0EDFDA4214DF223608C
:103FF00000F0E8FD02214DF2246000F0E3FDB7215E
:104000004DF2256000F0DEFD02214DF2266000F049
:10401000D9FDCF214DF2276000F0D4FD02214DF2F1
:10402000286000F0CFFDDE214DF2296000F0CAFDCE
:1040300002214DF22A6000F0C5FDF2214DF22B6005
:1040400000F0C0FD02214DF22C6000F0BBFDFE210E
:104050004DF22D6000F0B6FD03214DF22E6000F010
:10406000B1FD10214DF22F6000F0ACFD03214DF2A7
:10407000306000F0A7FD33214DF2316000F0A2FD69
:1040800003214DF2326000F09DFD6D214DF2336051
:1040900000F098FD55214FF4704000F093FDAA21E7
:1040A0004FF2010000F08EFD52214FF2020000F0AD
:1040B00089FD08214FF2030000F084FD00214FF23A
:1040C000040000F07FFDCC214FF4314000F07AFD78
:1040D00000214BF2011000F075FD05214FF4364030
:1040E00000F070FD70214FF4374000F06BFD70213F
:1040F0004BF2017000F066FD01214FF4384000F0F2
:1041000061FD03214BF6010000F05CFD03214BF63D
:10411000020000F057FD03214BF6030000F052FDB2
:1041200002214FF43C4000F04DFD00214BF60140D0
:1041300000F048FD00214BF6024000F043FDD02185
:104140004FF4494000F03EFD02214CF6011000F012
:1041500039FD50214CF6021000F034FD50214CF690
:10416000031000F02FFD50214CF6041000F02AFD42
:1041700000214FF4545000F025FD55214FF46850B4
:1041800000F020FD4FF4885000F006FD782001F08B
:1041900053F84FF4245000F0FFFCBDE07F488088C6
:1041A00041F663118842F8D1E22000F0F5FC1D20B1
:1041B00000F0E6FC022000F0E3FC042000F0E0FC4C
:1041C000642001F039F8E02000F0E6FC012000F066
:1041D000D7FC0A2001F024F8E02000F0DDFC0320E9
:1041E00000F0CEFC0C2001F01BF8012000F0D4FC04
:1041F0000A2001F015F8E62000F0CEFC2F2000F098
:10420000BFFCFF2000F0BCFCFF2000F0B9FCB02098
:1042100000F0C2FC202000F0B3FC002000F0B0FC55
:10422000032000F0ADFC40F21F3000F0A9FC01209B
:1042300000F0A6FC40F2DF1000F0A2FC002000F02D
:104240009FFCB42000F0A8FC042000F099FC40F290
:104250001F4000F095FC002000F092FC2E2000F0A2
:104260008FFC002000F08CFC002000F089FC002076
:1042700000F086FC002000F083FCB62000F08CFCEF
:10428000022000F07DFC4FF4037000F079FC002068
:1042900000F076FC172000F073FC152000F070FC95
:1042A000002000F06DFC002000F06AFCF02000F01F
:1042B00073FC032000F064FC292000F06DFCD0208A
:1042C00000F06AFC002000F05BFCBE2000F064FC03
:1042D000052000F055FCFE2000F052FC012000F00B
:1042E0004FFC002000F04CFC002000F049FC0020B6
:1042F00000F046FCB82000F04FFC032000F040FC2A
:10430000012000F03DFCBA2000F046FC012000F046
:1043100037FC642000F0BAF82048808849F2413127
:10432000884211D01D48808845F2103188420BD058
:104330001A48808845F21051884205D01748808875
:1043400041F6631188421CD11548006820F00F0027
:104350004FF02041C1F81C010846D0F81C0120F4A0
:104360007060C1F81C010846D0F81C0140F0010043
:10437000C1F81C010846D0F81C0140F48070C1F857
:104380001C010020FDF7A8FB0120064908604FF63C
:10439000FF70FDF787FB13B000BD00000C03002089
:1043A0001C0100A08081214210B50246012000E0DE
:1043B00050430B1EA1F10104E1B2F9D110BD000080
:1043C00008B5034800880090BDF8000008BD000053
:1043D0000008006C2DE9F04105460E460024002738
:1043E000A04629480088A84203DD27484088B042FB
:1043F00002DC0020BDE8F0813146284600F0AAF931
:104400002148808849F2413188420BD01E4880887B
:1044100045F21031884205D01B48808841F663116F
:10442000884203D12E2000F0B7FB09E016488088AF
:1044300045F21051884203D14FF4385000F0ACFBE4
:10444000FFF7BEFF04461048808841F6631188429A
:1044500001D12046CEE7022000F09AFFFFF7B0FF1F
:104460000446022000F094FFFFF7AAFF8046E7B25F
:104470004FF6FF7000EA0727E012C002B91240EAC7
:10448000411040EAE820B5E70C0300202DE9F04791
:104490000446BE2000F080FB052000F071FB2046A2
:1044A00002F079F807464FF066320C4B02F086F8BE
:1044B000054602F043F81FFA80F9484600F060FB19
:1044C000012000F05DFBFF2000F05AFB002000F00F
:1044D00057FB002000F054FBBDE8F08766660440FF
:1044E000F0B505460024002799488079012805D1B8
:1044F0009748808841F66311884208D194488079B2
:10450000F0B99348808841F66311884218D1082D8C
:1045100015D2DFE805F00406080A0C0E1012062575
:104520000DE007250BE0042509E0052507E001253E
:1045300005E0002503E0032501E0022500BF00BFE0
:104540008348808849F24131884211D08048808870
:1045500045F2103188420BD07D48808845F21051D9
:10456000884205D07A48808841F6631188427DD11F
:10457000082D1CD2DFE805F00406090C0F121518EF
:1045800000BF14E044F0800411E044F040040EE069
:1045900044F0C0040BE044F0200408E044F0600460
:1045A00005E044F0A00402E044F0E00400BF00BFD6
:1045B0006748808845F21051884202D14FF458571D
:1045C00000E036276248808845F2103188420DD0DD
:1045D0005F48808845F21051884207D05C48808847
:1045E00041F66311884201D044F008042146384660
:1045F00000F0E8FA5648808841F6631188421DD0E1
:1046000004F0200068B15248008851494988884226
:1046100014DA4F48068840884D490880084646808D
:104620000CE04B4800884A494988884206DD4848E2
:104630000688408846490880084646804448808865
:1046400045F21051884254D14149488900F0A4FAFA
:10465000002000F095FA3E494989491C88B200F0D3
:104660009BFA002000F08CFA394900E06FE049899C
:10467000891C88B200F090FA35490988491EC1F3B7
:104680000F2000F07DFA32494989C91C88B200F038
:1046900083FA2F490978491EC8B200F071FA2C49F3
:1046A000888900F079FA002000F06AFA284989899F
:1046B000491C88B200F070FA002000F061FA244929
:1046C0008989891C88B200F067FA21494988491E06
:1046D000C1F30F2000F054FA1D498989C91C88B222
:1046E00000F05AFA1A498978491EC8B200F048FA0F
:1046F0002DE01749488900F04FFA002000F040FAF9
:10470000002000F03DFA12490988491EC1F30F202C
:1047100000F036FA0E490978491EC8B200F030FAA6
:104720000B49888900F038FA002000F029FA0020AF
:1047300000F026FA06494988491EC1F30F2000F00F
:104740001FFA03498978491EC8B200F019FAF0BD72
:104750000C03002010B502460C464B48808849F2F5
:104760004131884205D04848808845F2103188425E
:1047700014D14549488900F00FFA101200F000FAF0
:10478000D0B200F0FDF94049888900F005FA201206
:1047900000F0F6F9E0B200F0F3F973E03A488088EF
:1047A00041F66311884247D137488079A8B9364825
:1047B0000088401E801A82B23349488900F0ECF923
:1047C000002000F0DDF9002000F0DAF9101200F00E
:1047D000D7F9D0B200F0D4F916E02B49488900F09F
:1047E000DBF9101200F0CCF9D0B200F0C9F926497B
:1047F0000988491EC1F30F2000F0C2F92249097847
:10480000491EC8B200F0BCF91F49888900F0C4F9FC
:10481000201200F0B5F9E0B200F0B2F91A49498867
:10482000491EC1F30F2000F0ABF917498978491EE2
:10483000C8B200F0A5F925E01348808845F2105170
:1048400088421FD11049488900F0A6F9101200F0E3
:1048500097F90D494989491C88B200F09DF9D0B2F9
:1048600000F08EF90849888900F096F9201200F0CE
:1048700087F905498989491C88B200F08DF9E0B2B1
:1048800000F07EF910BD00000C0300202DE9F84F68
:1048900080460F4616461C46BB462046E31704EBEF
:1048A0005373DB1021464FEAE47C04EB5C7C4FEA57
:1048B000EC0CA4EBCC0CBCF1000F02D04FF0010CBF
:1048C00001E04FF0000C6344224604EBD27C4FEA37
:1048D0006C0C03FB0CF3DBB20093A6F12000C6B214
:1048E00000255EE00C2C07D106EB46002F4901EBBA
:1048F000800010F805901BE0102C05D12C4800EB2F
:10490000061010F8059013E0182C07D106EBC6002E
:10491000284901EB800010F8059009E0202C05D112
:10492000254800EBC61010F8059001E0BDE8F88FAF
:104930004FF0000A2FE009F0800030B11F483946DF
:1049400002684046FDF74CFA07E00A9828B91C486F
:10495000394602684046FDF743FA4FEA49604FEA9C
:104960001069781C87B217484088B84200DCDDE740
:10497000A7EB0B00A0420AD15F4608F101001FFA25
:1049800080F810480088404500DCCFE706E00AF1D7
:10499000010000F0FF0ABAF1080FCCDB00BF681C71
:1049A000C5B2009885429DDB00BFBFE7D067000815
:1049B000446C000834720008907F00081C0000203E
:1049C000200000200C0300202DE9FF4F81B0074696
:1049D00091461E460E9D4FF0000A002439E0301B20
:1049E000401EC1B20A20FFF7DFFCB9FBF0F00A213C
:1049F000B0FBF1F201FB1208BAF1000F16D1701EE4
:104A0000A04213DDB8F1000F0ED10020AB4605EB3C
:104A1000DB71491001FB0471009088B22B46202203
:104A20000299FFF733FF12E04FF0010A0020AB4676
:104A300005EBDB71491001FB0471009088B208F1AD
:104A40003001CAB22B460299FFF720FF00BF601C5D
:104A5000C4B2B442C3DB05B0BDE8F08F2DE9F8471E
:104A600004460D4690469946DDE9096704F0FF0AC1
:104A700008EB04001FFA80F809EB05001FFA80F923
:104A800016E0444502DB5446A81985B24D4500DBCB
:104A900014E0002000903A78334629462046FFF77C
:104AA000F5FE304606EBD07104EB61018CB27F1C41
:104AB00038787E2802DC38782028E2DA00BFBDE8AA
:104AC000F8872DE9FF4F82B0064692461F46DDE982
:104AD0000F480020019000254DE0781B401EC1B218
:104AE0000A20FFF761FCBAFBF0F00A21B0FBF1F2FB
:104AF00001FB1209019850BB781EA84227DDB9F1CD
:104B0000000F22D108F0800078B108F00100A34620
:104B100004EBDB71491001FB0561009088B223466C
:104B200030220399FFF7B2FE0EE008F00100A34621
:104B300004EBDB71491001FB0561009088B223464C
:104B400020220399FFF7A2FE13E00120019008F054
:104B50000100A34604EBDB71491001FB05610090E5
:104B600088B209F13001CAB223460399FFF78EFEDD
:104B700000BF681CC5B2BD42AFDB06B0BDE8F08F18
:104B800001B5BDF800000090BDF8000001490880A3
:104B900008BD00000008006C01B5BDF800000090E1
:104BA000BDF800000149088008BD0000FE07006C48
:104BB0000248008902490880704700000C03002069
:104BC000FE07006C024A1080921C118070470000A2
:104BD000FE07006C00B585B000BF1B48806940F03F
:104BE0000800194988610846806900F008000090B3
:104BF00000BF00BF00BF0846806940F040008861E8
:104C00000846806900F04000009000BF00BF2020EF
:104C100001900120029003900320049001A90B4809
:104C2000FBF7D6FE2020019001A90948FBF7D0FE32
:104C3000012220210548FCF76BF8012220210448BD
:104C4000FCF766F805B000BD00100240000C014002
:104C50000018014000BFFEE77047704708B50849DB
:104C60000968C9084FF47A72B1FBF2F1414300912F
:104C700000BF00BF00994A1E00920029F9D108BD6B
:104C800000000020704730B58FB005460024012099
:104C90000590000406900020079002200C90C103AC
:104CA0000D910E9505A8FCF71FFA04460CB100BF44
:104CB000FEE70F20009002200190002002904FF4A8
:104CC000806003900020049002216846FCF7D6F82B
:104CD00004460CB100BFFEE70FB030BD10B5FCF7C5
:104CE00023F810BD1148006840F001000F4908602A
:104CF000084640680E4908400C494860084600686C
:104D00000C490840094908600846006820F48020E2
:104D100008600846406820F4FE0048604FF41F0019
:104D20008860C80304490860704700000010024012
:104D30000000FFF8FFFFF6FE08ED00E010B50E489A
:104D40000068C06800F0010078B10C49086980472C
:104D5000002009490968486200BF642006490968C3
:104D6000C86264210448C16000BF6FF001000249BD
:104D70000968086110BD00001C030020C800002065
:104D800010B50268204B98420ED0204B98420BD0B1
:104D9000B0F1804F08D01E4B984205D01D4B984271
:104DA00002D01D4B984203D122F070024B681A4387
:104DB000154B98420ED0154B98420BD0B0F1804F56
:104DC00008D0134B984205D0124B984202D0124B98
:104DD000984203D122F44072CB681A4322F0800338
:104DE0004C6943EA040202608B68C3620B68836209
:104DF000054B984202D0054B984201D10B690363E1
:104E00000123436110BD0000002C0140003401402B
:104E10000004004000080040000C004038B5044683
:104E20000D4600BF1148C06940F004000F49C86139
:104E30000846C06900F00400009000BF00BF0322D4
:104E400011461E20FBF7C7FF1E20FBF7B4FF0848E2
:104E5000084908600846456000218160C46001611E
:104E6000FCF730FC0348FCF748FC38BD001002405A
:104E7000000800401C03002070B505466C6A002045
:104E8000E085E0842046FCF74DFC70BD0168C968F0
:104E900021F490710268D1600168496921F0010133
:104EA00002685161202180F83A10704710B504461D
:104EB0002068C06820F040002168C860202084F885
:104EC00039002046FCF7EAFD002010BD70B504460D
:104ED00094F83A0022284AD1A068B0F5805F13D137
:104EE000A56A206940B920684068C0F3080028809E
:104EF000A06A801CA06219E020684068C0B22880C7
:104F0000A06A401CA06211E0206938B9206840689E
:104F1000C1B2A26A501CA062117007E0206840680C
:104F200000F07F01A26A501CA0621170E08D401E4B
:104F300080B2E085C8B92068C06820F020002168F0
:104F4000C8602068C06820F480702168C86020684C
:104F5000406920F0010021684861202084F83A006F
:104F60002046FCF757FD002070BD0020FCE7022022
:104F7000FAE7000070B504462168096921F4405140
:104F8000E2681143226811612269A16811436269D4
:104F900041EA02052168C96841F20C629143294344
:104FA0002268D1602168496921F44071A2691143E6
:104FB00022685161564A2168914254D1FCF73AF86F
:104FC00000EBC00101EB001162689200B1FBF2F14D
:104FD00000EBC00202EB001263689B00B2FBF3F22D
:104FE0006423B2FBF3F202EBC20303EB0212A1EB68
:104FF0008201322202EB01116422B1FBF2F101F0D5
:10500000F00100EBC00202EB001263689B00B2FBF0
:10501000F3F26423B2FBF3F201EB021200EBC001E6
:1050200001EB001163689B00B1FBF3F100EBC003DF
:1050300003EB00136668B600B3FBF6F36426B3FB1C
:10504000F6F303EBC30606EB0313A1EB8301322354
:1050500003EB01116423B1FBF3F101F00F011144E3
:105060002268916053E0FBF7D5FF00EBC00101EB34
:10507000001162689200B1FBF2F100EBC00202EB9A
:10508000001263689B00B2FBF3F26423B2FBF3F2FD
:1050900002EBC20303EB0212A1EB8201322202EB0C
:1050A00001116422B1FBF2F101F0F00100EBC0024A
:1050B00002EB001263689B00B2FBF3F26423B2FBC5
:1050C000F3F201EB021200EBC00101EB0011636887
:1050D0009B00B1FBF3F100EBC00303EB0013666828
:1050E000B600B3FBF6F36426B3FBF6F303EBC3069B
:1050F00006EB0313A1EB8301322303EB01116423BD
:10510000B1FBF3F101F00F0111442268916070BD11
:1051100000380140014691F8390021282CD18868D7
:10512000B0F5805F0FD10A6A1088C0F308000B68E1
:105130005860086918B9086A801C086209E0086AA2
:10514000401C086205E00B6A581C086218780B685E
:105150005860C88C401E80B2C88458B90868C068BE
:1051600020F080000B68D8600868C06840F04000FC
:105170000B68D860002070470220FCE710B50024BF
:105180000C48FCF7DBFA00BF01E0641C00BF0948D3
:10519000FCF7C9FA2028F8D100BF002401E0641C04
:1051A00000BF012204490348FCF7FCFB0028F6D1AC
:1051B00000BF10BD840200201A00002000BFFEE7DF
:1051C00002480068C0F30220704700000CED00E0C8
:1051D00010B5002804DB0A07130E054A135406E035
:1051E0000A07140E034A00F00F031B1FD45410BD0E
:1051F00000E400E018ED00E030380A2801D2012078
:1052000070470020704700BF7047000010B504468B
:105210000420FCF729FA0148046010BD10000020AA
:1052200030B50446002504E04FF47A7000F004F82D
:105230006D1CA542F8D330BD70B5034600224FF077
:10524000E02675690D4E366803FB06F44FF0E02644
:10525000B16910E04FF0E026B06988420BD0884277
:1052600002D20E1A324402E02E1A0E443244014693
:10527000A24200D300E0EDE700BF70BD10000020A7
:1052800000BF054A126802F04002002AF9D0C2B2FB
:10529000014B1B1D1A60704700380140014908602E
:1052A00070470000940123421CB5FBF749FD4FF401
:1052B000E010FFF7E8FC4820FFF7A8FF4FF4E130CB
:1052C00000F076F8FFF786FCFCF738FE1E484168D0
:1052D000542088474FF478401C4908601CA01021D6
:1052E0000B46C822CDE9001032211E20FFF7B6FB85
:1052F0001CA010210B46C822CDE9001046211E201B
:10530000FFF7ACFB1AA010210B46C822CDE9001014
:105310005A211E20FFF7A2FB19A010210B46C8221C
:10532000CDE900106E211E20FFF798FB0BE0174817
:10533000006808B9012000E00020144908604FF41B
:10534000FA70FFF76DFFF2E7C80000201C00002094
:10535000576172536869702053544D3332205E5F39
:105360005E00000055534D415254205445535400A3
:1053700041544F4D40414C49454E54454B0000006F
:10538000323031392F31302F3800000094812142E2
:1053900000BF011EA0F10102D0B2FAD17047014650
:1053A0000868704770B505460C462046A84770BD92
:1053B00010B5044609480A490860084644600021BF
:1053C0008160C160016181610C214161FCF75CFA7F
:1053D000012204490248FCF7E5FA10BD00380140FB
:1053E000840200201A00002030B595B0054613ABAA
:1053F00012AA09A9284600F03FFA044614B1204633
:1054000015B030BD0020149026E0224909689DF8AF
:10541000502001EBC20113AB11AA486801A900F0AA
:105420002BFA04460CB12046EAE709A901A800F0CE
:10543000E1FC60B99DF844009DF84810884201DD08
:105440000220DDE79DF85000124988750AE09DF8BA
:105450005000401CC0B214900E48007D9DF85010C2
:105460008842D2DC00BF0B48007D9DF85010884276
:1054700001D10420C4E714A9284600F0DDFA04464F
:105480000CB12046BCE79DF8500002494875002049
:10549000B6E70000C80000202DE9F0419AB09C4812
:1054A000847D007DA04202DC1AB0BDE8F0819849FD
:1054B000096801EBC40106AB07AA486808A900F017
:1054C000DBF908A993A0FAF7D3FE002644E0904840
:1054D000008B0121B1400840D8B122218FA0FAF7FA
:1054E000C7FE304600F02EFB894924314718394663
:1054F0008BA0FAF7BDFE222188A0FAF7B9FE30464C
:1055000000F020FB82492431084410A941F826000C
:1055100018E0304600F016FB7D492431085810A9E8
:1055200041F826007A48C07D30B910A850F82610FE
:105530007CA0FAF79DFE05E010A850F826107AA08E
:10554000FAF796FE9DF81C00401EB04202D078A0EB
:10555000FAF78EFE701CC6B29DF81C008642B6DBC0
:1055600074A0FAF785FE00F03FFB6948407D0B28E8
:105570000DD2DFE800F0060D151E27323F4E5F7298
:1055800087006349096851F834008047054690E078
:105590005F4A126852F8341010988847054688E030
:1055A0005B4B1B6853F83420DDE91001904705463A
:1055B0007FE0574F3F6857F8343010A807C8984726
:1055C000054676E0DFF848C1DCF800C05CF83470CE
:1055D00010A80FC8B84705466BE01498DFF830C133
:1055E0000090DCF800C05CF8347010A80FC8B84711
:1055F00005465EE0DDE91401DFF814C1CDE90001E4
:10560000DCF800C05CF8347010A80FC8B847054635
:105610004FE0DDE914121698DFF8F4C0CDE900126E
:105620000290DCF800C05CF8347010A80FC8B847CE
:1056300005463EE0DDE91423DDE91610DFF8D0C0B1
:10564000CDE90023CDE90210DCF800C05CF834702D
:1056500010A80FC8B84705462BE0DDE91523DDE9A2
:105660001710CDE90123CDE903101498DFF8A0C08D
:105670000090DCF800C05CF8347010A80FC8B84780
:10568000054616E0DDE91623DDE91810CDE9022311
:10569000CDE90410DDE91401DFF874C0CDE90001A3
:1056A000DCF800C05CF8347010A80FC8B847054695
:1056B00000BF00BF00F056FA9DF8180001280CD179
:1056C0001348C07D20B929461BA0FAF7D1FD07E099
:1056D00029461BA0FAF7CCFD02E018A0FAF7C8FD96
:1056E0000B4890F8EC0088B10948D0F8F0000A2186
:1056F000B0FBF1F201FB12070548D0F8F000B0FB57
:10570000F1F83A46414611A0FAF7B2FD00BFCBE6E8
:10571000C80000200D0A2573280000002563000042
:1057200025730000256C64003058255800000000E7
:105730002C000000290000003D256C753B0D0A007F
:105740003D305825583B0D0A0000000046756E6339
:1057500074696F6E2052756E2054696D653A2564C8
:105760002E2531646D730D0A00000000F0B503466C
:10577000154600200022002600245BE01F782C2F15
:1057800001D104B901221F78292F01D01F780FB948
:1057900004B950E0002E3AD11F78302F02DB1F7879
:1057A000392F17DD1F782D2F14D01F782B2F11D0F4
:1057B0001F78612F02DB1F78662F0BDD1F78412FCA
:1057C00002DB1F78462F05DD1F78582F02D01F7887
:1057D000782F0CD102B12EE01F78612F03DB1F78E8
:1057E000203F0F7001E01F780F70491C1FE01F78E9
:1057F000222F04D102B11EE00126012417E01F78F8
:10580000202F14D01F782C2F11D0FF2613E01F78E3
:10581000222F00D1002402B10DE044B11F785C2F8B
:1058200002D15B1C471CF8B21F780F70491C471C43
:10583000F8B25B1CA2E700BF00270F702E70F0BD0E
:1058400010B50446002010700BE020780870641C2E
:10585000491C1078401C10701078984201DB012020
:1058600010BD2078202802D020780028EDD100201B
:10587000087000BFF4E700002DE9FF4F85B08046B7
:1058800089460027002004900390012002904FF0E9
:10589000000B002544461DE02078202816D005F096
:1058A0007F00052812DA0DB945F0800505F07F006C
:1058B000042803D120782A2800D00EE0207805F0B3
:1058C0007F010DF80100681CC5B202E0852D00D1F2
:1058D00003E0641C20780028DED100BF8DB10020D9
:1058E00005F07F010DF8010051A1684600F082FA31
:1058F00018B900210898017002E001210898017090
:1059000000254FF0000A444614E0641C0AF101002F
:1059100000F0FF0A2078202802D020782A2809D118
:10592000204600F0D9F90646282E03D02A2E01D0B1
:10593000CDF810A02078282802D020780028E4D1C3
:105940004446049810B10498401C04444FF0000AE7
:10595000002654E0207810B94FF0010A50E020787A
:10596000282803D116B9781CC7B213E0207829285B
:1059700008D13EB917B1781EC7B201E04FF0010A55
:1059800047B93DE02078222804D10EB9012000E07B
:105990000020064647B9207820282FD0207889F8A3
:1059A000000009F1010929E020782C2804D1012008
:1059B0000290681CC5B214E02078202811D020780D
:1059C00028280ED04DB9BBF1050F06DA20780DF866
:1059D0000B000BF1010000F0FF0B0298401CC0B25D
:1059E0000290012F0AD10298022807D10298401C88
:1059F000C0B202900398401CC0B20390641CA9E797
:105A000000BF0398012809D100200DF80B0008A160
:105A1000684600F0EFF908B9002003900799039851
:105A20000870002089F80000504609B0BDE8F08FEA
:105A3000766F6964000000002DE9F043B5B00546BB
:105A40000F460024002604E000213D488155701CCB
:105A5000C6B20A2EF8DB06E06D1C287818B90120C2
:105A600035B0BDE8F08328782828F5D16D1C61E0B9
:105A700034AA69462846FFF779FE064635449DF864
:105A8000D00020B1012827D0FF284CD149E09DF853
:105A9000000000B333A9684600F029F906460EB1AC
:105AA0000220DDE7204600F04DF825490A31339AFF
:105AB0000A50A1F12400008B0121A1408843204914
:105AC0001A39088304211E480155601CC4B20A2CEF
:105AD00001DD0320C4E726E0684600F0A7F9401C7A
