:020000040800F2
:1000000060040020450100087B040008B5030008D7
:10001000790400088D010008CD05000800000000EB
:100020000000000000000000000000006F05000854
:100030008F010008000000006D0500087105000830
:100040005F0100085F0100085F0100085F01000810
:100050005F0100085F0100085F0100085F01000800
:100060005F0100085F0100085F0100085F010008F0
:100070005F0100085F0100085F0100085F010008E0
:100080005F0100085F0100085F0100085F010008D0
:100090005F0100085F0100085F0100085F010008C0
:1000A0005F0100085F0100085F0100085F010008B0
:1000B0005F0100085F0100085F0100085F010008A0
:1000C0005F0100085F0100085F0100085F01000890
:1000D0005F0100085F0100085F0100085F01000880
:1000E0005F0100085F0100085F0100085F01000870
:1000F0005F0100085F0100085F0100085F01000860
:100100005F0100085F0100085F0100085F0100084F
:100110005F0100085F0100085F0100085F0100083F
:100120005F0100085F0100085F0100085F0100082F
:10013000DFF80CD000F018F800480047D10500089F
:10014000600400200648804706480047FEE7FEE7B7
:10015000FEE7FEE7FEE7FEE7FEE7FEE7FEE7FEE777
:100160008105000831010008064C074D06E0E068F3
:1001700040F0010394E8070098471034AC42F6D3EE
:10018000FFF7DAFF98130008B8130008FEE770477E
:100190002DE9FC41F94D80462C6895F84100202856
:1001A00036D1684817460E4601211922234600F031
:1001B0001BF968BB95F84000012829D0012085F87B
:1001C000400068680168C90703D1016841F0010176
:1001D000016001685C4A234621F40061016021212D
:1001E00085F84110402185F8421000216964EF85AF
:1001F000E98D2A63AE624FF48072A985016841F4EB
:10020000807101604FF00110002100F0EDF808B19D
:10021000BDE8FC816868782101614169890714D4CF
:100220004169490526D42968091BB1F5807FF4D9B5
:1002300000202021686385F8411085F8420085F888
:100240004000686C40F0200027E0002101914169E6
:100250000191806901900198204600F0EDF8F8B115
:10026000686C0428D4D16868016841F400710160A9
:10027000BDE8FC81016841F4007101606FF48061A8
:10028000416100202021686385F8411085F8420013
:1002900085F84000686C40F004006864BDE8FC81AB
:1002A00068685FFA88F10161A98D09042BD02046A6
:1002B00000F0C2F80028D3D1AA6A6868114611F884
:1002C000013B0361EB8D013BEB85A962AB8D591EB0
:1002D000A9850F04466918BF16F00406E5D05178C9
:1002E00002320161991EAA62A985EA8D013AEA8566
:1002F000DBE700F061F80028B2D12868001BB0F5F8
:10030000807F11D8686841694907F2D5016841F4D6
:1003100000710160202085F84100002085F8400030
:1003200085F84200BDE8FC8100202021686385F843
:10033000411085F8420085F84000686C40F02000CC
:1003400068648DE7020010000000FFFFB0B5164999
:100350004FF47A734A68B2FBF3F20023013AB3EB2D
:10036000126F1FD1114CF0250F286260104AD5750D
:10037000A3604FF00703236014D813684FF0FF35D4
:10038000C3F30223DC1E83F0070338BF0024042BD1
:1003900028BF042305FA03F320EA0303A3401B014B
:1003A000D3750860B0BD00BF0000002010E000E081
:1003B0000CED00E0FEE7000070494A685069400516
:1003C0004FF000000FD56FF4806353612022486323
:1003D00081F8412081F8420081F84000486C40F0EB
:1003E0000400486401207047F0B500F47F0418252C
:1003F00080B2B4F5803F614C08BF14256668775918
:1004000007403F1AB7FA87F77F098F4212D1276852
:10041000FF1A9742F3D900202021606384F841102D
:1004200084F8420084F84000606C40F02000606472
:100430000120F0BD0020F0BDB0B5504D0446686805
:100440004069000616D4FFF7B7FF88B92868001B7B
:10045000B0F5807FF3D900202021686385F8411032
:1004600085F8420085F84000686C40F02000686420
:100470000120B0BD0020B0BDFEE77047B0B5044616
:10048000A1F15000054DC0B2A84720091030A8477F
:1004900004F00F002946BDE8B040084745050008B4
:1004A000F8B516460D460446FFF7E8FFA6F1200012
:1004B0000D490027C0B201EB0016082F04D0F05DF3
:1004C00000F04AF80137F8E7681CC1B22046FFF790
:1004D000D5FF06F108040025082D08BFF8BD605DB2
:1004E00000F03AF80135F7E7BA0B00082DE9F843B8
:1004F00016460D468146FFF7C1FF7600DFF84080C3
:100500000024F0B208EB0017102C04D0385D00F086
:1005100023F80134F8E7681CC1B24846FFF7AEFF84
:1005200046F001000025C0B208EB0014102D08BFF2
:10053000BDE8F883605D00F00FF80135F6E700BF15
:100540009A110008E0B58DF807000DF107010020B1
:100550000122FFF71DFE8CBDE0B58DF807000DF1FF
:10056000070140200122FFF713FE8CBD7047704742
:100570000248016801310160704700BF0800002097
:100580000E480F4A016841F00101016041681140C5
:100590000C4A4160016811400160016821F480212A
:1005A0000160416821F4FE0141604FF41F01816048
:1005B00005484FF000610160704700BF0010024025
:1005C0000000FFF8FFFFF6FE08ED00E0FEE7000088
:1005D00082B0DD4E4FF6FF02306840F01000306010
:1005E000DA4801681140DA4A114301600020FFF740
:1005F000ADFED84C0222606940F001006061606984
:1006000000F0010001900198A06940F08050A061C5
:10061000A06900F0805001900198CF48016862F312
:100620001A610160206800F00C00042808D154F819
:10063000040C206800F00C0008281BD120683DE065
:10064000206800F00C00082802D12068C003EED416
:1006500054F8040C40F4803044F8040CDFF8E00453
:10066000016854F8042C9203E3D40268521A642AF5
:10067000F7D923E0B94900200860DFF8C404026814
:1006800054F8043C9B0104D503689B1A022BF7D94C
:1006900014E0226822F400322260226822F47412EC
:1006A00002F5E812226001220A60016854F8042C65
:1006B000920103D40268521A022AF7D93068A84D71
:1006C00010F0060F09D13068022161F3020030609A
:1006D000306800F00700022861D1206840F4E06033
:1006E0002060206840F460502060206820F0F00016
:1006F000206054F8040C800151D52068022141F299
:10070000883261F301002060DFF834040168236857
:1007100003F00C03082B04D003685B1A9342F6D94C
:100720003DE0306800F00700032809D3306802215B
:1007300061F302003060306800F0070002282ED11B
:100740002068042161F30A202060206820F46050B2
:1007500020608448216801F00C02082A12D1C1F3FC
:1007600083420FF2E033C9039A5C02D402FB05F026
:1007700008E0216850430FF2DC32C1F34041515C84
:10078000B0FBF1F021680FF2D032C1F30311515CDC
:10079000C840DFF8D41348600868FFF7D7FD6069E8
:1007A000E54FDFF89CC3E54E4FF48041002240F056
:1007B00004003B466061606900F00400019001980C
:1007C000606940F008006061CCF81410CCE90322A5
:1007D000CCF80870CCF804606169CCE90622CCE959
:1007E000082201F00801019101999CF84110C1BB58
:1007F0008CF84020DD48BA46B046A94601274FF0A4
:100800000F0E00266169834641F00801616161694C
:1008100001F00801019101990021082913D007FA7C
:1008200001F010F0C00F0BD030465B46082928BFFE
:10083000203828BF04331D680EFA00F028431860E2
:1008400004360131E9E7A06946464D46574640F473
:100850000010A061A06900F4001001900198DCF87C
:10086000083024208CF84100306820F0010030600E
:10087000BD4840682168BEA4C1F30221615C20FA32
:1008800001F4BD48791C84424FF0000038BF0120BC
:10089000A54288BF01228B4238BF0246002A40F0A1
:1008A0009780B6488B42B4FBF0F2706820F03F00AE
:1008B00040EA02007060306A20F03F0512D2501CFE
:1008C000611E4CF6FF72284330625800B1FBF0F015
:1008D000411C6FF31F31042998BF0421F06920EAFD
:1008E00002024AE04FF496704FF47A71013C504393
:1008F000B0FBF1F04CF6FF71013028433062F06933
:1009000020EA0102DCF80C1041B119205843B4FB75
:10091000F0F0451C042060F31F3506E003EB4300B4
:10092000B4FBF0F0451C6FF31F35280509D0D9B191
:1009300019205843B4FBF0F0411C042060F31F3130
:1009400019E0012119E000BF002002400CED00E099
:100950000003FA0504100240040001406000424216
:1009600000093D0000127A0003EB4300B4FBF0F0F5
:10097000411C6FF31F3141F4004141EA02000CF1C8
:100980001004F061DCF82000316821F0C001084358
:10099000DCF82410084348F2FF313060B068884327
:1009A0001ECC104308432021B060F06820F0FF0007
:1009B00018432043F060306840F0010030600020B0
:1009C000CCF844008CF84110CCF834008CF842008C
:1009D0006B4900201C220024FFF7DAFB6E4DE0B2C9
:1009E000082812D2A4F15000C0B2A8470020002667
:1009F000A8471020A84770B2002804D40020FFF7B1
:100A0000ABFD0136F7E70134E9E700245DA50026D8
:100A1000092C07D02A5DF0B20021FFF741FD013417
:100A20000836F5E7002440F2E4784FF00A09002781
:100A300000250026042C2ED0C5F10300012102065A
:100A400004D001EB810101384900F8E7B8FBF1F06F
:100A5000B0FBF9F101EB8101A0EB41011EB9022CC1
:100A600001D859B1012641F03001F8B2CAB20221D1
:100A7000FFF716FD083701350134DBE7F8B2022134
:100A80002022FFF70DFD07F108000221C0B2FFF799
:100A9000F5FC0026EFE73E4C00200421082200254B
:100AA000A047102004210922A047202004210A2267
:100AB000A047402004210722A047502004210722FC
:100AC000A047482006210722A04760200421FFF705
:100AD000D5FC304C202D04D0605DFFF73DFD013585
:100AE000F8E760200521FFF7C9FC0025202D06D07E
:100AF000601990F82000FFF72FFD0135F6E7602020
:100B00000621FFF7BBFC0025202D06D0601990F8C8
:100B10004000FFF721FD0135F6E760200721FFF7D0
:100B2000ADFC0025202D06D0601990F86000FFF77D
:100B300013FD0135F6E7FEE7A086010000540040F2
:100B40000800002002030405060708090A0B0C0D23
:100B50000E0F101001020000000000000000000055
:100B6000010203040607080900000020000C0140F0
:100B7000000000000102030480841E0040420F00B8
:100B80007A1300084D656E20597568616E0000008B
:100B9000ED040008FA1200084505000802E008C844
:100BA000121F08C1002AFAD170477047002001E0E7
:100BB00001C1121F002AFBD1704700000000000095
:100BC00000000000000000000000000000F800002D
:100BD0000000000000333000000000100C06100C74
:100BE0000600000000000000000040C07840C0780F
:100BF0004000043F04043F040400007088FC0830F7
:100C00000000001820FF211E0000F008F000E0188E
:100C1000000000211C031E211E0000F00888700047
:100C200000001E2123241927211010160E00000099
:100C300000000000000000000000000000E01804B8
:100C40000200000000071820400000020418E00025
:100C500000000040201807000000404080F0804065
:100C600040000202010F01020200000000F000003B
:100C700000000101011F010101000000000000004F
:100C8000000080B0700000000000000000000000C4
:100C9000000000010101010101010000000000004D
:100CA0000000003030000000000000000000806004
:100CB0001804006018060100000000E01008081089
:100CC000E000000F102020100F00001010F80000AE
:100CD00000000020203F2020000000700808088845
:100CE0007000003028242221300000300888884815
:100CF00030000018202020110E000000C02010F845
:100D0000000000070424243F240000F80888880815
:100D100008000019212020110E0000E0108888181A
:100D20000000000F112020110E0000380808C838FC
:100D300008000000003F00000000007088080888DC
:100D40007000001C222121221C0000E01008081065
:100D5000E0000000312222110F00000000C0C0009E
:100D600000000000003030000000000000800000A3
:100D700000000000806000000000000080402010A3
:100D8000080000010204081020004040404040409C
:100D900040000404040404040400000810204080FF
:100DA0000000002010080402010000704808080834
:100DB000F0000000003036010000C030C828E81004
:100DC000E0000718272423140B000000C038E000BF
:100DD0000000203C23020227382008F88888887009
:100DE0000000203F202020110E00C0300808080815
:100DF0003800071820202010080008F808080810FC
:100E0000E000203F202020100F0008F88888E80824
:100E10001000203F20202320180008F88888E808C8
:100E20001000203F200003000000C03008080838F0
:100E3000000007182020221E020008F80800000801
:100E4000F808203F210101213F20000808F8080888
:100E500000000020203F2020000000000808F808C3
:100E60000800C08080807F00000008F888C0281833
:100E70000800203F20012638200008F80800000064
:100E80000000203F20202020300008F8F800F8F86B
:100E90000800203F003F003F200008F830C0000855
:100EA000F808203F200007183F00E010080808104D
:100EB000E0000F10202020100F0008F80808080894
:100EC000F000203F210101010000E0100808081097
:100ED000E0000F18242438504F0008F888888888CC
:100EE0007000203F2000030C3020007088080808A4
:100EF00038000038202121221C00180808F80808B2
:100F000018000000203F2000000008F8080000083A
:100F1000F808001F202020201F000878880000C843
:100F20003808000007380E010000F80800F8000833
:100F3000F800033C0700073C03000818688080683D
:100F4000180820302C03032C30200838C800C8387B
:100F500008000000203F2000000010080808C838E2
:100F600008002038262120201800000000FE020280
:100F700002000000007F40404000000C30C0000034
:100F80000000000000010638C00000020202FE005E
:100F90000000004040407F00000000000402020208
:100FA000040000000000000000000000000000003D
:100FB0000000808080808080808000020204000029
:100FC0000000000000000000000000008080808021
:100FD00000000019242222223F2008F8008080000F
:100FE0000000003F112020110E00000000808080D2
:100FF0000000000E112020201100000000808088D9
:10100000F800000E112020103F200000808080801A
:101010000000001F222222221300008080F0888816
:1010200088180020203F2020000000008080808061
:101030008000006B94949493600008F80080808096
:101040000000203F210000203F20008098980000F1
:1010500000000020203F2020000000000080989821
:10106000000000C08080807F000008F800008080C1
:101070008000203F24022D302000000808F80000E6
:1010800000000020203F20200000808080808080A1
:101090008000203F20003F20003F80800080808033
:1010A0000000203F210000203F2000008080808041
:1010B0000000001F202020201F0080800080800072
:1010C000000080FFA12020110E0000000080808021
:1010D0008000000E112020A0FF8080808000808092
:1010E000800020203F2120000100000080808080BF
:1010F00080000033242424241900008080E08080B4
:1011000000000000001F2020000080800000008000
:101110008000001F202020103F2080808000008061
:10112000808000010E300806010080800080008071
:1011300080800F300C030C300F0000808000808016
:1011400080000020312E0E31200080808000008041
:10115000808080818E7018060100008080808080F1
:1011600080000021302C2221300000000000807C13
:10117000020200000000003F40400002027C8000AC
:1011800000000040403F0000000000000000FF00A1
:10119000000000000000FF000000000004146404D0
:1011A0000CB4020242330200000040412111090543
:1011B00003FF03050911214140001010D0FF9000EA
:1011C00010919690F09094931000040300FF00019A
:1011D00004040404FF0404040400008060F807040D
:1011E000E4A4A4BFA4A4E4040000010000FF404064
:1011F0007F4A4A4A4A4A7F4040000000F88888886F
:1012000088FF88888888F800000000001F08080808
:10121000087F888888889F80F0000000FE02828214
:101220008282FA8282828282020080601F40404075
:1012300040407F40404458404000008060F8070430
:10124000E4A4A4BFA4A4E4040000010000FF404003
:101250007F4A4A4A4A4A7F4040000000000000009E
:101260000000000000000000000000003636000012
:1012700000000000000000000000000000E0380C4A
:101280000701071C70C000000000C0F0DFC1C1C131
:10129000C1C1C1C1C1C3CEF8E0C000F8F907060062
:1012A00002020202020202FEFE0000FFFF00000036
:1012B000000000000040C0FF7F0020303CEFE7242A
:1012C00024040404FCFC040404000101017F7F31B8
:1012D000514141417F7F455D59401070628E8CF0D5
:1012E000F22262F2FA6E26F2F00004047E7F017FA1
:1012F0007F4E5B5F4F4346FFFF0000000000008011
:1013000080040C38F8F060000020202020202020ED
:10131000202020E0F0F0200000000000000000FF8E
:10132000FFFF0100000000000000000000000000BE
:10133000000000FFFFFF000000000000000000FFB1
:10134000FFFF00000000000000000000000000009F
:10135000000000FFFFFF0000000000000000007F11
:101360007F3F0000000000000000000000000808AF
:101370001810707F7F3F00000000AED580A83FD3DB
:1013800000402002B00010A1C8DA1281EFD9F1DBD1
:1013900030A4A68D14AF0000B81300080000002090
:1013A000080000009C0B0008C01300080800002083
:1013B00058040000AC0B0008100000000024F400EA
:0400000508000131BD
:00000001FF
