:020000040800F2
:100000005004002045010008D5030008D103000872
:10001000D30300088D010008190500080000000046
:10002000000000000000000000000000D9030008EC
:100030008F01000800000000D7030008DD0300085E
:100040005F0100085F0100085F0100085F01000810
:100050005F0100085F0100085F0100085F01000800
:100060005F0100085F0100085F0100085F010008F0
:100070005F0100085F0100085F0100085F010008E0
:100080005F0100085F0100085F0100085F010008D0
:100090005F0100085F0100085F0100085F010008C0
:1000A0005F0100085F0100085F0100085F010008B0
:1000B000350400085F0100085F0100085F010008C7
:1000C0005F0100085F0100085F0100085F01000890
:1000D0005F0100085F0100085F0100085F01000880
:1000E0005F0100085F0100085F0100085F01000870
:1000F0005F0100085F0100085F0100085F01000860
:100100005F0100085F0100085F0100085F0100084F
:100110005F0100085F0100085F0100085F0100083F
:100120005F0100085F0100085F0100085F0100082F
:10013000DFF80CD000F018F8004800471D05000853
:10014000500400200648804706480047FEE7FEE7C7
:10015000FEE7FEE7FEE7FEE7FEE7FEE7FEE7FEE777
:10016000E903000831010008064C074D06E0E0688D
:1001700040F0010394E8070098471034AC42F6D3EE
:10018000FFF7DAFF4009000860090008FEE7704742
:100190002DE9FC4F81465B4806235C4E4FF0000B77
:1001A0004FF001084FF00F0E4FF0000A81455648FE
:1001B00008BF052348444FEAB022052A4FF0000249
:1001C00038BF4FEAB02300930C6834FA02F508BF39
:1001D000BDE8FC8F08FA02F52C4200F08F804F68D2
:1001E000032F16D9112F26D0122F28D04A48874224
:1001F00013D04A48874210D0494887420DD0494819
:1002000087420AD04848874207D04848874204D0EE
:1002100022E0DFE807F002181B1F8C6844B1012CB4
:1002200014BFC9F81450C9F810504FF0080A13E071
:100230004FF0040A10E0CC6804F1040A0CE0CC682A
:1002400004F10C0A08E0D1F80CA005E0CC6804F138
:10025000080A01E04FF0000A5C464846082A334687
:1002600028BF203C28BF043006680EFA04F70AFABB
:1002700004F4BE4334430460C879C00601D41E466A
:100280003CE0244C22F003061E44206840F00100AC
:100290002060206800F0010001900BF00C00019F2D
:1002A0000EFA00F4224FBC46F75927EA0404009FD7
:1002B00007FA00F0204346F80C001E464F68F8038A
:1002C000186854BF20EA050440EA05041C60104B7E
:1002D000B803706854BF20EA050440EA050474605E
:1002E000F802B06854BF20EA050440EA0504B4608F
:1002F000B802186854BFA843284318600BF1040BD8
:10030000013261E7001C014000F8FEBF000401401B
:100310000C040140181002400000111000001210DF
:1003200000002110000022100000311000003210E7
:1003300008FCFFFFB0B50F4D04464FF47A716868B2
:10034000B0FBF1F0411E0020B0EB116F10D10A4A52
:10035000F0230F2C516009490B7090604FF007009B
:10036000106005D84FF0FF30214600F009F82C60EE
:10037000B0BD00BF0000002010E000E023ED00E071
:1003800010B500F00F03114C0F4AB0F1FF3FA3F17D
:100390000403234403F10C03C8BF831820684FF003
:1003A000FF34C0F30220C21E80F0070038BF0022D5
:1003B000042828BF042004FA00F021EA000090403D
:1003C0000001187010BD00BF00E400E00CED00E07B
:1003D000FEE7FEE770477047704700004C48016831
:1003E00001310160704700BF0E480F4A016841F0BB
:1003F00001010160416811400C4A416001681140EF
:100400000160016821F480210160416821F4FE014E
:1004100041604FF41F01816005484FF000610160A9
:10042000704700BF001002400000FFF8FFFFF6FE1B
:1004300008ED00E0364948680269920744BFC26887
:100440005FEA827237D40269520744BFC2685FEA2A
:10045000427238D40269120744BFC2685FEA02726E
:1004600039D40269D20644BFC2685FEAC2623AD494
:100470000169C9071CBFC1685FEAC1713BD101694D
:10048000090641BFC1685FEA01616FF08001016147
:100490000169490641BFC1685FEA41616FF04001EF
:1004A00001610169890641BFC1685FEA81616FF03E
:1004B0002001016170476FF002020261002281F8A1
:1004C00020208269BFE76FF004020261002281F8F8
:1004D00020208269BEE76FF008020261002281F8E5
:1004E0002020C269BDE76FF010020261002281F88E
:1004F0002020C169BCE76FF001012023016105499B
:100500000A6892064FF0080258BF04225350B6E71B
:10051000080000200C180140FEE7000084B0654C84
:100520004FF6FF02206840F010002060E2480168AA
:100530001140E24A114301600020FFF7FBFEE04E4C
:100540000222706940F001007061706900F00100E2
:1005500000900098B06940F08050B061B06900F040
:10056000805000900098D748016862F31A610160DA
:10057000306800F00C00042808D156F8040C3068EC
:1005800000F00C0008281AD130683BE0306800F019
:100590000C00082802D13068C003EED456F8040CD1
:1005A00040F4803046F8040CC748016856F8042C23
:1005B0009203E4D40268521A642AF7D922E0C349AC
:1005C00000200860C048026856F8043C9B0104D52E
:1005D00003689B1A022BF7D914E0326822F4003228
:1005E0003260326822F4741202F5E812326001229D
:1005F0000A60016856F8042C920103D40268521A6A
:10060000022AF7D9206810F0060F09D120680221CC
:1006100061F302002060206800F0070002285ED12C
:10062000306840F4E0603060306840F46050306022
:10063000306820F0F000306056F8040C80014ED590
:100640003068022141F2883261F3010030609E4837
:100650000168336803F00C03082B04D003685B1AAD
:100660009342F6D93BE0206800F00700032809D345
:100670002068022161F302002060206800F007007A
:1006800002282CD13068042161F30A2030603068E0
:1006900020F4605030608E48316801F00C02082A66
:1006A00012D1C1F383428BA3C9039A5C04D48E4850
:1006B000504309E0002002403168504389A2C1F351
:1006C0004041515CB0FBF1F0316888A2C1F30311E5
:1006D000515CC840894948600868FFF72BFE706983
:1006E000874C6D464FF002084FF000094FF0010AA9
:1006F0002027294640F040007061706900F04000FA
:1007000000900098706940F004007061706900F01A
:10071000040000900098706940F0080070617069F2
:1007200000F00800009000984FF40010C4F8100C7E
:10073000206104F54060CDF80C80CDF80890CDF82C
:1007400004A00097FFF724FD20462946CDE9029832
:10075000CDE9007AFFF71CFD5B4F802041F2873125
:1007600041F61F42674DF8614FF080403B1D83E822
:100770000502C7E9041997F8411099B987F8409024
:100780000021B06940F00100B061B06900F00100E3
:10079000009000981C20FFF7F3FD4FF08050C5F843
:1007A000F000786887F84180B0F1804F01680ED082
:1007B000554A90420BD0554A904208D0544A904234
:1007C00005D0544A904202D0534A904203D1FA686D
:1007D00021F070011143B0F1804F0ED04A4A90428F
:1007E0000BD04A4A904208D0494A904205D0494A23
:1007F000904202D0484A904203D17A6921F4407174
:100800001143FE6921F08001BA683B693143016000
:100810004049C3628262884202D03F49884201D186
:10082000B96901630121416187F8411097F84020BF
:10083000012A18D002224FF6777687F84120836884
:10084000B343836087F8411087F84120426883688A
:1008500022F07002426023F080028260002287F85A
:10086000402087F841104FF4001121612021C4F885
:10087000101CC26842F00102C260826802F00702E6
:10088000062A03D0026842F00102026023480022D7
:100890000123E668B6064FF0140658BF1026A15192
:1008A0006860AA602B602E6806F00116012EFAD04F
:1008B0002A60AA60EDE700BF0CED00E00003FA0536
:1008C0000410024004000140080000206000424281
:1008D00000127A0002030405060708090A0B0C0D32
:1008E0000E0F10100102000000093D000000000082
:1008F00000000000010203040607080900000020B0
:10090000000C014010E000E000040040000800403E
:10091000000C004000340140002C014020AA44009B
:1009200002E008C8121F08C1002AFAD170477047B8
:10093000002001E001C1121F002AFBD17047000016
:1009400060090008000000200800000020090008DD
:100950006809000808000020480400003009000869
:08096000100000000024F40067
:0400000508000131BD
:00000001FF
