:020000040800F2
:100000001004002045010008750400087104000870
:10001000730400088D010008D504000800000000EA
:10002000000000000000000000000000790400084B
:100030008F01000800000000770400087D0400081C
:100040005F0100085F0100085F0100085F01000810
:100050005F0100085F010008910100085F010008CE
:100060005F010008970100089D0100085F0100087A
:100070005F0100085F0100085F0100085F010008E0
:100080005F0100085F0100085F0100085F010008D0
:100090005F0100085F0100085F0100085F010008C0
:1000A0005F0100085F0100085F0100085F010008B0
:1000B0005F0100085F0100085F0100085F010008A0
:1000C0005F0100085F0100085F0100085F01000890
:1000D0005F0100085F0100085F0100085F01000880
:1000E0005F0100085F0100085F0100085F01000870
:1000F0005F0100085F0100085F0100085F01000860
:100100005F0100085F0100085F0100085F0100084F
:100110005F0100085F0100085F0100085F0100083F
:100120005F0100085F0100085F0100085F0100082F
:10013000DFF80CD000F018F800480047D904000898
:10014000100400200648804706480047FEE7FEE707
:10015000FEE7FEE7FEE7FEE7FEE7FEE7FEE7FEE777
:100160008904000831010008064C074D06E0E068EC
:1001700040F0010394E8070098471034AC42F6D3EE
:10018000FFF7DAFFF807000818080008FEE77047D5
:10019000012000F007B8082000F004B8102000F09B
:1001A00001B8000020490A6802422ED09B4A1F4B2A
:1001B000086053600023936001231360136803F009
:1001C0000113012BFAD000230128136093600FD094
:1001D00008281BD0102818D116480068C00614D46F
:1001E000D1F8F8071249400960F3820120200BE0A2
:1001F000D1F8F403C00708D0D1F8F8070C49000A79
:1002000060F382014FF4807008607047094801680C
:100210000907FAD44168202289064FF00C0158BF23
:1002200008214250704700BF1404014020BF020063
:10023000100C0140081801402DE9FC4F81465B4835
:1002400006235C4E4FF0000B4FF001084FF00F0EED
:100250004FF0000A8145564808BF052348444FEA3D
:10026000B022052A4FF0000238BF4FEAB0230093B6
:100270000C6834FA02F508BFBDE8FC8F08FA02F5F5
:100280002C4200F08F804F68032F16D9112F26D0F3
:10029000122F28D04A48874213D04A48874210D0AC
:1002A000494887420DD0494887420AD0484887428A
:1002B00007D04848874204D022E0DFE807F0021860
:1002C0001B1F8C6844B1012C14BFC9F81450C9F825
:1002D00010504FF0080A13E04FF0040A10E0CC6809
:1002E00004F1040A0CE0CC6804F10C0A08E0D1F82F
:1002F0000CA005E0CC6804F1080A01E04FF0000A08
:100300005C464846082A334628BF203C28BF0430B4
:1003100006680EFA04F70AFA04F4BE433443046094
:10032000C879C00601D41E463CE0244C22F00306E6
:100330001E44206840F001002060206800F00100A9
:1003400001900BF00C00019F0EFA00F4224FBC4606
:10035000F75927EA0404009F07FA00F0204346F803
:100360000C001E464F68F803186854BF20EA0504C5
:1003700040EA05041C60104BB803706854BF20EAC3
:10038000050440EA05047460F802B06854BF20EA2E
:10039000050440EA0504B460B802186854BFA843D5
:1003A000284318600BF1040B013261E7001C014087
:1003B00000F8FEBF000401400C0401401810024088
:1003C0000000111000001210000021100000221087
:1003D000000031100000321008FCFFFFB0B5F74DEF
:1003E00004464FF47A716868B0FBF1F0411E0020BA
:1003F000B0EB116F10D1094AF0230F2C516008495E
:100400000B7090604FF00700106005D84FF0FF3080
:10041000214600F007F82C60B0BD00BF10E000E0FE
:1004200023ED00E010B500F00F03D34C0F4AB0F1FC
:10043000FF3FA3F10403234403F10C03C8BF831857
:1004400020684FF0FF34C0F30220C21E80F0070086
:1004500038BF0022042828BF042004FA00F021EA53
:10046000000090400001187010BD00BF00E400E0E3
:10047000FEE7FEE77047704770470000C24801681A
:1004800001310160704700BF0E480F4A016841F01A
:1004900001010160416811400C4A4160016811404E
:1004A0000160016821F480210160416821F4FE01AE
:1004B00041604FF41F01816005484FF00061016009
:1004C000704700BF001002400000FFF8FFFFF6FE7B
:1004D00008ED00E0FEE7000086B0A64D4FF6FF02F3
:1004E000286840F010002860A34801681140A34A22
:1004F000114301600020FFF771FFA14C02226069E7
:1005000040F001006061606900F001000290029813
:10051000A06940F08050A061A06900F08050029076
:1005200002989848016862F31A610160206800F03F
:100530000C00042808D154F8040C206800F00C00CA
:1005400008281AD120683BE0206800F00C00082839
:1005500002D12068C003EED454F8040C40F480307B
:1005600044F8040C8848016854F8042C9203E4D43D
:100570000268521A642AF7D922E0844900200860F0
:100580008148026854F8043C9B0104D503689B1A17
:10059000022BF7D914E0226822F40032226022688C
:1005A00022F4741202F5E812226001220A60016846
:1005B00054F8042C920103D40268521A022AF7D983
:1005C000286810F0060F09D12868022161F30200A3
:1005D0002860286800F0070002285CD1206840F4F9
:1005E000E0602060206840F460502060206820F0C7
:1005F000F000206054F8040C80014CD520680221E2
:1006000041F2883261F3010020605F48016823688D
:1006100003F00C03082B04D003685B1A9342F6D94D
:1006200039E0286800F00700032809D32868022170
:1006300061F302002860286800F0070002282AD130
:100640002068042161F30A202060206820F46050B3
:1006500020604F48216801F00C02082A10D1C1F334
:1006600083424CA3C9039A5C02D44F48504307E02D
:10067000216850434BA2C1F34041515CB0FBF1F003
:1006800021684AA2C1F30311515CC8404B4948603C
:100690000868FFF7A3FE4FF0000A4FF400114A4A22
:1006A00002AD4FF0010BCDF814A06069914640F007
:1006B00040006061606900F040000190019860694D
:1006C00040F004006061606900F00400019001984E
:1006D000606940F00800606160693C4C00F008000F
:1006E000019001983648016036494FF090700861DA
:1006F00002F5801001F5406688462946CDF810B015
:100700000390182002903046A04702272020294657
:100710000597CDE903BA02903046A047A8F580605E
:1007200029460497CDE902B9A0474FF49070059788
:10073000CDE903BA294602904046A047244D062041
:100740000021A847234C4020002120600920A84711
:100750004FF40070002120600A20A8474FF4806009
:10076000202120604FF40010C8F8100014480160E8
:10077000FEE700BF002002400CED00E00003FA0598
:1007800004100240040001400800002060004242C2
:1007900000127A0002030405060708090A0B0C0D73
:1007A0000E0F10100102000000093D0000000000C3
:1007B00000000000010203040607080900000020F1
:1007C00010180140000C014000001110390200080F
:1007D0002504000800E100E002E008C8121F08C17B
:1007E000002AFAD170477047002001E001C1121FB2
:1007F000002AFBD170470000180800080000002004
:1008000008000000D80700082008000808000020A1
:1008100008040000E8070008100000000024F400AD
:0400000508000131BD
:00000001FF
