:020000040800F2
:10000000100400204501000819020008150200082C
:10001000170200088D0100087902000800000000A6
:100020000000000000000000000000001D020008A9
:100030008F010008000000001B02000821020008D8
:100040005F0100085F0100085F0100085F01000810
:100050005F0100085F0100085F0100085F01000800
:100060005F0100085F0100085F0100085F010008F0
:100070005F0100085F0100085F0100085F010008E0
:100080005F0100085F0100085F0100085F010008D0
:100090005F0100085F0100085F0100085F010008C0
:1000A0005F0100085F0100085F0100085F010008B0
:1000B0005F0100085F0100085F0100085F010008A0
:1000C0005F0100085F0100085F0100085F01000890
:1000D0005F0100085F0100085F0100085F01000880
:1000E0005F0100085F0100085F0100085F01000870
:1000F0005F0100085F0100085F0100085F01000860
:100100005F0100085F0100085F0100085F0100084F
:100110005F0100085F0100085F0100085F0100083F
:100120005F0100085F0100085F0100085F0100082F
:10013000DFF80CD000F018F8004800477D020008F6
:10014000100400200648804706480047FEE7FEE707
:10015000FEE7FEE7FEE7FEE7FEE7FEE7FEE7FEE777
:100160002D02000831010008064C074D06E0E0684A
:1001700040F0010394E8070098471034AC42F6D3EE
:10018000FFF7DAFF3805000858050008FEE770475A
:100190001F48074941600021816001210160016819
:1001A00001F001110129FAD000210160816070473E
:1001B000E0322900B0B5D6494FF47A734A68B2FBF1
:1001C000F3F20023013AB3EB126F1FD1104CF0256C
:1001D0000F286260BD4AD575A3604FF00703236006
:1001E00014D813684FF0FF35C3F30223DC1E83F0ED
:1001F000070338BF0024042B28BF042305FA03F3A8
:1002000020EA0303A3401B01D3750860B0BD00BF03
:1002100010E000E0FEE7FEE770477047704700001F
:10022000AE48016801310160704700BF0E480F4AB7
:10023000016841F001010160416811400C4A4160D0
:10024000016811400160016821F48021016041686A
:1002500021F4FE0141604FF41F01816005484FF019
:1002600000610160704700BF001002400000FFF80D
:10027000FFFFF6FE08ED00E0FEE7000082B0924DC1
:100280004FF6FF02286840F0100028608F48016890
:1002900011408F4A114301600020FFF78BFF8D4C06
:1002A0000222606940F001006061606900F00100B5
:1002B00001900198A06940F08050A061A06900F011
:1002C0008050019001988448016862F31A610160CE
:1002D000206800F00C00042808D154F8040C2068B1
:1002E00000F00C0008281AD120683BE0206800F0DC
:1002F0000C00082802D12068C003EED454F8040C86
:1003000040F4803044F8040C7448016854F8042C1C
:100310009203E4D40268521A642AF7D922E07049A1
:10032000002008606D48026854F8043C9B0104D525
:1003300003689B1A022BF7D914E0226822F40032DA
:100340002260226822F4741202F5E812226001226F
:100350000A60016854F8042C920103D40268521A0E
:10036000022AF7D9286810F0060F09D1286802215F
:1003700061F302002860286800F0070002285CD1C1
:10038000206840F4E0602060206840F46050206005
:10039000206820F0F000206054F8040C80014CD557
:1003A0002068022141F2883261F3010020604B484D
:1003B0000168236803F00C03082B04D003685B1A60
:1003C0009342F6D939E0286800F00700032809D3E2
:1003D0002868022161F302002860286800F0070005
:1003E00002282AD12068042161F30A2020602068B5
:1003F00020F4605020603B48216801F00C02082A7C
:1004000010D1C1F3834238A3C9039A5C02D43B489C
:10041000504307E02168504337A2C1F34041515C8B
:10042000B0FBF1F0216836A2C1F30311515CC84062
:10043000374948600868FFF7BDFE606901214FF049
:100440000F0C4FF0020E002540F00400606160695F
:1004500000F0040001900198606940F008006061BC
:1004600060692C4C00F00800019001984FF09070EA
:1004700020610020092D16D001FA05F616F4907FB0
:100480000ED006462246082D28BF203E28BF043243
:1004900013680CFA06F70EFA06F6BB4333431360F3
:1004A00004300135E6E74FF400184FF4807620273A
:1004B0004FF08075C4F810802661FFF769FE276150
:1004C0002561FFF765FEF5E7002002400CED00E036
:1004D0000003FA0504100240040001400800002057
:1004E0006000424200127A00020304050607080970
:1004F0000A0B0C0D0E0F10100102000000093D0048
:1005000000000000000000000102030406070809C3
:1005100000000020000C014002E008C8121F08C1C2
:10052000002AFAD170477047002001E001C1121F74
:10053000002AFBD170470000580500080000002089
:1005400008000000180500086005000808000020E9
:100550000804000028050008100000000024F40032
:0400000508000131BD
:00000001FF
