:020000040800F2
:100000005804002045010008D1030008CD03000872
:10001000CF0300088D0100089D05000800000000C6
:10002000000000000000000000000000D5030008F0
:100030008F01000800000000D3030008D903000866
:100040005F0100085F0100085F0100085F01000810
:100050005F0100085F0100085F0100085F01000800
:100060005F0100085F0100085F0100085F010008F0
:100070005F0100085F0100085F0100085F010008E0
:100080005F0100085F0100085F0100085F010008D0
:100090005F0100085F0100085F0100085F010008C0
:1000A0005F0100085F0100085F0100085F010008B0
:1000B0005F010008310400085F0100085F010008CB
:1000C0005F0100085F0100085F0100085F01000890
:1000D0005F0100085F0100085F0100085F01000880
:1000E0005F0100085F0100085F0100085F01000870
:1000F0005F0100085F0100085F0100085F01000860
:100100005F0100085F0100085F0100085F0100084F
:100110005F0100085F0100085F0100085F0100083F
:100120005F0100085F0100085F0100085F0100082F
:10013000DFF80CD000F018F800480047A1050008CF
:10014000580400200648804706480047FEE7FEE7BF
:10015000FEE7FEE7FEE7FEE7FEE7FEE7FEE7FEE777
:10016000E503000831010008064C074D06E0E06891
:1001700040F0010394E8070098471034AC42F6D3EE
:10018000FFF7DAFF640A0008840A0008FEE77047F8
:100190002DE9FC4F81465B4806235C4E4FF0000B77
:1001A0004FF001084FF00F0E4FF0000A81455648FE
:1001B00008BF052348444FEAB022052A4FF0000249
:1001C00038BF4FEAB02300930C6834FA02F508BF39
:1001D000BDE8FC8F08FA02F52C4200F08F804F68D2
:1001E000032F16D9112F26D0122F28D04A48874224
:1001F00013D04A48874210D0494887420DD0494819
:1002000087420AD04848874207D04848874204D0EE
:1002100022E0DFE807F002181B1F8C6844B1012CB4
:1002200014BFC9F81450C9F810504FF0080A13E071
:100230004FF0040A10E0CC6804F1040A0CE0CC682A
:1002400004F10C0A08E0D1F80CA005E0CC6804F138
:10025000080A01E04FF0000A5C464846082A334687
:1002600028BF203C28BF043006680EFA04F70AFABB
:1002700004F4BE4334430460C879C00601D41E466A
:100280003CE0244C22F003061E44206840F00100AC
:100290002060206800F0010001900BF00C00019F2D
:1002A0000EFA00F4224FBC46F75927EA0404009FD7
:1002B00007FA00F0204346F80C001E464F68F8038A
:1002C000186854BF20EA050440EA05041C60104B7E
:1002D000B803706854BF20EA050440EA050474605E
:1002E000F802B06854BF20EA050440EA0504B4608F
:1002F000B802186854BFA843284318600BF1040BD8
:10030000013261E7001C014000F8FEBF000401401B
:100310000C040140181002400000111000001210DF
:1003200000002110000022100000311000003210E7
:1003300008FCFFFFB0B50F4D04464FF47A716868B2
:10034000B0FBF1F0411E0020B0EB116F10D10A4A52
:10035000F0230F2C516009490B7090604FF007009B
:10036000106005D84FF0FF30214600F009F82C60EE
:10037000B0BD00BF0000002010E000E023ED00E071
:1003800010B500F00F03EE4C0F4AB0F1FF3FA3F1A0
:100390000403234403F10C03C8BF831820684FF003
:1003A000FF34C0F30220C21E80F0070038BF0022D5
:1003B000042828BF042004FA00F021EA000090403D
:1003C0000001187010BD00BF00E400E0FEE7FEE78A
:1003D00070477047704700006F4881680131816045
:1003E000704700BF0E480F4A016841F001010160EB
:1003F000416811400C4A4160016811400160016888
:1004000021F480210160416821F4FE0141604FF434
:100410001F01816005484FF000610160704700BF17
:10042000001002400000FFF8FFFFF6FE08ED00E0BC
:100430005949C8680269920744BFC2685FEA82727C
:1004400039D40269520744BFC2685FEA42723AD4A3
:100450000269120744BFC2685FEA02723BD40269B4
:10046000D20644BFC2685FEAC2623CD40169C907D0
:100470001FBFC1685FEAC1716FF0010101610169CD
:10048000090641BFC1685FEA01616FF08001016147
:100490000169490641BFC1685FEA41616FF04001EF
:1004A00001610169890641BFC1685FEA81616FF03E
:1004B0002001016170476FF002020261002281F8A1
:1004C00028208269BDE76FF004020261002281F8F2
:1004D00028208269BCE76FF008020261002281F8DF
:1004E0002820C269BBE76FF010020261002281F888
:1004F0002820C169BAE700BFB0B50168B0F1804FEC
:100500000ED0204A90420BD01F4A904208D01F4A7A
:10051000904205D01E4A904202D01E4A904204D119
:100520001D4A21F0700152691143B0F1804F0ED085
:10053000144A90420BD0144A904208D0134A904279
:1005400005D0134A904202D0124A904204D1124A76
:1005500021F44071D26911430F4A21F08001556A9C
:1005600013699469294301600949C462836288421E
:1005700002D00849884201D1116A01630121416119
:10058000B0BD00BF0004004000080040000C004067
:1005900000340140002C014008000020FEE700006C
:1005A00086B0664C4FF6FF02206840F010002060D5
:1005B000634801681140634A114301600020FFF75E
:1005C000B9FE614F614A0221786940F0010078610B
:1005D000786900F0010002900298B86940F08050FC
:1005E000B861B86900F0805002900298106861F319
:1005F0001A601060386800F00C00042808D157F821
:10060000040C386800F00C0008281BD138683CE066
:10061000386800F00C00082802D13868C003EED416
:1006200057F8040C40F4803047F8040CDFF8C4039A
:10063000816857F8042C9203E3D48268521A642A22
:10064000F7D922E0E94900200860EA48826857F8B3
:10065000043C9B0104D583689B1A022BF7D914E054
:100660003A6822F400323A603A6822F4741202F5D1
:10067000E8123A6001220A60816857F8042C92015E
:1006800003D48268521A022AF7D9206810F0060FA4
:1006900009D12068022161F302002060206800F087
:1006A0000700022867D1386840F4E0603860386895
:1006B00040F460503860386820F0F000386057F837
:1006C000040C800157D53868022141F2883261F369
:1006D00001003860C74881683B6803F00C03082BB1
:1006E00004D083685B1A9342F6D944E0206800F096
:1006F0000700032809D32068022161F3020020606B
:10070000206800F00700022835D13868042161F321
:100710000A203860386820F460503860B64839687C
:1007200001F00C02082A1BD1C1F38342B3A3C90311
:100730009A5C0DD4B648504312E000BF002002403E
:100740000CED00E00003FA05041002400400014033
:1007500039685043ADA2C1F34041515CB0FBF1F0A8
:100760003968ACA2C1F30311515CC840AD4948607F
:100770000868FFF7DFFD7869AB49022500264FF0D6
:10078000010840F040008B467861786900F0400035
:1007900002900298786940F004007861786900F06E
:1007A000040002900298786940F008007861786946
:1007B00000F00800029002984FF40010C1F8100CED
:1007C000202005950496CDF80C80029001F540603C
:1007D00002A9FFF7DDFCDFF81C928020934A472135
:1007E000934CC9F8240040F2E730C9E9032192464E
:1007F000C9E90560C9F81C6099F84900002810464D
:1008000014D189F848600021B86940F00200B8614D
:10081000B86900F00200029002981D20FFF7B0FDB9
:100820004FF00050C4F8F000D9F80C0089F8495096
:10083000FFF762FE89F8498099F84800012810D036
:1008400002204FF677724FF0000889F84900D9F876
:100850000C00816891438160012089F8488089F803
:10086000490099F8490018B94FF0000889F8488004
:10087000022689F84960D9F80C502846FFF73CFE5B
:100880000120B8F1000F89F849003FD189F849608B
:10089000684B6968AA689D4221F07001696022F086
:1008A0008001A96089F8490089F84960296A21F026
:1008B0001001296289F84800286A6968AA6922F447
:1008C000E64240F0200002F5C04202D05A4EB54246
:1008D00001D120F0C0009D4202D0574B9D4201D172
:1008E00021F4406169600021AA61A9632862A869B6
:1008F00040F40060A861A86920F48060A861A8693C
:10090000A861012089F8481089F849000020554560
:100910005E46CDE90400CDE902001CD1786902A948
:1009200040F008007861786900F00800019002202A
:10093000059003902020029001983046FFF728FC94
:100940002B483E498246006808403D490843CAF8A2
:100950000000D9F80C504FF4001030612020C6F888
:10096000100C286A20F010002862286A40F010005D
:1009700028623048854202D02F48854203D1686CF6
:1009800040F400406864A86800F00700062803D01F
:10099000286840F00100286099F8007042F2283081
:1009A0000021012240F2F31CD9F804602EB1664503
:1009B00006D14FF0FF33012708E00123002705E0AF
:1009C000FB074FF0010318BF4FF0FF333344AB6315
:1009D000C9F804306060A1602260236803F001134D
:1009E000012BFAD02160A160DEE700BF6000424227
:1009F000040001400800002000127A0002030405F0
:100A0000060708090A0B0C0D0E0F1010010200005A
:100A100000093D0000000000000000000102030486
:100A20000607080900000020000C014000040040F7
:100A300010E000E000340140002C0140FFF3FFF81B
:100A40000008000702E008C8121F08C1002AFAD1F6
:100A500070477047002001E001C1121F002AFBD13E
:100A600070470000880A000800000020080000000D
:100A7000440A0008900A0008080000205004000002
:100A8000540A000800000000100000000024F400D8
:0400000508000131BD
:00000001FF
