:020000040800F2
:100000005004002045010008F9030008F50300082A
:10001000F70300088D010008C50500080000000076
:10002000000000000000000000000000FD030008C8
:100030008F01000800000000FB0300080104000815
:100040005F0100085F0100085F0100085F01000810
:100050005F0100085F0100085F0100085F01000800
:100060005F0100085F0100085F0100085F010008F0
:100070005F0100085F0100085F0100085F010008E0
:100080005F0100085F0100085F0100085F010008D0
:100090005F0100085F0100085F0100085F010008C0
:1000A0005F0100085F0100085F0100085F010008B0
:1000B0005F010008590400085F0100085F010008A3
:1000C0005F0100085F0100085F0100085F01000890
:1000D0005F0100085F0100085F0100085F01000880
:1000E0005F0100085F0100085F0100085F01000870
:1000F0005F0100085F0100085F0100085F01000860
:100100005F0100085F0100085F0100085F0100084F
:100110005F0100085F0100085F0100085F0100083F
:100120005F0100085F0100085F0100085F0100082F
:10013000DFF80CD000F018F800480047C9050008A7
:10014000500400200648804706480047FEE7FEE7C7
:10015000FEE7FEE7FEE7FEE7FEE7FEE7FEE7FEE777
:100160000D04000831010008064C074D06E0E06868
:1001700040F0010394E8070098471034AC42F6D3EE
:10018000FFF7DAFF5C0A00087C0A0008FEE7704708
:1001900042F22831414381484160002181600121C0
:1001A0000160016801F001110129FAD0002101600C
:1001B000816070472DE9FC4F81465B4806235C4E09
:1001C0004FF0000B4FF001084FF00F0E4FF0000AF8
:1001D0008145564808BF052348444FEAB022052A06
:1001E0004FF0000238BF4FEAB02300930C6834FA96
:1001F00002F508BFBDE8FC8F08FA02F52C4200F0BA
:100200008F804F68032F16D9112F26D0122F28D098
:100210004A48874213D04A48874210D0494887420B
:100220000DD0494887420AD04848874207D04848FD
:10023000874204D022E0DFE807F002181B1F8C6819
:1002400044B1012C14BFC9F81450C9F810504FF034
:10025000080A13E04FF0040A10E0CC6804F1040A25
:100260000CE0CC6804F10C0A08E0D1F80CA005E021
:10027000CC6804F1080A01E04FF0000A5C464846E9
:10028000082A334628BF203C28BF043006680EFAEF
:1002900004F70AFA04F4BE4334430460C879C00684
:1002A00001D41E463CE0244C22F003061E44206884
:1002B00040F001002060206800F0010001900BF088
:1002C0000C00019F0EFA00F4224FBC46F75927EAB2
:1002D0000404009F07FA00F0204346F80C001E4675
:1002E0004F68F803186854BF20EA050440EA050483
:1002F0001C60104BB803706854BF20EA050440EA44
:1003000005047460F802B06854BF20EA050440EAAE
:100310000504B460B802186854BFA84328431860A5
:100320000BF1040B013261E7001C014000F8FEBF35
:10033000000401400C04014018100240000011109C
:1003400000001210000021100000221000003110E7
:100350000000321008FCFFFFB0B50F4D04464FF40B
:100360007A716868B0FBF1F0411E0020B0EB116FAC
:1003700010D10A4AF0230F2C516009490B7090608C
:100380004FF00700106005D84FF0FF30214600F015
:1003900009F82C60B0BD00BF0000002010E000E0B4
:1003A00023ED00E010B500F00F03114C0F4AB0F13F
:1003B000FF3FA3F10403234403F10C03C8BF8318D8
:1003C00020684FF0FF34C0F30220C21E80F0070007
:1003D00038BF0022042828BF042004FA00F021EAD4
:1003E000000090400001187010BD00BF00E400E064
:1003F0000CED00E0FEE7FEE7704770477047000035
:100400006F48416801314160704700BF0E480F4A94
:10041000016841F001010160416811400C4A4160EE
:10042000016811400160016821F480210160416888
:1004300021F4FE0141604FF41F01816005484FF037
:1004400000610160704700BF001002400000FFF82B
:10045000FFFFF6FE08ED00E059498868026992073F
:1004600044BFC2685FEA827239D40269520744BF4E
:10047000C2685FEA42723AD40269120744BFC26896
:100480005FEA02723BD40269D20644BFC2685FEAE7
:10049000C2623CD40169C9071FBFC1685FEAC1716C
:1004A0006FF0010101610169090641BFC1685FEA9E
:1004B00001616FF0800101610169490641BFC168B6
:1004C0005FEA41616FF0400101610169890641BF46
:1004D000C1685FEA81616FF02001016170476FF0D0
:1004E00002020261002281F824208269BDE76FF0D8
:1004F00004020261002281F824208269BCE76FF0C7
:1005000008020261002281F82420C269BBE76FF073
:1005100010020261002281F82420C169BAE700BFFD
:10052000B0B50168B0F1804F0ED0204A90420BD098
:100530001F4A904208D01F4A904205D01E4A90425E
:1005400002D01E4A904204D11D4A21F07001126966
:100550001143B0F1804F0ED0144A90420BD0144A90
:10056000904208D0134A904205D0134A904202D0DC
:10057000124A904204D1124A21F440719269114307
:100580000F4A21F08001156AD3685469294301603C
:100590000949C4628362884202D00849884201D175
:1005A000D169016301214161B0BD00BF0004004079
:1005B00000080040000C004000340140002C0140C5
:1005C00008000020FEE7000086B0B24C4FF6FF02A4
:1005D000206840F010002060AF4801681140AF4A29
:1005E000114301600020FFF7B7FEAD4EAD4A022176
:1005F0007069914640F001007061706900F001007F
:1006000002900298B06940F08050B061B06900F08B
:10061000805002900298106861F31A601060306890
:1006200000F00C00042808D156F8040C306800F0E3
:100630000C0008281AD130683BE0306800F00C004C
:10064000082802D13068C003EED456F8040C40F4F8
:10065000803046F8040CE448416856F8042C9203B4
:10066000E4D44268521A642AF7D922E0DF49002014
:100670000860DD48426856F8043C9B0104D5436895
:100680009B1A022BF7D914E0326822F40032326050
:10069000326822F4741202F5E812326001220A6014
:1006A000416856F8042C920103D44268521A022A77
:1006B000F7D9206810F0060F09D12068022161F3F4
:1006C00002002060206800F0070002285CD130683A
:1006D00040F4E0603060306840F460503060306872
:1006E00020F0F000306056F8040C80014CD53068E2
:1006F000022141F2883261F301003060BA4841685A
:10070000336803F00C03082B04D043685B1A934250
:10071000F6D939E0206800F00700032809D32068E3
:10072000022161F302002060206800F00700022827
:100730002AD13068042161F30A203060306820F447
:1007400060503060AA48316801F00C02082A10D1CC
:10075000C1F38342A7A3C9039A5C02D4AA485043B9
:1007600007E031685043A7A2C1F34041515CB0FBA0
:10077000F1F03168A5A2C1F30311515CC840A7494B
:1007800048600868FFF7E8FD7069A5490224002564
:100790004FF0010840F040008A467061706900F037
:1007A000400002900298706940F004007061706926
:1007B00000F0040002900298706940F00800706137
:1007C000706900F00800029002984FF40010C1F820
:1007D000100C202005940495CDF80C80029001F5B2
:1007E000406002A9FFF7E6FC7F4F80208D4A472139
:1007F000386240F2F310C7E902219346C7E904507A
:10080000BD6197F845000028104613D187F8445081
:100810000021B06940F00200B061B06900F0020050
:10082000029002981D20FFF7BDFD7F484FF0005158
:100830000160B86887F84540FFF772FE87F8458089
:1008400097F8440001280ED002204FF6777287F8FF
:100850004500B868816891438160002087F84400B2
:10086000012087F8450097F8450010B9002087F867
:100870004400022487F84540B868FFF751FE012183
:1008800087F8451097F8440001280DD1B868544600
:100890004CE000BF002002400CED00E00003FA0530
:1008A000041002400400014087F84540B8684268DF
:1008B000836822F07002426023F08002826087F831
:1008C000451087F84540594C026AA04222F01002B8
:1008D000026287F84410016A4268836923F4E643A0
:1008E00041F0200103F5C04302D0514DA84201D18F
:1008F00021F0C0014E4DA84201D0A04201D122F406
:1009000040624260002283615446826301628169D1
:1009100041F400618161816921F4806181618169B3
:100920008161012187F8442087F84510002158454E
:10093000CDE90411CDE902111AD1706902A940F084
:1009400008007061706900F00800019002200590B5
:1009500003902020029001982046FFF72BFCD9F845
:1009600000003449084034490843C9F80000B86819
:100970004FF4001121612021C4F8101C016A21F0FC
:1009800010010162016A41F01001016228498842A8
:1009900002D02649884203D1416C41F400414164B0
:1009A000816801F00701062903D0016841F00101C7
:1009B00001603868B0F5FA7F0FD2B968013038604D
:1009C00088630120FFF7E4FBF3E7B968013838607A
:1009D00088630120FFF7DCFB38680028F5D1C820C8
:1009E000FFF7D6FBE5E700BF0800002060004242A9
:1009F00000127A0002030405060708090A0B0C0D11
:100A00000E0F10100102000000093D000000000060
:100A1000000000000102030406070809000000208E
:100A2000000C01400004004000E100E0002C014007
:100A300000340140FFF3FFF80008000702E008C897
:100A4000121F08C1002AFAD170477047002001E048
:100A500001C1121F002AFBD170470000800A000864
:100A600000000020080000003C0A0008880A000876
:100A700008000020480400004C0A000800000000A4
:080A8000100000000024F40046
:0400000508000131BD
:00000001FF
