:020000040800F2
:1000000010E60020C1020008C9020008AD64000823
:10001000CD020008CF020008D10200080000000055
:10002000000000000000000000000000D3020008F3
:10003000D5020008000000004B03000801F500088D
:10004000DB020008DB020008DB020008B1CB00087D
:10005000DB020008DB020008A9560008DB020008EA
:10006000E15600081957000851570008DB02000844
:10007000DB020008DB020008DB020008DB020008EC
:10008000DB020008DB020008DB020008DB020008DC
:100090003D0E0108DB020008DB020008D95700080A
:1000A000DB020008DB020008DB020008DB020008BC
:1000B00069F60008A9F6000855F70008DB020008F9
:1000C000DB020008DB020008DB020008DB0200089C
:1000D000DB020008190A0108DB020008850A010892
:1000E000DB020008DB020008B50C0108DB02000897
:1000F000DB020008DB020008DB020008DB0200086C
:10010000DB02000825D80008B9F80008DB02000867
:10011000DB020008DB0200083DF9000861F9000875
:10012000DB020008DB020008DB020008DB0200083B
:1001300000F002F800F0B0F80AA090E8000C824449
:100140008344AAF10107DA4501D100F0A5F8AFF226
:10015000090EBAE80F0013F0010F18BFFB1A43F0A5
:1001600001031847E4C7040004C804000A444FF020
:10017000000C10F8013B13F0070408BF10F8014B06
:100180001D1108BF10F8015B641E05D010F8016B4B
:10019000641E01F8016BF9D113F0080F1EBF10F8AF
:1001A000014BAD1C0C1B09D16D1E58BF01F801CBD2
:1001B000FAD505E014F8016B01F8016B6D1EF9D555
:1001C0009142D6D37047000000230024002500266A
:1001D000103A28BF78C1FBD8520728BF30C148BFAA
:1001E0000B6070476E2902F00F83702902F05B806C
:1001F000662930F0F285652930F0EF85672930F007
:10020000EC856129AFF3008003681B0A28BF41F029
:100210008001692901F0CC87642901F0C98775291B
:1002200001F0C6876F2902F01486782902F0278032
:10023000E92902F0AF85E42902F0AC85F52902F046
:10024000A985EF2902F01186F82902F026800368BB
:10025000DB0928BF41F08001632902F01E85732964
:1002600002F02385E32902F05787F32902F05C8727
:10027000002070471FB502F0AFFE040000200021EF
:100280002FF098FB401C6060002000212FF07CFBC9
:10029000E0601FBD10B510BD03F000F81146FFF778
:1002A000E9FF20F05DF803F079FA03B4FFF7F2FFFD
:1002B00003BC11F073FD000080F308887047000054
:1002C0000948804709480047FEE7FEE7FEE7FEE7EA
:1002D000FEE7FEE7FEE7FEE7FEE7FEE70448054926
:1002E000034A054B7047000031F500083101000852
:1002F00010DE002010E6002010DE0020EFF310805A
:1003000072B6704780F310887047204C204D2560EE
:100310004FF0000484F309881E4C4FF0010525704E
:100320001D4C4FF08055256062B6FEE730B41A4C84
:100330004FF08055256030BC704730B4164C4FF0FC
:100340008055256030BC704700BF72B6EFF309805E
:1003500028B1203880E8F00F10490968086000B51E
:100360000F4880475DF804EB0E480F490A78027089
:100370000A480E490A680260106890E8F00F2030C1
:1003800080F309884EF0040E62B6704720ED00E05D
:100390000000FFFFC703002004ED00E0E0030020A1
:1003A000D5BA0008C4030020C5030020E8030020DC
:1003B00010B5FF48006811F0DDFDFE48006811F03F
:1003C000D9FDFD48006811F0D5FDFC48006811F02A
:1003D000D1FDFB48006811F0CDFDFA48006811F02E
:1003E000C9FDF948006811F0C5FD10BD10B5002425
:1003F0004FF4007011F0C2FDED4908600846006836
:1004000000B901244FF4007011F0B8FDE94908600B
:100410000846006800B901244FF4007011F0AEFDE9
:10042000E54908600846006800B90124A02011F0E1
:10043000A5FDE24908600846006800B90124402093
:1004400011F09CFDDE4908600846006800B90124EF
:10045000402011F093FDDB4908600846006800B9B0
:1004600001244FF4F87011F089FDD749086008465F
:10047000006800B901240CB1FFF79AFF204610BDB7
:100480002DE9F04704460D461646701B00EBD0716F
:1004900005EB610954F8397004EBC901486830F084
:1004A0008BFA804654F8350044F8390004EBC50057
:1004B000406804EBC9014860A94605F1010A1DE046
:1004C00054F83A00394630F009FB15D854F83A0090
:1004D00044F8390004EBCA00406804EBC9014860E5
:1004E00009F1010954F8390044F83A0004EBC90055
:1004F000406804EBCA0148600AF1010AB245DFDD39
:10050000A9EB0500012805DDA9F1010229462046D5
:10051000FFF7B6FFA6EB0900012805DD324609F119
:1005200001012046FFF7ACFF44F83970404630F037
:10053000A9FA04EBC9014860BDE8F0872DE9F84F3E
:1005400004460D4616461F464FF0000828E04FF0BF
:10055000000920E04FF0000BDA4612E00B9A0AFB8C
:10056000029255F822100A9A08FB02A254F82200BF
:1005700030F0E8FA5946009030F0B4F883460AF1BA
:10058000010A0A988245E9DB0B9808FB009046F8BF
:1005900020B009F101090B988145DBDB08F1010866
:1005A000B845D4DBBDE8F88F024612B909B900207E
:1005B0007047002A02DD09B90020F9E7002903DDB0
:1005C0008A4201DD0120F3E7002A03DD914201D1D7
:1005D0000220EDE7002A03DD8A4201DA0320E7E783
:1005E0001AB9002901DD0420E2E7002A08DA101E0A
:1005F00001DB034600E043428B4201DA0520D7E7E6
:10060000002A08DA101E01DB034600E043428B4259
:1006100001D10620CCE7002A0ADA101E01DB0346CE
:1006200000E043428B4203DD002901DD0720BFE7E4
:1006300019B9002A01DA0820BAE7002903DA914241
:1006400001DD0920B4E7002A03DA914201D10A2032
:10065000AEE7002A03DA914201DA0B20A8E71AB9C3
:10066000002901DA0C20A3E700290ADA081E01DBC1
:10067000034600E04342934203DD002A01DD0D20E2
:1006800096E7002908DA081E01DB034600E0434232
:10069000934201D10E208BE7002908DA081E01DB06
:1006A000034600E04342934201DA0F2080E7002036
:1006B0007EE730B5034601B10AB9002030BD4129BB
:1006C00001D0412A01D10020F8E7491E521E03EB58
:1006D000C20000EBE100047801F007050120A8400A
:1006E000044201D00120E9E70020E7E72DE9FE4FB1
:1006F00004460D4616461F4600200190781C8200D5
:100700000021324811F03EFC781C82000021304864
:1007100011F038FC4FF0000819E04FF0000912E02A
:1007200004EBC80000EBE900017809F007020120A2
:100730009040014205D04FF07E5101982FF0D2FF3A
:10074000019009F10109B145EADB08F10108A8456A
:10075000E3DB384630F096F982460146019830F0E6
:1007600035F801900120029049E04FF0000AD04690
:100770003AE04FF0000912E004EBC90000EBE8009A
:10078000017808F0070201209040014205D04FF0A7
:100790007E5150462FF0A6FF824609F10109A94576
:1007A000EADB029830F06EF90090019912E0000047
:1007B000FC0500200006002004060020080600209A
:1007C0000C060020100600201406002088DD002002
:1007D0009CDD002030F0B6F98346514630F07EF9BA
:1007E00000D804E008F10108701E4045C1DC00BFDC
:1007F000FD48029940F821800298401C0290781C24
:1008000002998142B1DB0120029035E04FF0000AED
:10081000D14626E04FF0000812E004EBC90000EBDF
:10082000E800017808F0070201209040014205D05D
:100830004FF07E5150462FF055FF824608F10108D7
:10084000B045EADB029830F01DF90090019930F0D4
:1008500079F98346514630F041F900D804E009F1B6
:100860000109681E4845D5DC00BFE049029841F8FF
:1008700020900298401C0290781C02998142C5DBAE
:100880000020029032E0029991FBF7F1D74A52F82A
:100890002120029991FBF7F1491CD44B53F8211008
:1008A000501800EBD0714910D14A1268029B42F8EF
:1008B0002310029991FBF7F207FB1211CA4A52F872
:1008C0002120029991FBF7F307FB1311491CC64B3A
:1008D00053F82110501800EBD0714910C54A126826
:1008E000029B42F823100298401C029007FB07F07D
:1008F00002998842C7DCBDE8FE8F2DE9F34F8FB027
:10090000402440200A901025AA000021B948006820
:1009100011F038FBAA000021B548006811F032FB45
:10092000042321460A9A0F98FFF7E0FEE200002117
:10093000B148006811F026FB00200B9060E3AC4842
:1009400001680B9851F820000290AA4801680B98A2
:1009500051F82000019002980830402801DD402025
:1009600001E002980830089001980830402801DD25
:10097000402001E00198083006900298083801D51F
:10098000002001E00298083809900198083801D544
:10099000002001E001980838079009980E9027E39D
:1009A00007980D901CE3DDE90D120F98FFF781FE0B
:1009B0008146DDE90D12491C0F98FFF77AFE0221EE
:1009C00001FB0099DDE90D12891C0F98FFF771FEFC
:1009D00081440E9A921C0D990F98FFF76AFEA9EBBD
:1009E00000090E9A921C0D99491C0F98FFF761FEA1
:1009F000022101FB10990E9A921C0D99891C0F98E7
:100A0000FFF757FEA9EB000007B2DDE90D12891CC4
:100A10000F98FFF74EFE81460E9A521C0D99891CC5
:100A20000F98FFF746FE022101FB00990E9A921CD7
:100A30000D99891C0F98FFF73CFE8144DDE90D12EA
:100A40000F98FFF736FEA9EB00090E9A521C0D997C
:100A50000F98FFF72EFE022101FB10990E9A921CAF
:100A60000D990F98FFF725FEA9EB00000FFA80F80B
:100A7000002F02DBB8F1000F00DA00BF4146384614
:100A8000FFF792FD0390039841100B9801FB0506B8
:100A90000398401C40100B9900FB0510059002992B
:100AA0000E98401A083000EB0010019A0D99891A2F
:100AB00008440830514951F8200004900398102848
:100AC0001CD2DFE800F0081C4A629FB3F2F0EFEEA0
:100AD000EDECEBEAE9E838462FF0D4FF82460499C2
:100AE00030F030F881464448006850F826104846F7
:100AF0002FF0F8FD4049096841F826006CE2A7EBA9
:100B000008002FF0BFFF8246049930F01BF88146A1
:100B10003948006850F8261048462FF0E3FD364962
:100B2000096841F8260040462FF0ACFF834634495F
:100B300030F008F88246049930F004F881462E48D7
:100B40000268059852F8201048462FF0CBFD2A493C
:100B50000968059A41F822003EE240462FF092FFD4
:100B6000834627492FF0EEFF824604992FF0EAFFD3
:100B700081462148006850F8261048462FF0B2FD03
:100B80001D49096841F8260026E238462FF07AFF11
:100B900083461B492FF0D6FF824604992FF0D2FFDF
:100BA00081461548006850F8261048462FF09AFDF7
:100BB0001149096841F82600A8EB07002FF062FFF1
:100BC000824604992FF0BEFF81460B4802680598C3
:100BD00052F8201048462FF085FD07490A6805990C
:100BE00042F82100F8E1000088DD00209CDD0020B3
:100BF000100600200C06002000060020C005040896
:100C0000F704B53F40462FF03DFF824604992FF090
:100C100099FF8146FE48006850F8261048462FF09C
:100C200061FDFB49096841F82600D5E107EB0800A2
:100C30002FF028FF824604992FF084FF8146F44864
:100C4000006850F8261048462FF04CFDF04909681E
:100C500041F82600B7F1000901DB494601E0C9F17E
:100C6000000108462FF00EFFEA4900902FF06AFFBE
:100C7000834604992FF066FF8246E5480068059A8E
:100C800050F8221050462FF02DFDE1490968059AD1
:100C900041F82200A0E166E14DE111E1F5E0BFE09D
:100CA0009FE069E04DE018E0FFE740462FF0EAFEE4
:100CB0008346D8492FF046FF824604992FF042FF21
:100CC0008146D348006850F8261048462FF00AFDA8
:100CD000CF49096841F826007EE140462FF0D2FE58
:100CE0008346CC492FF02EFF824604992FF02AFF2D
:100CF0008146C748006850F8261048462FF0F2FC9D
:100D0000C349096841F8260017EB080901D4494690
:100D100001E0C9F1000108462FF0B4FE83460499B2
:100D20002FF010FF8246BA480068059A50F822104A
:100D300050462FF0D7FCB6490968059A41F82200C1
:100D40004AE1B7F1000901DB494601E0C9F10001C0
:100D500008462FF097FE834604992FF0F3FE824653
:100D6000AB48006850F8261050462FF0BBFCA8494D
:100D7000096841F826002FE1A8EB07002FF082FE5A
:100D8000824604992FF0DEFE8146A148006850F8A3
:100D9000261048462FF0A6FC9D49096841F8260018
:100DA000B8F1000901DB494601E0C9F1000108463C
:100DB0002FF068FE974900902FF0C4FE83460499F7
:100DC0002FF0C0FE824692480068059A50F8221023
:100DD00050462FF087FC8E490A68059942F8210099
:100DE000FAE0B8F1000901DB494601E0C9F1000170
:100DF00008462FF047FE874900902FF0A3FE834658
:100E000004992FF09FFE82468148006850F8261012
:100E100050462FF067FC7E49096841F82600DBE068
:100E2000B7F1000901DB494601E0C9F100010846BC
:100E30002FF028FE774900902FF084FE8346049916
:100E40002FF080FE82467248006850F82610504607
:100E50002FF048FC6E49096841F82600A7EB08000E
:100E60002FF010FE824604992FF06CFE81466848F0
:100E70000268059852F8201048462FF033FC644968
:100E80000A68059942F82100A6E0B8F1000901DBE3
:100E9000494601E0C9F1000108462FF0F3FD834601
:100EA00004992FF04FFE82465948006850F82610EA
:100EB00050462FF017FC5649096841F826008BE090
:100EC00017EB080901D4494601E0C9F100010846C1
:100ED0002FF0D8FD834604992FF034FE82464C480B
:100EE000006850F8261050462FF0FCFB484909686E
:100EF00041F82600B7F1000901DB494601E0C9F1DC
:100F0000000108462FF0BEFD424900902FF01AFE66
:100F1000834604992FF016FE82463D480068059AE4
:100F200050F8221050462FF0DDFB39490A68059928
:100F300042F8210050E038462FF0A4FD83463549A1
:100F40002FF000FE824604992FF0FCFD81463048C8
:100F5000006850F8261048462FF0C4FB2C49096859
:100F600041F8260038E0B8F1000901DB494601E00C
:100F7000C9F1000108462FF085FD264900902FF0A9
:100F8000E1FD834604992FF0DDFD8246204800688C
:100F900050F8261050462FF0A5FB1D49096841F86E
:100FA000260017EB080901D4494601E0C9F1000108
:100FB00008462FF067FD834604992FF0C3FD824653
:100FC0001348006850F8261050462FF08BFB10494C
:100FD000096841F8260000BF00BF0D98401C0D9025
:100FE00006990D9888427FF7DEAC0E98401C0E9053
:100FF00008990E9888427FF7D3AC0B98401C0B9051
:101000000B98A8427FF49BAC00200B901FE00000DF
:1010100000060020F704B53F00200C9011E0DDE948
:101020000B0101FB0506FF49096851F82600FE493E
:1010300024F032FAFD49096841F826000C98401C5A
:101040000C900C980828EADB0B98401C0B900B982E
:101050001028E1DB11B0BDE8F08F2DE9FF4F8BB018
:1010600004460D461E46199F0020079090E20798FF
:1010700005EB80000088ADF82800079805EB80009C
:101080004088ADF82A000798401C05EB80000088D6
:10109000ADF824000798401C05EB80004088ADF8AF
:1010A0002600BDF92800BDF92410884272D1BDF98F
:1010B0002A00089067E0002E41D04FF0FF383AE058
:1010C0004FF0FF30069031E0089810EB08002AD46A
:1010D000089800EB08011898814224DABDF928002D
:1010E000069940181FD4BDF9281006980844B84244
:1010F00019DABDF92810069808440590089840446C
:1011000004EBC000059900EBE100007801F0070254
:101110000121914008430899414404EBC101059A1B
:1011200001EBE20108700698401C06900698022820
:10113000CAD108F10108B8F1020FC1D116E0BDF91A
:1011400028000590089804EBC001059801EBE00029
:101150000078059901F007020121914008430899A0
:1011600004EBC102059902EBE1010870BDF926000C
:10117000BDF92A10884203DD0898401C089002E05F
:101180000898401E0890BDF926100898814292D117
:10119000FBE1FFE7BDF92A00BDF92610884275D1B1
:1011A000BDF9280008906AE0002E42D04FF0FF38C9
:1011B0003BE04FF0FF30069032E006990898401867
:1011C0002BD40699089808441899884225DABDF965
:1011D0002A0010EB080020D4BDF92A004044B84290
:1011E0001BDA0699089808440590BDF92A00404486
:1011F00004EBC001059801EBE0000078059901F0CF
:101200000702012191400843BDF92A10414404EB33
:10121000C102059902EBE10108700698401C069096
:1012200006980228C9D108F10108B8F1020FC0D10F
:1012300018E008980590BDF92A0004EBC001059854
:1012400001EBE0000178059800F0070201209040D2
:101250000143C8B2BDF92A1004EBC101059A01EBA4
:10126000E2010870BDF92400BDF92810884203DDB1
:101270000898401C089002E00898401E0890BDF9AC
:101280002410089881428FD17FE1FFE7BDF9241037
:10129000BDF92820881A2FF0F5FB8246BDF92610EB
:1012A000BDF92A20881A2FF0EDFB834651462FF016
:1012B0008DFA81462FF0EAF9CDE9020121F00041D3
:1012C000CDE900015AA00CC800982EF093FE13D26D
:1012D000BDF92410BDF92820881A2FF0D3FB8146D0
:1012E000BDF92610BDF92A20881A2FF0CBFB8246C3
:1012F00049462FF06BFA12E0BDF92610BDF92A20FD
:10130000881A2FF0BFFB8146BDF92410BDF92820B3
:10131000881A2FF0B7FB824649462FF057FA0490FF
:10132000BDF92420BDF92830D01ABDF92620BDF919
:101330002A30D11A01D40B4600E04B42002801DBD1
:10134000024600E0424293426BDA002008907EE0C1
:1013500008982FF097FB039004992FF0F3FB834636
:101360002FF02AFBBDF92A1000EB0109BDF9280076
:10137000089900EB010A002E3CD04FF0FF3835E011
:101380004FF0FF3006902CE019EB080026D409EB53
:1013900008001899884221DA06981AEB00001DD43B
:1013A00006985044B84219DA0AF10100059009EB99
:1013B000080004EBC000059900EBE10001780598F6
:1013C00000F00702012090400143C8B209EB080178
:1013D00004EBC101059A01EBE20108700698401C7C
:1013E000069006980228CFD108F10108B8F1020F43
:1013F000C6D113E0CDF814A004EBC900DDF814A0A9
:1014000000EBEA0001780AF0070201209040014356
:10141000C8B204EBC90101EBEA010870BDF9240070
:101420000AE01EE00006002085EBD13E0406002005
:10143000000000000000F03FBDF92810884203DDE5
:101440000898401C089002E00898401E0890BDF9DA
:101450002400BDF92810401A089988427FF478AF1B
:1014600092E0BDF92420BDF92830D01ABDF926201C
:10147000BDF92A30D11A01D40B4600E04B420028B6
:1014800001DB024600E0424293427DDB00200890EF
:1014900072E0BDF92A10089801EB000908982FF0B6
:1014A000F1FA039004992FF04DFB83462FF084FA54
:1014B000BDF9281000EB010A002E3CD04FF0FF3898
:1014C00035E04FF0FF3006902CE019EB080026D4F1
:1014D00009EB08011898814221DA06981AEB0000FE
:1014E0001DD406985044B84219DA06985044059025
:1014F00009EB080004EBC000059900EBE10001785E
:10150000059800F00702012090400143C8B209EBA2
:10151000080104EBC101059A01EBE201087006988D
:10152000401C069006980228CFD108F10108B8F1B6
:10153000020FC6D113E0CDF814A004EBC900DDF80A
:1015400014A000EBEA0001780AF0070201209040A5
:101550000143C8B204EBC90101EBEA010870BDF90F
:101560002600BDF92A10884203DD0898401C089027
:1015700002E00898401E0890BDF92600BDF92A1027
:10158000411A0898814284D100BF0798401C0790F7
:101590000D98411E079881427FF469AD0FB0BDE8F8
:1015A000F08F2DE9F04F099C15464FF0FF360F469E
:1015B000B4464FF0000935E000EB890ABAF902A001
:1015C000BA4504DA00EB890ABAF902A000E0BA468B
:1015D000574600EB890ABAF900A0AA4504DA00EBE5
:1015E000890ABAF900A000E0AA46554600EB890A2C
:1015F000BAF902A0E24504DD00EB890ABAF902A0BB
:1016000000E0E246D44600EB890ABAF900A0B245F0
:1016100004DD00EB890ABAF900A000E0B2465646A4
:1016200009F10109DDF828A0D145C5DBACEB070ABB
:101630000AF1010A93FBFAFA0AF1010EA6EB050A78
:101640000AF1010A94FBFAFA0AF101084FF00009C5
:101650002BE000EB890ABAF902A0AAEB070A0AFB01
:1016600003FAACEB070B0BF1010B9AFBFBFAF2440C
:101670000FFA8AFA00EB890BABF802A000EB890A9B
:10168000BAF900A0AAEB050A0AFB04FAA6EB050BBF
:101690000BF1010B9AFBFBFAC2440FFA8AFA00EB3A
:1016A000890BABF800A009F10109DDF828A0D145AC
:1016B000CFDBBDE8F08F2DE9FF4784B014461D460F
:1016C000BDF91000BDF91410884223D1002619E09D
:1016D000BDF81000296804EB81010880BDF81200F4
:1016E000304400B2296804EB810148802868401C1E
:1016F0002860BDF91600BDF91210884201DD761C84
:1017000000E0761EBDF91600BDF91210401AB04275
:10171000DED1E9E0BDF91200BDF91610884223D1EF
:10172000002619E0BDF81200296804EB8101488009
:10173000BDF81000304400B2296804EB8101088034
:101740002868401C2860BDF91400BDF910108842BB
:1017500001DD761C00E0761EBDF91400BDF9101005
:10176000401AB042DED1BFE0BDF91410BDF910201F
:10177000881A2FF087F98146BDF91610BDF912209D
:10178000881A2FF07FF9824649462FF01FF88046CD
:101790002EF07CFFCDE9020121F00041CDE90001EE
:1017A000AFF274300CC800982EF024FC13D2BDF9AF
:1017B0001410BDF91020881A2FF064F98046BDF985
:1017C0001610BDF91220881A2FF05CF981464146A7
:1017D0002EF0FCFF12E0BDF91610BDF91220881A98
:1017E0002FF050F98046BDF91410BDF91020881A69
:1017F0002FF048F9814641462EF0E8FF0746BDF933
:101800001420BDF91030D01ABDF91620BDF91230E0
:10181000D11A01D40B4600E04B42002801DB0246FE
:1018200000E0424293422FDC002625E0BDF8100084
:10183000304400B2296804EB8101088030462FF063
:1018400021F9814639462FF07DF980462FF0B4F812
:10185000BDF81210084400B2296804EB81014880E9
:101860002868401C2860BDF91400BDF9101088429A
:1018700001DD761C00E0761EBDF91400BDF91010E4
:10188000401AB042D2D12EE0002625E0BDF8120069
:10189000304400B2296804EB8101488030462FF0C3
:1018A000F1F8814639462FF04DF980462FF084F843
:1018B000BDF81010084400B2296804EB81010880CB
:1018C0002868401C2860BDF91600BDF91210884236
:1018D00001DD761C00E0761EBDF91600BDF9121080
:1018E000401AB042D2D100BF08B0BDE8F0872DE960
:1018F000F84F04460D461646701E00EBD0714FEAB5
:101900006109A5EB09000090CA46A80010F036FB5B
:101910008346AA002146584600F021FEB54205DB69
:1019200006EBD6714910B6EB410101D1BDE8F88F45
:101930004F463CE0002004EB8701088004EB870160
:101940004880CAF100081BE004EB8700008807EB21
:1019500008010BEB81010988084400B204EB870100
:10196000088004EB8700408807EB08010BEB81013E
:101970004988084400B204EB8701488008F1010857
:10198000D045E1DD04EB8700B0F9000090FBF6F0F4
:1019900000B204EB8701088004EB8700B0F9020075
:1019A00090FBF6F000B204EB870148807F1C0098A2
:1019B0008742BFDB584610F0DDFAB7E72DE9FF4F4D
:1019C00091B004460D461E9E0327802010900F9074
:1019D00040200E900D9000200B900A9081468020B0
:1019E00009900520049029462046049AFFF77FFFBE
:1019F0004FF0010A29E004EB8A01B1F90010AAF1C5
:101A0000010204EB8202B2F90020881A01D40146D7
:101A100000E04142089104EB8A01B1F90210AAF1F9
:101A2000010204EB8202B2F90220881A01D40146B5
:101A300000E041420791DDE90710884201DB089888
:101A400000E0079881440AF1010AAA45D3DB4FEA76
:101A5000890010F093FA80464FEA8902002140463F
:101A600010F090FA4FF0000A15E00AF1010004EBC3
:101A70008001042203A800F072FD04EB8A01042215
:101A800002A800F06CFD0AAB4246DDE90201FFF757
:101A900012FE0AF1010A681E5045E6D14FEA89009C
:101AA000B0FBF7F0039010F069FA0C904FEA890050
:101AB000B0FBF7F00246002103900C9810F062FA98
:101AC0004FF0000A13E008EB8A000088DDE90B21E3
:101AD00001EB8201088008EB8A004088DDE90B21D8
:101AE00001EB820148800B98401C0B90BA44CA4518
:101AF000E9DB404610F03EFA0B9B0E9ACDE900233D
:101B0000DDE90C03DDE90F12FFF74BFD4FF4007226
:101B10000021FD48006810F035FADDE90D23CDE91C
:101B200000230123F848DDE90B210068FFF795FA4F
:101B30000C9810F01FFAF44809990068FEF7DDFED2
:101B40002823099ACDE900230123F048F0490268CF
:101B5000F0480068FEF7F2FC1498012806D002282D
:101B600009D003280CD0042814D10EE000200690E0
:101B70000A20059012E00A200690242005900DE02E
:101B8000242006903E20059008E0002006903E208C
:101B9000059003E0002015B0BDE8F08F00BF4FF4C2
:101BA000F8720021DC48006810F0ECF94FF0000AF0
:101BB00040E04FF0000B30E0069A524402EB820204
:101BC000D64B03EB421252F82B10D04A126852F84F
:101BD0002B002FF08DF80290069A524402EB8202FD
:101BE000CE4B03EB421252F82B10C84A126852F83F
:101BF0002B002FF07DF8019002992EF0A3FF0390A7
:101C0000C548006850F83A1003982EF06BFDC249A1
:101C1000096841F83A000BF1010BBBF1280FCBD159
:101C200050462EF02FFFBC49096801EBCA014860FD
:101C30000AF1010ADDE90501401A5045B9D1DDE993
:101C40000501401A421E0021B3480068FEF718FC47
:101C50004FF0000A0EE0B049096801EBCA0148687C
:101C60002EF0AAFE06990844AD49085C06F80A0061
:101C70000AF1010A13988245EDDB002006F80A00FC
:101C8000307888E72DE9F84F04460D4616461F4682
:101C9000DDF828804FF000094FF6FF7AD346012D7A
:101CA00002DCC846BDE8F88F4FF000091CE004EBE9
:101CB0008900B0F9001009F1010004EB8000B0F9CF
:101CC000000081420BD104EB8900B0F9021009F148
:101CD000010004EB8000B0F90200814200D006E070
:101CE00009F101001FFA80F9681E4845DFDC00BFDA
:101CF000681E484500D1D5E74FF0000919E004EB14
:101D00008900B0F90000504504DA04EB890000882E
:101D10001FFA80FA04EB8900B0F90200584504DA92
:101D200004EB890040881FFA80FB09F101001FFACB
:101D300080F9A945E3DB4FF0000915E004EB8900C9
:101D40000088A0EB0A0000B204EB8901088004EBD4
:101D500089004088A0EB0B0000B204EB89014880A9
:101D600009F101001FFA80F9A945E7DB3B4632463D
:101D700029462046CDF80080FFF720FE92E72DE9A6
:101D8000F84F4FF00009C3F800900124EBE0A4F1F4
:101D9000010900EB8909B9F9005000EB8409B9F990
:101DA00000A0CDF800A0A4F1010900EB8909B9F960
:101DB000026000EB8409B9F90270DDF800A0BAEB0B
:101DC000050901D4CA4601E0C9F1000AD446B7EBBF
:101DD000060901D4CA4601E0C9F1000AD646F44515
:101DE00059DD4FF0000853E0DDF80090A9450ADD09
:101DF00005EB08090FFA89F9D3F800A002EB8A0A6B
:101E0000AAF8009009E0A5EB08090FFA89F9D3F8C0
:101E100000A002EB8A0AAAF80090B7421ADDD3F8B4
:101E200000A002EB8A0ABAF900A0BAEB050901D4B6
:101E3000CA4601E0C9F1000A0AFB0EFA9AFBFCFA55
:101E4000B2440FFA8AFAD3F800B002EB8B0BABF86E
:101E500002A01AE0D3F800A002EB8A0ABAF900A0A7
:101E6000BAEB050901D4CA4601E0C9F1000A0AFB30
:101E70000EFA9AFBFCFAA6EB0A0A0FFA8AFAD3F8D2
:101E800000B002EB8B0BABF802A01B1D08F10108A0
:101E9000E045A9DB66E04FF0000861E0B7420ADDEB
:101EA00006EB08090FFA89F9D3F800A002EB8A0AB9
:101EB000AAF8029009E0A6EB08090FFA89F9D3F80D
:101EC00000A002EB8A0AAAF80290DDF80090A9456A
:101ED00028DDD3F800A002EB8A0ABAF902A0BAEB17
:101EE000060901D4CA4601E0C9F1000A0AFB0CFA4E
:101EF0009AFBFEFAAA440FFA8AFAD3F800B002EB72
:101F00008B0BABF800A028E0FC05002008060020A1
:101F1000840F04080406002014060020845F0408CF
:101F200044860408D3F800A002EB8A0ABAF902A09A
:101F3000BAEB060901D4CA4601E0C9F1000A0AFB5E
:101F40000CFA9AFBFEFAA5EB0A0A0FFA8AFAD3F802
:101F500000B002EB8B0BABF800A01B1D08F10108D1
:101F6000F0459BDB641C8C42FFF611AFBDE8F88F97
:101F7000704753EA020C00F069802DE9F04B4FF0F6
:101F80000006002B1FBFB3FA83F503FA05F424FA09
:101F900005F65E4012BF1643B2FA82F502FA05F466
:101FA000C5F120051EBF22FA05FC44EA0C042035C9
:101FB00056EA044C4FEA144418BF641C4FF0000862
:101FC0004FF00009904271EB030C39D3002919BF7F
:101FD000B1FA81F701FA07F6B0FA80F700FA07F6CE
:101FE000C7F120071EBF20FA07FC46EA0C0620377F
:101FF000B6FBF4FCA7EB0507103F07F01F0BCBF176
:1020000020060CFA0BFB2CFA06F644BFB34600265A
:10201000202FA4BF5E464FF0000B5BEA060C08BF02
:102020004FF0010B19EB0B09ABFB027C48EB0608E8
:10203000C01B06FB02CC0BFB03CC71EB0C01C1E710
:102040000B46024641464846BDE8F08B13B54FF0BB
:1020500000004FF00001AFF30080BDE81C40704766
:1020600010B54C1084EA530404D54042C1F100017C
:1020700038BF491E1B4204D55242C3F1000338BF8A
:102080005B1EFFF776FF14F0804F04D04042C1F191
:10209000000138BF491E14F0004F04D05242C3F172
:1020A000000338BF5B1E10BD1CB50C46064B7B44BD
:1020B00069460090204600F0CEFD044600206946A7
:1020C00000F0DCFD20461CBDCB0B00000FB4044922
:1020D00010B503AA029800F0EDFD10BC5DF814FBEA
:1020E000080000200FB41CB5084B06AA7B446946C3
:1020F0000090059800F0AFFD04460020694600F00E
:10210000BDFD20461CBC5DF814FB00008D0B0000DB
:1021100070B5044685690068C10601D5302600E027
:102120002026C00707D070BDD4E901213046904772
:10213000206A401C20626D1EF6D570BD70B5044645
:1021400085690078C00707D170BDD4E9012120203E
:102150009047206A401C20626D1EF6D570BD70B598
:102160000C460546012A05D02878800600D5EA6984
:10217000002302E0012305E05B1C934202D2E05CF5
:102180000028F9D1A869E618C01AA861286A18447D
:1021900028622846FFF7BCFF04E0D5E9012114F8C6
:1021A000010B9047B442F8D32846FFF7C7FF70BD34
:1021B0002DE9F0410646002410687529314616A520
:1021C00010D000F0B6FA002802DA404213A507E06A
:1021D00031688A0701D512A502E0490704D511A587
:1021E000012401E000F0AEFA00210A2206F12407E2
:1021F00009E0B0FBF2FCB0FBF2F302FB1C00303054
:1022000078541846491C0028F3D123462A46304604
:10221000BDE8F04100F09FBA000000002D00000072
:102220002B00000020000000F0B40D4601880905D5
:1022300002D5214C7C4402E01F4C7C440E3400212A
:1022400000F1240608E002F00F071209E75D42EAF8
:1022500003721B097754491C52EA0307F3D1027831
:102260000023120704D5702D06D009B102231134C2
:102270002246F0BC00F06FBA01231034F8E770B5C5
:1022800004460D462146106800F05CFA02462946D5
:102290002046BDE870400023C6E7D21D22F00703A8
:1022A000D3E90023C0E70368126843F0200303600A
:1022B0000823C3610023B7E74A6404002DE9F05FF7
:1022C000894604464FF0000ADFF874B1FB44C0F8B9
:1022D00020A02046E1688847002874D0252806D031
:1022E000D4E901219047206A401C2062F1E70026D2
:1022F0005F462046E16888472028054607DB312DE8
:1023000005D2781910F8200C08B10643F1E7B007A0
:1023100001D526F00406C4F81CA00027C4F818A0B4
:102320002A2D09D028460FF032FD38B304EB870878
:10233000303DC8F8185019E059F8041B204604EB4A
:1023400087029161E1688847012F054618D1E0694D
:10235000002820DA26F020061DE0D8F8180000EB4F
:10236000800005EB40003038C8F818002046E168CE
:10237000884705460FF00BFD0028EED1012F0AD04B
:102380002E2D08D12046E16888477F1C0546022F84
:1023900046F02006C4DBA069002803DA404246F07C
:1023A0000106A061F00701D026F010066C2D0BD0BD
:1023B000682D09D04C2D39D06A2D35D0742D35D0EB
:1023C0007A2D33D016E038E0E1682F462046884762
:1023D000B842054609D16C2F26D04FF48060E168E1
:1023E000064320468847054604E06C2F1AD04FF478
:1023F000807006430DB3A5F14100192802D820359D
:1024000046F400664A462946204626604E46FDF7B9
:10241000E9FE80B101280BD0F61D26F0070000F17F
:10242000080956E74020E4E78020D8E70020D6E7F7
:1024300006F104094DE7284652E7206ABDE8F09FFF
:10244000DA63040030B505460B462A4613F8014B03
:1024500012F8010B08B1A042F8D01CB1002802D03C
:102460006D1CF1E7284630BD40EA010310B59B071B
:102470000FD1042A0DD310C808C9121F9C42F8D0EE
:1024800020BA19BA884201D9012010BD4FF0FF309F
:1024900010BD1AB1D30703D0521C07E0002010BDB5
:1024A00010F8013B11F8014B1B1B07D110F8013B41
:1024B00011F8014B1B1B01D1921EF1D1184610BD22
:1024C00040EA0103024630B59B0710D14FF00134BA
:1024D00000E008C208C91D1B9D4315EAC41FF8D0BF
:1024E00013F0FF0102F8011B0DD01B0AF8E711F8E9
:1024F000013B002B02F8013B05D011F8013B002BFA
:1025000002F8013BF3D130BD10B5431C02E010F8D6
:10251000011B71B18107FAD14FF0013202C88C1A48
:102520008C4314EAC211F9D0C01A0A0603D0C01EA7
:1025300010BDC01A10BD0A0401D0801E10BD0902D2
:10254000FCD0401E10BD421E12F8013F002BFBD1F3
:1025500011F8013B002B02F8013BF9D17047032A27
:1025600040F2308010F0030C00F0158011F8013BB0
:10257000BCF1020F624498BF11F801CB00F8013B97
:1025800038BF11F8013BA2F1040298BF00F801CB5B
:1025900038BF00F8013B11F0030300F0C384083A90
:1025A000C0F0088051F8043B083A51F804CBA0E889
:1025B0000810F5E7121D5CBF51F8043B40F8043BDE
:1025C000AFF30080D20724BF11F8013B11F801CB13
:1025D00048BF11F8012B24BF00F8013B00F801CBE4
:1025E00048BF00F8012B704702F0FF0343EA0322C3
:1025F00042EA024200F002B84FF000020429C0F0A3
:10260000128010F0030C00F0C184CCF1040CBCF17A
:10261000020F18BF00F8012BA8BF20F8022BA1EB76
:102620000C0100F0B3BC5FEAC17C24BF00F8012BB1
:1026300000F8012B48BF00F8012B704710B5044685
:1026400010F0030F08BF11F0030F40F015804FF09A
:10265000013E121FC0F20E8051F8043BA3EB0E0C9A
:102660002CEA030C1CEACE1C08BF40F8043BF0D057
:10267000A1F1040102F10402521E08DB11F8013B32
:10268000002B00F8013BF7D11146FFF7B5FF2046BC
:1026900010BD00004FF0013C50F8042B51F8043BF2
:1026A0009A4221D1A2EB0C03934313EACC1317D126
:1026B00050F8042B51F8043B9A4215D1A2EB0C03BD
:1026C000934313EACC130BD150F8042B51F8043B7D
:1026D0009A4209D1A2EB0C03934313EACC13DBD04B
:1026E0004FF00000704700BFD01A01BAB1FA81F173
:1026F00001F0180122FA01F0CB40C1F12001DBB258
:10270000C0B2C01A2CFA01F3D11A914311EAC311D5
:10271000E6D17047704770477047704710B500F0BA
:102720005FFC006810BD10B5044600F059FC046061
:1027300010BD09684A0501D540B27047C905FCD5EE
:1027400000B2704709684A0501D5C0B27047C90593
:10275000FCD580B270472DE9F0470D469946924668
:10276000044600F124080168880604D5E06921F0D8
:102770001001216000E00120A84201DD471B00E0BC
:102780000027A1697A1902EB0900081AA0612078D4
:10279000C00602D42046FFF7BBFC002608E0D4E9BF
:1027A00001211AF806009047206A401C761C20621E
:1027B0004E45F4DB2078C0060AD52046FFF7A8FC7A
:1027C00006E0D4E9012130209047206A401C2062B5
:1027D000381EA7F10107F4DC07E0D4E9012118F85D
:1027E00005009047206A401C2062281EA5F10105C3
:1027F000F3DC2046FFF7A2FC2078000602D5022079
:10280000BDE8F0870120FBE711680268006A530504
:1028100001D508700AE0D30501D5088006E013064B
:1028200003D5C217C1E9000200E00860012070472B
:1028300070472DE9FF4F0C461E464FF0FF378BB017
:10284000D2E90001DDF860800A908A46C1F30A559A
:1028500005B93D46002108464FF00000BAF1000FCF
:1028600000F4400005DA00EB80004FF4400101EA7B
:1028700050004FEA9059B9F1010F00DDB9460A98AE
:1028800050EA4A000ED044F61050A5F2FF354543F9
:102890002F14B8F1000F1ED07542291E1EDDC9F19C
:1028A00000021CE0B8F1010F4FF0000001D0302110
:1028B00003E0F24305E02154401CB042FBDB30460C
:1028C0000022002121540B99C1F80880C1E90020A1
:1028D0000FB0BDE8F08FBD1B6D1CDEE74A4600DA85
:1028E000694206A800F044FC06AB93E8070003AB7E
:1028F00083E8070050460A9901F0A5F98DE8070022
:10290000A0F500501F3800900398002D09DD42F219
:102910001F014A46084403A90390684601F02FFCB2
:1029200008E0A0F500504A461F3803A90390684606
:1029300001F04DFC8DE807000004000C03D04FF0BF
:10294000FF30410800E01046B8F1000F03D000222C
:10295000009215461EE0751E05D400F045FB30328E
:1029600062556D1EF9D5B3460122084302D00022FC
:102970007F1C04E02078302801D100227F1E002A2D
:10298000099786D01DE0112D07DA00F02DFB3032BB
:1029900062556D1C50EA0102F5D1084302D000983F
:1029A000C8B10EE00021681E05E0235C625C635440
:1029B0002254401E491C8142F7DBAB46A81B401E37
:1029C0000990002004F80B000B98099AC0F80880C1
:1029D000C0E9002B7CE711264FF0000859E72DE9EC
:1029E000F04F88460446D21D22F0070191B0D1E98C
:1029F0000001CDE90A010EF0C7FC02460B98C00F9A
:102A000001D02D2007E02068810701D52B2002E0AE
:102A1000202101EAC000032A099001D0072A05DB22
:102A200003464146204600F02DFB0BE1207880064E
:102A300001D5E06900E00620B8F1650F814606D0B7
:102A4000B8F1660F18D0B8F1670F70D131E00020EF
:102A5000B9F1110F009001DB112301E009F101032D
:102A60000AAA01A90CA8FFF7E4FEDDE90C70002614
:102A700009F10105834647E001204B4600904FF0E5
:102A800000470AAA01A90CA8FFF7D3FEDDE90DB0A3
:102A90000C995D46002610B909F101000D18B9EB3B
:102AA000050003D4C0F1FF3609F10105A5EB0900CB
:102AB0002BE0B9F1010F01DA4FF001090020B9F163
:102AC000110F0090484601DD112300E003460AAAD9
:102AD00001A90CA8FFF7ADFEDDE90C704D460026FC
:102AE0008346207800070AD4AB4500DA5D4601A88A
:102AF000012D04DD411911F8011C302907D04F4583
:102B000002DA17F1040F04DA012082460FE06D1E8D
:102B1000EEE7002F02DCED1B3E4403E0781CA842E8
:102B200000DD7D1CB81B00F1010A4FF00047207842
:102B3000000703D4AA4501DB4FF0FF3A0021B7F1AB
:102B4000004F0DF143088DF8431024D002202B23B1
:102B5000002F01DA7F422D230A21021EA0F101007D
:102B600000DC5FB197FBF1FC97FBF1F201FB1C7CF1
:102B700017460CF1300C08F801CDEEE7A8F1010082
:102B800003702188090501D5452100E06521A0F1E8
:102B9000010800F8011C09980FA9A1EB0807FF1D07
:102BA00000B10120411901EBEA70A1693844081A0B
:102BB000401EA0612078C00602D42046FFF7A8FA84
:102BC000099828B1D4E901219047206A401C20626D
:102BD0002078C00622D52046FFF79AFA1EE0002E84
:102BE00004DBB34502DD01A8805D00E03020D4E9BC
:102BF00001219047206A401C2062761CAAF1010046
:102C00005FEA000A0AD100F0E7F9C0680168405C99
:102C1000D4E901219047206A401C2062281EA5F1BA
:102C20000105DCDC07E0D4E9012118F8010B90472D
:102C3000206A401C2062381EA7F10107F3DC204601
:102C4000FFF77CFA032011B043E6000001694A1C3B
:102C500002610878704700B58FB0CDE901310021DD
:102C6000059105497944CDE9031011466846FFF7FF
:102C700025FB0FB000BD0000E5FFFFFF0A6802F86A
:102C8000010B0A60704710B5436913B1AFF30080C0
:102C900001E0FFF764FA012010BD127800F1240171
:102CA0000A7000224A700122EDE711684FF0FF32EE
:102CB000E9E70000074B70B50D467B44FFF7CBFFFB
:102CC0000446284600F0C2FA10B14FF0FF3070BD44
:102CD000204670BD739A01002DE9FF5F15468A46B4
:102CE0000446DFF8AC80F8440027D8E900103E46DF
:102CF000CDE9001010E03AF816106A4602A800F07C
:102D0000A9FA411C07D02178890603D5E269391850
:102D100091420DD80744761C2078800602D5E069E0
:102D2000B84205DDAE42E6DB3AF816000028E2D1F3
:102D3000A069C01BA0612046FFF7EAF9D8E900109E
:102D4000CDE90010002017E03AF818106A4602A8F2
:102D500000F080FAB0F1FF3F81460BD000250DF165
:102D6000080B05E0D4E901211BF8050090476D1C14
:102D70004D45F7D308F10100B0428046E4DB206AFC
:102D8000384420622046FFF7D9F9BDE8FF9F0000D4
:102D9000265C04002DE9F0418046D21D22F0070296
:102DA0000025D2E90002F52915A614D0011E72F102
:102DB000000106DA0023D0EB030063EB020211A648
:102DC00008E0D8F800108B0701D50FA602E04907EC
:102DD00001D50EA601251146002408F1240704E0C0
:102DE00000F002F930323A55641C50EA0102F7D182
:102DF0002B46324621464046BDE8F041FFF7ABBCCA
:102E0000000000002D0000002B000000200000004A
:102E100030B4002100F1240408E002F00705D208D4
:102E2000303542EA4372DB086554491C52EA030517
:102E3000F3D10468002310A2250707D5A40600D407
:102E400021B1C46901230DA2641EC46130BCFFF727
:102E500082BC10B5044621461068FFF773FC024699
:102E60002046BDE810400023D2E7D21D22F0070122
:102E7000D1E90023CCE70000000000003000000092
:102E80000FB4002300B589B00CA900910B99CB6059
:102E9000214B7B440693214B7B44079304236FF023
:102EA0000042CDE901321E4A7A446B46089202463E
:102EB00000202EF01AF809B05DF814FB70B5064634
:102EC0004FF0FF3015460C46324686B00091CDE9F2
:102ED000010169460020049004A8FFF7D1FF0246D3
:102EE0000498211825B108B1084600E02046286062
:102EF000049800280DD0002A02DD0098884208D0EE
:102F00003246081B69460094CDE9010404A8FFF786
:102F1000B7FF06B070BD00009B020000B3020000C6
:102F2000C701000010B5203AC0F00B80B1E818507E
:102F3000203AA0E81850B1E81850A0E81850BFF4A3
:102F4000F5AF5FEA027C24BFB1E81850A0E8185042
:102F500044BF18C918C0BDE810405FEA827C24BF96
:102F600051F8043B40F8043B08BF7047D20728BF24
:102F700031F8023B48BF11F8012B28BF20F8023B73
:102F800048BF00F8012B70474FF0000200B5134610
:102F900094469646203922BFA0E80C50A0E80C5079
:102FA000B1F12001BFF4F7AF090728BFA0E80C502A
:102FB00048BF0CC05DF804EB890028BF40F8042B23
:102FC00008BF704748BF20F8022B11F0804F18BF90
:102FD00000F8012B7047000000487047D0DD00204A
:102FE00000487047B0DD002030B5B0F10A024FEA6A
:102FF000900E71F100034EEA817EB0EB0E0061EBA2
:1030000091014FEA101E4EEA017E10EB0E0041EBDB
:1030100011114FEA102E4EEA016E10EB0E0041EB3B
:1030200011214FEA104E4EEA014E10EB0E0041EB1B
:103030001141401841F100014FEAD00040EA4170CF
:103040004FEAD10110EB80054FEA810444EA907405
:1030500044EB01046D1944EB0404521BA3414FF0EF
:10306000000348BF0A3200D530BD401C41F10001C9
:1030700030BD10B5044600F037F90068005D00F07F
:10308000010010BD2DE9F0411F46044603260168EA
:10309000072A01F4006004DB08B116A505E016A5B7
:1030A00003E008B115A500E015A521F0100020608F
:1030B000A069C01EA0610FB1401EA0612046FFF7AD
:1030C00027F84FB1D4E9012138469047206A401CC7
:1030D0002062C01C206206E0206AFAE7D4E90121E0
:1030E00015F8010B9047761EF8D22046FFF726F818
:1030F000BDE8F0814E414E006E616E00494E4600C3
:10310000696E660010B5436913B1AFF3008001E04A
:10311000FFF7E2FD012010BD128800F12401828436
:103120000022C2840122EDE711684FF0FF32E9E787
:10313000426842B1016811F8013B23B1521EC0E957
:103140000012184670470121C160881E704742680E
:103150005AB1C368016843B983688B4205D0491EE0
:10316000521CC0E90012002070474FF0FF3070473A
:103170002DE9F047814616468AB0334878440DC899
:103180008DE80D0030487844801C03AC0DC884E8FD
:103190000D0041F69B300844372190FBF1F290FB83
:1031A000F1F5A5F1800501FB12041B3C02D5644238
:1031B000012000E00020DFF890A080460027FA44BC
:1031C000AAF1BE0A0DE0E00709D03246684607EBD7
:1031D00047010AEB810100F0FAFF8DE80700641057
:1031E0007F1C002CEFD1184F7F44AC3F18E0E8075C
:1031F00014D007EB04100DF1180A90E80E008AE8CD
:103200000E00C068F04201D198190890324606A914
:1032100003A800F0DCFF03AB83E807006D10641C1B
:10322000002DE4D132466946B8F1000F03A802D060
:1032300000F0A5FF01E000F0CAFFC9E90001C9F8EC
:1032400008200AB0BDE8F087345A0400007B00F083
:103250008000704770B516460C46054600F044F8ED
:10326000036893F80101012806D0FF2C0FD8185DE0
:1032700068B101202C7070BDD3F807013246214699
:1032800003F2071303442846BDE8704018474FF087
:10329000FF3070BD00487047B0DD00207546FFF775
:1032A000F9FFAE4605006946534620F00700854603
:1032B00018B020B5FDF712F8BDE820404FF0000629
:1032C0004FF000074FF000084FF0000B21F007010E
:1032D000AC46ACE8C009ACE8C009ACE8C009ACE851
:1032E000C0098D467047000010B5FFF775FE001D40
:1032F00010BD00BFC1C602002DE9FF4F064689B0D0
:103300000878FF2806D0491C2D2805D000244FF04E
:10331000000908E000200CE00124F8E709EB89032C
:10332000491C00EB43090878FF28F7D114B1C9F113
:1033300000008146107800252C46AA4629462D28F3
:1033400001D02B2804D1521C2D2813D000208246F6
:103350008B461078FF280FD04FF0000C0A21521C2A
:10336000A5FB017804FB018105FB0C11C5194BEB92
:103370000104EEE70120EAE7002108464FF00000D3
:10338000BAF1000F02D000EB80004008C0F3815872
:10339000B8F1010F01DD4FF0FF380C9809EB000781
:1033A00055EA040009D04FF0020917F5FA7F0BDA4D
:1033B0004FEACA70C6E900B012E04FEACA70C6E927
:1033C00000B00DB0BDE8F08FB7F5FA7F0DDDF04825
:1033D0007844D0E90010C6E9001040EACA70706075
:1033E000FFF7FEFDC0F80090EBE7391E02DAC8F1E6
:1033F000000200E0424600DA794206A8FFF7B8FE74
:1034000006AB93E8070003AB83E8070044F23E00F5
:103410005BEA04010090584604D144F21E012C4698
:103420005D460091210C0904014306D10099240452
:1034300044EA15442D041039009104F07F41014302
:1034400006D10099240244EA15642D02083900913E
:1034500004F07041014306D10099240144EA157437
:103460002D01091F009104F04041014306D100994C
:10347000A40044EA9574AD00891E009104F0004157
:10348000084304D100986D196441401E00904246E3
:103490006846002FCDE9014503A902DD00F0ABFE2F
:1034A00001E000F080FEBAF1000F04460D4601D0A5
:1034B00084F0004440F2FF7724F00040284303D01A
:1034C000C4F30A50B84212D1FFF78AFDC0F8009049
:1034D000C4F30A50B8420AD1AE487844D0E900108B
:1034E000C6E9001004F000410843706069E7C6E9CE
:1034F000005466E72DE9FF4F1F464FF0000A4FF0DA
:10350000FF38454691B0D7E90146CDF83CA0FFF71A
:1035100063FDC0680168405C1090B96912986D1C29
:103520008847396A814688470028F6D1B9F1FF3FBC
:103530000AD0002E24F4D06411DDB9F12B0F08D08D
:10354000B9F12D0F0BD102E0404615B03AE744F433
:103550008064B96912986D1C8847761E81466005A3
:1035600004A901D52D2000E02B20002E01F1010B34
:103570000DF130088DF810003FDDB9F1690F08D06A
:10358000B9F1490F05D0B9F16E0F02D0B9F14E0F64
:103590001CD13B4601A8009580E85002DDE91212DB
:1035A0006FF002002DF0A5FCC11CCED10EE0B96970
:1035B00012986D1C884781461398761E44F4007457
:1035C00005600F98401C002E0F9016DDB9F1300FEA
:1035D000EDD0B9F1780F02D0B9F1580F0DD10F9895
:1035E00001280AD13B46CDE90054DDE91212001F43
:1035F00002962DF07CFCC11CA7D1109989453ED1C3
:1036000044F0800406E01399681CAAF1010A44F40E
:1036100000740860B9696D1C1298761E88473028BE
:103620008146F0D02BE01099894505D1200603D4BE
:10363000761E44F0800418E048460EF0A8FB08B35C
:10364000761E0DF123018B4544F4007408D2A9F1D4
:1036500030000BF8010B200607D5AAF1010003E0AA
:10366000200602D40AF101008246A00502D5139972
:10367000681C0860B96912986D1C88478146002E45
:10368000D1DC53E0002E51DDB9F1650F02D0B9F164
:10369000450F4BD1A00549D5B9696D1C1298761E0E
:1036A00024F440748847002E81460CDD2B2804D07A
:1036B000B9F12D0F07D144F48074B96912986D1CCB
:1036C0008847761E8146E00501D52D2100E02B219B
:1036D00008F8011BCDF8008021E0761E0DF13901BC
:1036E000884544F400740CD2A9F1300010F0FF00BA
:1036F00088F8000002D10099884509D908F101082D
:1037000006E0E00501D5244801E042F20F70824650
:10371000B96912986D1C8847814613980560002E80
:1037200004DD48460EF033FB0028D6D1F969129823
:103730008847FF2053468BF8000088F800000020DF
:103740000A900B9004AA0CA90AA8FFF7D5FDA005C2
:1037500002D46FF00100F8E614F0240F0AD0E0075D
:1037600014D13868DDE90A12031D3B600068C0E926
:1037700000120BE00AA968460EF0B1FAE00705D185
:103780003868009A011D3960006802602846DCE64E
:10379000949504008A940400F1D8FFFF10B5044604
:1037A000AFF300802046BDE81040FCF77EBD00006E
:1037B0002DE9FF4F1F464FF03C0987B04FF0004204
:1037C000DDE9141001F10108DDF858A002EA4050CB
:1037D0000390002005908346054604460490B9698D
:1037E000461E08988847AAF1010A0290BAF1000F14
:1037F0003BDD02982E2815D0102100F016FA002883
:103800002EDB4FF0010B0599014317D0B9F1000FE2
:103810000BDB4A46C11700F0F5F905430C43A9F14B
:10382000040905E0012004900BE008B145F0010512
:1038300001200590049820B9361D02E0049800B1DB
:10384000361FB969089808F101088847BBF1000FD5
:10385000AAF1010A0290C9D00999C1F80080C5E710
:103860000298702808D0502806D0F969089888472F
:10387000BBF1000F14D04FE0002002900120BBF1FB
:10388000000F049009D0B969089808F10108884729
:10389000AAF10109B9F1000F07DCF9690898884716
:1038A0006FF001000BB0BDE8F08F2B2804D02D285D
:1038B0000CD14FF0FF300490B969089808F1010865
:1038C0008847A9F10109B9F1000FE6DD411CE4D0F8
:1038D0000A2100F0AAF90028DFDB029908F10108AB
:1038E00001EB810100EB41000290B969089888471B
:1038F0000A2100F09AF9099AA9F10109B9F1000F1A
:10390000C2F8008001DD0028E7DAF96908988847E5
:103910000499029800FB016655EA040004D004F003
:103920004041090002D006E0039898E0A40044EA70
:103930009574AD00B61E04F00041080002D16D1967
:103940006441761E159810F0240F03D04FF00B0938
:103950005C4803E04FF028096FF07D008246564531
:1039600007DAAAEB06018944B9F1410F01DD4FF0F6
:10397000410901200021A9F1010200F043F90246AA
:1039800028400B462140084301D0012100E00021DE
:10399000501E029143F1FF3128402140084301D0DD
:1039A000012000E000200299834651EA0B014FD02C
:1039B000002108464FF00000039900F4400039B19F
:1039C00000EB80004FF4400100EBD07001EA600092
:1039D0008015012802DD4FF0FF3000E013D0401CBD
:1039E00036D0029860B3BBF1000F0CD14A460120DB
:1039F000002100F007F928402140084301D00120B0
:103A000000E00020E0B101204A46002100F0FAF871
:103A1000034640190A4661412D1A8C4111D3B9F170
:103A2000400F09DD159810F0240F02D0AAF13406DA
:103A300003E0AAF1170600E0761C00254FF00044D1
:103A400006E05B1E42F1FF3220EA030521EA020490
:103A5000CAF10100B04206DA1B49039808430190FD
:103A6000002000900EE0039AC4F3D321E80A0A4331
:103A7000164940EA44500A433146CDE900026846FF
:103A80000EF07AF9159810F0240F0BD01598C00796
:103A900015D13868DDE90012031D3B600068C0E9FC
:103AA00000120CE002A869460EF019F91598C0073B
:103AB00005D13868029A011D3960006802604046ED
:103AC000F0E6000002FCFFFF0000F07F0000F03F86
:103AD0002DE9FF4F92461D4685B04FF00041DDE9CC
:103AE000124BDDE914727F1E01EA4B50414940F050
:103AF000FF4940EA0108002122F0200049280491F2
:103B000002D04E2828D04CE03BA0012607C88DE803
:103B10000700A9690698641C88477F1E014606D4E1
:103B20001DF8060018B121F0200181420BD0E9698F
:103B300006988847032E34D0082E32D06FF001004B
:103B400009B0BDE8F08F761C032E01D0082EE0D11D
:103B5000601CCAF80000DCE7A9690698641C884765
:103B60007F1E2AD420F02000412826D1A96906987A
:103B7000641C88477F1E20D420F020004E281CD1D2
:103B8000A9690698641C88477F1E48F4002849F4F8
:103B90008009CAF8004001D4282806D0E9690698AF
:103BA00088475FEACB7012D022E0A9690698641CAE
:103BB00088477F1E01D4002803DAE9690698884700
:103BC000BCE72928F1D1641CCAF80040E9E71BF0E2
:103BD000240F07D028680499031D2B600068C0E9F2
:103BE000001805E02868021D2A600068C0F80090EF
:103BF0002046A5E70000F07F494E46494E495459FA
:103C000000000000B2F120030AD5C2F1200301FA3E
:103C100002F120FA03F300FA02F041EA03017047CF
:103C200000FA03F14FF0000070473A2800D2303814
:103C300020F02002412A01D3A2F13700884201D3AB
:103C40004FF0FF3070475FEA400C08BF91F0000F63
:103C50004FEA8C234FEAC12243EA51514FEA1C50EC
:103C600018BF00F5F0404FEA300018BF41F00041A6
:103C70005FEA6C5C00F02980BCF1FF3F08BF40F0B8
:103C800080407047130C06BF12044FF0100C4FF029
:103C9000000C130E04BF12020CF1080C130F04BF2A
:103CA00012010CF1040C930F04BF92000CF1020CF2
:103CB000D30F04BF52000CF1010C11464FF000026B
:103CC000A0F11F00A0EB0C00704711F0004F08BFDF
:103CD000704731F000413FF4D5AF0B0C06BF09042B
:103CE0004FF0100C4FF0000C0B0E04BF09020CF14A
:103CF000080C0B0F04BF09010CF1040C8B0F04BF5F
:103D000089000CF1020CCB0F04BF49000CF1010C2F
:103D1000CCF12003A0EB0C0022FA03F302FA0CF220
:103D200041EA030100F10100704720F07F4C80EA76
:103D3000030023F07F47ACEB070303F57C5300F04F
:103D4000004003F1FF032DE980494FEA154B09B408
:103D50004FEA144325EA0B4E24EA03480FF20426E7
:103D600006EB132749083E785FEA320203FB066739
:103D7000C7F5000707FB06F64FEA54374FEAD64669
:103D800006F1020607FB066CCCF1005C4FEA1C470B
:103D90002CEA074C07FB06F40CFB06F504EB154672
:103DA0004FEA961634BF00204FF000404FEAD1375B
:103DB00006FB07FC4FEA1C4C0CFB0BF7D21B03FB6A
:103DC0000CF761EB07010CFB0EF7B0EB074072EB51
:103DD00017420CFB08F734BFA2EB0742B2EB0742D5
:103DE00061EB17414FEA0C444FEA910706FB07FCD1
:103DF0004FEA1C4C0CFB0BF7B0EBC74072EB573291
:103E000003FB0CF734BFA2EBC742B2EBC74261EB36
:103E100057310CFB0EF7B0EBC70072EB57720CFB7F
:103E200008F734BFA2EBC702B2EBC70261EB5771D0
:103E3000039F4FEA816141EA921104EBCC044FEAFF
:103E4000D1374FEA826206FB07FC42EA90124FEA42
:103E500080604FEA1C4C0CFB0BF7D21B03FB0CF7EA
:103E600061EB07010CFB0EF7B0EB074072EB17425A
:103E70000CFB08F734BFA2EB0742B2EB074261EB41
:103E800017414FEA8C554FEA910704EB9C2406FB3F
:103E900007FC4FEA1C4C0CFB0BF7B0EBC74072EB76
:103EA000573203FB0CF734BFA2EBC742B2EBC74259
:103EB00061EB57310CFB0EF7B0EBC70072EB57729A
:103EC0000CFB08F734BFA2EBC702B2EBC70261EBF1
:103ED000577115EB4C254FEA816141EA92114FEA87
:103EE00082624FEAD13742EA901206FB07FC44F1A6
:103EF00000044FEA80604FEA1C4C0CFB0BF7D21B0E
:103F000003FB0CF761EB07010CFB0EF7B0EB07406E
:103F100072EB17420CFB08F734BFA2EB0742B2EB7F
:103F2000074261EB174115EB1C154FEA813141EA5D
:103F300092414FEA823242EA90424FEA80304FEAA1
:103F40000C7644F1000448EA03434EEA0B484FF074
:103F5000000EB2EB080C71EB030724BF6246394632
:103F60004EEB0E0E4FF0000B0018524149414BEB47
:103F70000B0BB2EB080C71EB03077BF1000B24BFBA
:103F8000624639464EEB0E0E4FF0000B00185241C0
:103F900049414BEB0B0BB2EB080C71EB03077BF1C8
:103FA000000B24BF624639464EEB0E0E51EA020763
:103FB00018BF46F0010616EB0E7655F1000254F1DB
:103FC000000103D5BDE88901BDE80088BDE889018D
:103FD000BDE80048B619524141EB0101A3F10103CC
:103FE000704780807F7E7D7C7B7A79787776767566
:103FF0007473727171706F6E6E6D6C6C6B6A6A69DE
:104000006868676666656464636362616160605F77
:104010005F5E5E5D5D5C5C5B5B5A5A5959585857F0
:104020005756565555555454535352525251515058
:1040300050504F4F4F4E4E4D4D4D4C4C4C4B4B4BAB
:104040004A4A4A49494948484847474747464646F1
:10405000454545444444444343434342424242412C
:104060004141000046EA0646A3F570534FEA164662
:1040700046EA42564FEAD22242EA415210B54FEA8E
:10408000D121A3F1010300F017F820F0004000F166
:10409000010C00F0004701EB00501146BCF5006F29
:1040A00040EA070000D210BD02484FF0000140EA8C
:1040B000070010BD0000F07F002B26D4770021D030
:1040C0001CB54FEA370703B44FF010004FF0100152
:1040D0004FF000000FBCBDE810400BF1010BBBF12D
:1040E000010F08BF5FEA170722BF12F1010211F1A9
:1040F00001014FF0004143F1000300F0004043EAAA
:1041000000007047F9D35708DAE746EA064613F18C
:10411000400F4FEA16461FDD13F1200FDFBF164395
:104120000A46002120335B42C8D0C3F1200746EA8B
:10413000064602FA07F74FEA164646EA0706C3F1B3
:10414000200722FA03F201FA07F721FA03F14FF0F0
:10415000000342EA0702B1E746EA020646EA0646DB
:104160004FEA164646EA0106BCBF46EA0646360C4A
:104170004FF000034FF000024FF000019EE72DE9E1
:10418000C048934630B491E8380007C831EA400C83
:1041900048BF34EA430C03D5FFF7C7FDFFF78CFF98
:1041A000F0BCBDE800882DE9C048934630B491E8E2
:1041B000380007C831EA400C48BF34EA430C03D545
:1041C000FFF7B3FDFFF74EFFF0BCBDE800882DE917
:1041D000C048934630B491E8380007C810F0804FCB
:1041E00008BF13F0804F03D100F019F8FFF764FF08
:1041F000F0BCBDE800882DE9C048934630B491E892
:10420000380007C810F0804F08BF13F0804F03D16B
:1042100000F005F8FFF726FFF0BCBDE8008820F0AD
:104220007F4780EA030023F07F4C07EB0C03A3F5E4
:104230007C5300F00040A3F1FE0392F0000F00F069
:10424000B38095F0000F00F077802DE901494FEA27
:1042500011404FEA144621EA004800FB06FC24EA1C
:10426000064708FB06F607FB08F800FB07F718EB04
:1042700006484CEB164C4FEA124B18EB07484FEA36
:1042800015464CEB174022EA0B4E0BFB06FC25EAC9
:1042900006470EFB06F607FB0EFE0BFB07F71EEBB1
:1042A000064E4CEB164C4FF000061EEB074E4CEB47
:1042B000174B18EB0B0840F1000018EB0E0B58EBF6
:1042C000000840F100008F1A4FF000013CBFC943C5
:1042D000661B14BFB5EB040C00213CBFC943F61BA1
:1042E0004FEA17444EEA8E0E27EA04454FEA1C4770
:1042F00004FB07622CEA074C05FB07F70CFB05F6ED
:1043000004FB0CFC16EB074642EB174216EB0C467F
:1043100042EB1C421BEB060658EB0202414146EA07
:104320009E0601D5BDE80189B619524141EB010154
:10433000A3F10103BDE801894FEA14454FEA114793
:1043400024EA054621EA074C05FB07F406FB07F7BC
:104350000CFB06F105FB0CFC11EB074144EB174489
:104360004FEA124711EB0C4144EB1C4422EA074C84
:1043700005FB07F206FB07F70CFB06F605FB0CFC3A
:1043800016EB074642EB174216EB0C4642EB1C4578
:104390006A1854F1000148BF7047B619524141EB09
:1043A0000101A3F10103704795F0000F37D04FEAE8
:1043B00011424FEA144721EA024624EA074C02FB65
:1043C00007F106FB07F70CFB06F402FB0CFC14EBF1
:1043D000074441EB17414FEA154714EB0C4441EBFE
:1043E0001C4125EA074C02FB07F506FB07F70CFB0F
:1043F00006F602FB0CFC16EB074645EB174516EBE1
:104400000C4645EB1C42121951F1000148BF7047A0
:10441000B619524141EB0101A3F1010370474FEA84
:1044200014454FEA114724EA054621EA074C05FBEB
:1044300007F106FB07F70CFB06F24FF0000605FB41
:104440000CFC12EB074241EB174112EB0C4251EB13
:104450001C4148BF7047921841EB0101A3F10103D1
:1044600070470029816802D041F0010101E021F08C
:1044700001018160704700000D4910B5884202D1EA
:10448000012144150AE00B49884202D1012104159B
:1044900004E0094988420AD10121CC03204608F0F2
:1044A000B7F92046BDE81040002108F0B1B910BDB1
:1044B0000024014000280140003C0140014600204A
:1044C0008968490700D501207047C06C80B27047E9
:1044D0000246002012680A4200D0012070470146BF
:1044E00000208968090700D50120704710B542688F
:1044F0000E4B0C791A400B6842EA042213434360C6
:1045000082680B4B1A40D1E9024323434C7942EABB
:10451000440213438360C26A097C22F47002491E7C
:10452000C9B242EA0151C16210BD0000FFFEF0FFB6
:10453000FDF7F1FF70B5072609290AD9C568A1F171
:104540000A0404EB4404A640B543A3401D43C560E0
:1045500007E0056901EB4104A640B543A3401D43B4
:1045600005611F23072A09D2446B521E02EB820207
:1045700093409C4391400C43446370BD0D2A09D283
:10458000046BD21F02EB820293409C4391400C4388
:10459000046370BDC46A0D3A02EB820293409C43EF
:1045A00091400C43C46270BD816841F00801816094
:1045B00070470029816802D041F4A00101E021F494
:1045C000A00181607047816841F0040181607047FB
:1045D00005490028086802D040F4000001E020F4FA
:1045E00000000860704700000824014010B5FF205B
:1045F00000F022F855280AD05521FF2000F04DF890
:10460000FF2000F019F8552801D0012010BD00202E
:1046100010BD01F0C1BF70B515460E46044608E056
:104620002046641CA4B200F007F86D1E06F8010BCA
:10463000ADB2002DF4D170BD10B5044602F04CF8B7
:10464000200AA02101EB4000C0B202F015F802F0F0
:1046500085F8E0B202F010F802F080F802F03CF8C1
:10466000A12002F009F802F079F8002001F0CEFF55
:10467000044602F051F8204610BD70B514460D46B0
:10468000064606E02978304600F007F8761CB6B2F8
:104690006D1C641EA4B2F5D270BD70B50D46044603
:1046A00002F01AF8200AA02101EB4000C0B201F08C
:1046B000E3FF02F053F8E0B201F0DEFF02F04EF843
:1046C000284601F0D9FF02F049F802F025F8BDE8CC
:1046D000704042F2107013F0BDBA000010B5012115
:1046E000CC0386B0204608F087F80121204608F068
:1046F0008FF80021204608F08BF8154C2046FFF774
:10470000BBFE00214FF46020CDE902018DF80410BA
:10471000012000918DF805108DF8100069462046A3
:10472000FFF7E4FE01212046FFF79BFE2046FFF73E
:104730003BFF2046FFF7D3FE0028FAD12046FFF7C3
:1047400042FF2046FFF7BAFE0028FAD106B010BD9E
:10475000003C014030B587B001214FF4017008F0F2
:104760004BF84FF4004008F019F80220ADF814009F
:1047700000248DF8174005A9174801F017FB174DC5
:104780002846FFF779FE4FF46020CDE902040120AE
:104790008DF804408DF8100000948DF805406946AE
:1047A0002846FFF7A3FE0120FFF712FF012128464C
:1047B000FFF757FE2846FFF7F7FE2846FFF78FFE64
:1047C0000028FAD12846FFF7FEFE2846FFF776FEBE
:1047D0000028FAD107B030BD000801400024014094
:1047E00038B50121082008F007F84FF48074ADF8BF
:1047F000004010208DF803000320064D8DF80200C4
:104800006946284601F0D2FA2146284601F04FFBBE
:1048100038BD0000000C014010B5012008F004F87C
:10482000BDE81040002007F0FFBF000008B50249B6
:1048300008440090008808BD006C004008B5024A9A
:1048400010440090016008BD006C004010B578B1C4
:104850004FF48054012805D002280FD110210120E7
:104860000AF0E4FA2146BDE8104002200AF096BAA8
:104870001021BDE8104001200AF0D8BA10BDC1B225
:10488000000A40EA0120704710B5604B0020604CE0
:10489000598803E05A68125C2254401C8842F9D3BC
:1048A0005B48626820301F294260A268826007D09E
:1048B0000220FFF7CBFF00202060607B1A2221E05E
:1048C000E17B282901D02A290AD1D4F81100227DC0
:1048D00000BA20F0FF0010439860E08A40BAD86028
:1048E0004C4A2068904252D14B4A607B12689042F9
:1048F00003D8A27B0AB1102A0DD90220FFF7A6FF28
:10490000607B242205210AF02BFB0021BDE810402A
:1049100001200AF005BB252958D01ADC152971D0D1
:104920000DDC08296ED005DCB9B3032936D0042983
:104930002DD163E00A2965D0122928D132E01A3935
:104940000A2924D2DFE801F03632235E3223232302
:10495000233E8A2956D00EDC552953D006DC28295F
:104960003CD02A2940D02F2911D143E05A2925D003
:1049700088290CD146E0A82944D004DC8F2941D0F5
:104980009E2904D13EE0AA293CD0AF293AD002208A
:10499000FFF75CFF607B2022B4E71BE0BDE810401E
:1049A00008F02ABEBDE8104008F044BDBDE8104044
:1049B00008F02EBEBDE8104008F076BDBDE81040FE
:1049C00008F06CBDBDE8104008F0E0BDBDE8104047
:1049D00008F0A4BDBDE8104008F01EBED3E90212E5
:1049E000BDE8104008F066BDD3E90212BDE81040F2
:1049F00008F048BEBDE8104008F02ABEBDE81040EF
:104A000008F000BDBDE8104008F02EBDF004002005
:104A100038DD002055534243580500202DE9F84F5A
:104A20000020ADF800004BF6BF7648F280084A4DF2
:104A30004A4C40F68F7ADFF8289148F60F7B494FB1
:104A40002FE0088810F00F0089F8000032D007EB43
:104A50008001D1F8002CADF80020BDF80020120430
:104A60000BD5D1F8002C02EA0A02C1F8002C3E490D
:104A700001EB800050F8040C8047BDF800000006F0
:104A80000FD599F8000007EB8001D1F8002C02EA5D
:104A90000B02C1F8002C354901EB800050F8040CE2
:104AA00080472D4844300068314908800004C8D44C
:104AB000BDE8F88F28682080208800F030006080F2
:104AC000208800F4405020802868304080F4005056
:104AD00080F0200040EA080028600888C00617D44B
:104AE000296801EA0B01296001F068FE28E02188AD
:104AF000890401D580F400506188C90628D46188F2
:104B0000890601D580F0200040EA08002860CFE740
:104B10002868ADF80000BDF80000000506D529683A
:104B200001EA0A0129600AF02DFA09E0BDF8000047
:104B30000004B6D5286800EA0A00286007F0BCFD2A
:104B4000286821883040C904D1D580F48050CEE750
:104B500080F01000D3E70000005C00401E0400203D
:104B60000C040020005000403C05002020050020DF
:104B70001C05002070B50F4C0025C4F884510E4868
:104B8000016821F0F0010160016841F0300101602D
:104B9000052004F5C27413F05DF80848C0F8A4516C
:104BA000052013F057F801202060052013F052F87B
:104BB000256070BD00802142041C0140008023421A
:104BC00038B50121882007F017FE0220ADF800005B
:104BD00010208DF8030003200B4C8DF8020069466D
:104BE000204601F0E3F80221204601F062F9074D6A
:104BF0006415ADF800406946284601F0D7F8214613
:104C0000284601F056F938BD000C0140001C014057
:104C100070B50F4C0026C4F884610E48016821F07D
:104C2000F0010160016841F030010160052004F5E8
:104C3000C27413F00FF808480125C0F8A4510520EC
:104C400013F008F82560052013F004F8266070BD05
:104C500000802142041C0140008023422DE9F047DE
:104C6000824618480024016821F0F00101600168C3
:104C700041F0800101601E2012F0ECFF0025124E71
:104C8000DFF848902F464FF00108C6F884710520E0
:104C900012F0E0FFC6F884816006040ED9F8240102
:104CA00008B1641CE4B26D1CEDB2082DEDD3BAF16D
:104CB000000F04D0FFF75EFF2046BDE8F087FFF746
:104CC000A7FFF9E7041C0140008021420080234235
:104CD0002DE9F04705461548016821F0F001016013
:104CE000016841F030010160114E0027C6F884715F
:104CF000052012F0AFFFDFF83C8000244FF00109DF
:104D0000E909C8F8A4116806050EC6F884910520C3
:104D100012F0A0FFC6F88471052012F09BFF641CFE
:104D2000E4B2082CECD3BDE8F0870000041C01407D
:104D3000008021420080234270B50F48016821F0B5
:104D4000F0010160016841F0300101600B4E01206B
:104D5000C6F8A4010A4DC5F884011E2005F5C275E8
:104D600006F5D27612F076FF00243460052012F0AA
:104D700071FF2C6070BD0000041C014000802342C4
:104D80000080214270B50D48016821F0F0010160FA
:104D9000016841F03001016009480125C0F88451E3
:104DA0001E2012F057FF074C0020C4F8A401052074
:104DB00004F5D27412F04EFF256070BD041C014052
:104DC000008021420080234270B51248002401680F
:104DD00021F0F0010160016841F0800101600E4D99
:104DE0000120C5F8A4010D4EC6F8840107E0641C3B
:104DF000E4B2FA2C03D9FFF7C5FF012070BD0520EE
:104E000012F028FFD5F824010028F0D1C6F884015B
:104E100070BD0000041C014000802342008021423C
:104E2000810008480844D0F8001C490409D5D0F88E
:104E3000001C48F68F7211404CF280021143C0F8FA
:104E4000001C704700500040810008480844D0F81A
:104E5000001C490609D5D0F8001C48F68F72114095
:104E600048F2C0021143C0F8001C704700500040D7
:104E7000810006480844D0F8001C48F68F621140B3
:104E800048F280021143C0F8001C704700500040F7
:104E900070B500254FF4803405E0802008F0B0FCA8
:104EA00008B144B101E0641EF7D240F2FF5008F0AF
:104EB00063FC284670BD032070BD000070B5124C25
:104EC0000546616B11F0450FFBD0042008F098FCFB
:104ED00020B1042008F050FC032070BD012008F030
:104EE0008FFC20B1012008F047FC012070BD206933
:104EF000A84201D0102070BD40F2FF50A06360694D
:104F000000F0080070BD00000080014010B50024D2
:104F10004FF480310E4809E0426B12F0450F05D086
:104F200009B1500705D5032404200CE0491EF3D233
:104F3000F7E7012008F064FC18B10124204608F0CE
:104F40001BFC40F2FF5008F017FC204610BD00008B
:104F50000080014010B50A49486B10F0450FFBD0A6
:104F6000042008F04DFC20B1042008F005FC0320CB
:104F700010BD40F2FF5008F0FFFB002010BD000004
:104F8000008001402DE9F0411B4C0E4607460025EC
:104F9000606B10F0450FFBD0042008F031FC28B105
:104FA000042008F0E9FB0320BDE8F081012008F0AF
:104FB00027FC20B1012008F0DFFB0120F4E7206985
:104FC000B84210D140F2FF5008F0D6FB626912F4EB
:104FD000604F03D0900404D51320E5E7100C308017
:104FE00007E0500401D51020DEE7100401D50F20A2
:104FF000DAE72846D8E700000080014010B5002419
:105000004FF480320B4809E0416B11F0450F05D099
:105010000AB1480705D50324042006E0521EF3D246
:10502000F7E7480603D50024402008F0A5FB2046FA
:1050300010BD0000008001400029016802D041F04D
:10504000010102E04FF6FE7211400160704700005E
:1050500001684FF6FE72114001600021016041605D
:105060008160C1603149314A0839904203D14868B2
:1050700040F00F0006E02D4A1432904204D14868F7
:1050800040F0F00048607047284A2832904203D12F
:10509000486840F47060F5E7244A3C32904203D1FE
:1050A000486840F47040EDE7204A5032904203D106
:1050B000486840F47020E5E71C4A6432904203D10E
:1050C000486840F47000DDE7184A7832904203D116
:1050D000486840F07060D5E7154A111F904203D12F
:1050E000086840F00F0006E0114A1432904204D1E3
:1050F000086840F0F000086070470D4A283290427E
:1051000003D1086840F47060F5E7094A3C329042E8
:1051100003D1086840F47040EDE7054A50329042F0
:10512000EAD1086840F47020E5E70000080002407A
:105130000804024030B5026847F6F0739A430C6ADF
:105140008B682343D1E904452C4323438C692343D3
:10515000CC6923434C6A23438C6A23431343036083
:10516000CA6842600A6882604968C16030BD000058
:1051700070B516480024416821F4704141604168CF
:1051800041F400414160124D04E0641CE4B201208E
:1051900012F060FDD5F82C0110B1C82CF5D30DE04C
:1051A000C82C0BD2002404E0641CE4B2012012F0ED
:1051B00051FDD5F82C0118B1F02C04D3012070BD9D
:1051C000F02CF1D3FAE7002070BD00000020014070
:1051D0000000244270B500F0ABF800F089F8FFF74A
:1051E000C7FFCC2000F0B2F8BE2000F0AFF800F00E
:1051F0006FF8044600F06CF8072805D9C043E14376
:10520000C0B2CCB2002500E0012504EB002000B2C2
:105210002AF0C5FE0022054B2AF028FF2AF062FE84
:1052200000B2002D01D1404200B270BD0000E43F49
:1052300038B50121080207F0DFFA4FF40064ADF839
:10524000004010208DF803000320084D8DF8020067
:105250006946284600F0AAFD2146284600F029FEAE
:1052600000F046F8FFF784FF38BD00000020014041
:1052700070B5154C606820F470406060606840F460
:1052800040506060114D0020C5F8AC01022005F5CA
:10529000D67512F0DFFC01202860606820F47040B1
:1052A0006060606840F4004060600C2012F0D2FC46
:1052B00055F8800C08B1012400E00024322012F0DF
:1052C000C9FC204670BD00000020014000002442BF
:1052D00070B500250124FFF7CBFFC001641C40EA34
:1052E0005500E4B2C5B2082CF5D9284670BD0000BF
:1052F0000D4810B5416821F470414160416841F4A6
:1053000040514160094C0020C4F8AC0140F2EE204D
:1053100004F5D67412F09EFC01202060BDE8104018
:105320000F2012F097BC0000002001400000244232
:1053300010B5FFF7DDFFFFF71BFFCC2000F006F8EC
:10534000BDE81040442000F001B800002DE9F04114
:1053500005461448416821F470414160416841F4B8
:10536000405141600124104E0027A04615F0010F66
:105370004FEA5505C6F8AC7106D0022012F06AFC5F
:10538000C6F8AC813C2005E03C2012F063FCC6F876
:10539000AC81022012F05EFC641CE4B2082CE5D95A
:1053A000BDE8F08100200140000024422DE9F047D3
:1053B000DFF89490254F4FF03008D9F8001001F134
:1053C0001005088A0E7A08B9042E04D0AC88A042D1
:1053D00015D8042614E01E480178012903D00726B9
:1053E000102038802BE01B4A002112681A4B12044F
:1053F00003EBD2325160A7F8008001701FE0022653
:10540000844200D90446A968204688478246002085
:1054100000F052FF0146224650460BF085FD214622
:10542000002009F0F5FC2888001B288068882044AB
:105430006880A7F8008009494FF440500880D9F8E7
:1054400000000672BDE8F087100400202004002050
:1054500008040020505C0040006000401E04002052
:105460002DE9F047224EDFF88C803027346834F87D
:10547000100FA168A9B100B3A588854200D90546DF
:105480002846884781462088401B20806088284421
:105490006080002000F0E4FE01462A46484607F0FE
:1054A0002FF9208848B114494FF44050088000215A
:1054B000084609F0ADFCA8F800702088A188884251
:1054C00001D3032001E020B1052031680872BDE856
:1054D000F087316806200872084900200968084AE8
:1054E000090402EBD1314860A8F80070EFE7000032
:1054F00010040020200400201E040020505C004006
:1055000000600040F8B55D4C5D4D0926206800271D
:1055100029684278062A05D0AAB1082A4DD00A2A5D
:1055200050D06BE00278520668D18078012804D010
:10553000022804D0032804D060E0C96956E0096A53
:1055400054E0496A52E04288B2BBC288022A55D16F
:1055500002798ABB0278530601D1838833B102F005
:105560007F02012A04D0022A0CD047E045493DE0E1
:105570008A69407900219047F0B92068807A002834
:10558000F4D13BE0417901F00F0001F070020B060D
:105590003D4901EB8001D1F8001C03D5C1F3011195
:1055A000090102E0C1F301310903384B1B78834242
:1055B00024D90AB90029D9D120E0007840061DD1AC
:1055C000334913E0027802F07F02012A16D1827A71
:1055D000A2B1428892B9027982B9C288012A0DD15A
:1055E0008A6940790021904740B92A4931B1206841
:1055F0004782816100208847002006E029682068F2
:10560000096940788847032813D021680A8AA2F5DF
:105610007F43FF3B0BD002280ED06AB1087800060A
:1056200026D5C888009082420AD9088218E00E72F6
:10563000F8BD20680672F8BD4FF008000872F8BD8A
:105640000ED22868144B90F82C00824201D21F70B1
:1056500006E0B2FBF0F400FB142008B9012018703A
:10566000286890F82C008882BDE8F840FFF79EBEBD
:1056700003200872094900030880F8BD10040020C7
:1056800014040020A9F2000800500040C4050020C6
:105690003DF2000881F20008080400201E040020EA
:1056A00005F0DABB05F018BC10B50A2012F0B0FA0C
:1056B0000121094800F0F4FB012806D10749D1F87F
:1056C000A00138B10020C1F8A001BDE810400120C0
:1056D00000F0AAB80120F6E700080140008021424E
:1056E00010B50A2012F094FA0421094800F0D8FB02
:1056F00030B90849D1F8940138B10020C1F89401BB
:10570000BDE81040042000F08FB80120F6E700004B
:10571000001801400080214210B50A2012F078FAEA
:105720000821094800F0BCFB30B90849D1F89401C0
:1057300038B10020C1F89401BDE81040082000F005
:1057400073B80120F6E70000001801400000234272
:1057500010B50A2012F05CFA10210D4800F0A0FBF1
:1057600068B90C49D1F8940170B10020C1F89401D6
:105770000949D1F8940148B10020C1F89401BDE86D
:105780001040102000F050B80120EFE70120F4E7AE
:105790000018014000802142000023423EB54FF432
:1057A0008070002400908DF8044008208DF80500DA
:1057B00001258DF80650684600F03CF817208DF85A
:1057C00008008DF809408DF80A408DF80B5002A8AA
:1057D00005F07AFD3EBD000010B505F081FE0E48D3
:1057E0000068C0050AD54FF4807000F01DF80B4921
:1057F0000B4A00200B782BB1C2F88C01BDE8104099
:1058000005F07ABE074BC3F898010120C3F8980150
:10581000C2F88C010870F1E7140401401600002062
:105820000080214200802242014908607047000048
:105830001404014030B51A4A8379016853B31368E0
:105840008B431360111D0B680468A3430B6001793F
:1058500011440B68046823430B60114B083319682B
:105860000468A14319601C1D21680568A9432160D3
:105870004179102905D011440A68006802430A6082
:1058800030BD19680268114319602168006801433E
:10589000216030BD0079104402688A43026030BD47
:1058A0000004014010B503A0FCF710FC08490320D8
:1058B000086010BD75736220656E746572206C6F30
:1058C0007720706F776572206D6F64650D0A000038
:1058D000EC0500208000A0F1C0400029016802D042
:1058E00041F0010101E0024A1140016070470000EF
:1058F000FEFF0F0010B5D0E901121143D0E90323D8
:105900001A4311434269114382691143C269114329
:10591000026A1143426A1143826A1143C26A114307
:10592000026B114302689200A2F1C04211608168CB
:10593000082907D101688900A1F1C0410A6842F035
:1059400040020A60416BD1E9002342EA03128B68EE
:105950008C891B0243EA04431A430B8A42EA03522E
:105960000B7D896942EA03620A4301688900A1F15B
:10597000C0414A60C16AB1F5804F08D000686FF03D
:1059800070418000A0F1C040C0F8041110BD816BCF
:10599000D1E9002342EA03128B680C8A1B0243EA16
:1059A00004531A430B7D896942EA036200680A4383
:1059B0008000A0F1C040C0F8042110BD7CB50121D9
:1059C000802006F019FF4FF40060ADF804001020AD
:1059D0008DF8070003202D4D8DF8060001A92846FB
:1059E00000F0E4F90221284600F063FA2C15ADF826
:1059F000044048228DF8072001A9284600F0D6F976
:105A00002146284600F055FAFFF7DAF8204D002429
:105A1000C5F8AC41142005F5D67512F0F9F801204F
:105A20002860322012F0F4F88DF800400122694617
:105A3000002000F0FBF801226946A42000F0F6F8EF
:105A400016208DF8000001226946802000F0EEF853
:105A50000C208DF8000001226946882000F0E6F84D
:105A600002226946A12000F01BF89DF800003028B2
:105A700003D19DF80100032801D001207CBD43F231
:105A8000030104A0FCF722FB00207CBD001C0140A8
:105A9000008023424354502049443A25780D0A009F
:105AA0002DE9F04115460F460446FFF745F97020F1
:105AB000FFF70EF9FFF788F9E0B2FFF709F9FFF7F2
:105AC00083F9FFF739F97120FFF702F9FFF77CF945
:105AD00000246E1E09E0B44201D0012000E0002045
