:020000040800F2
:1000000060040020450100080B050008AD0300084E
:10001000090500088D0100086D05000800000000BA
:100020000000000000000000000000000F050008B4
:100030008F010008000000000D05000811050008F0
:100040005F0100085F0100085F0100085F01000810
:100050005F0100085F0100085F0100085F01000800
:100060005F0100085F0100085F0100085F010008F0
:100070005F0100085F0100085F0100085F010008E0
:100080005F0100085F0100085F0100085F010008D0
:100090005F0100085F0100085F0100085F010008C0
:1000A0005F0100085F0100085F0100085F010008B0
:1000B0005F0100085F0100085F0100085F010008A0
:1000C0005F0100085F0100085F0100085F01000890
:1000D0005F0100085F0100085F0100085F01000880
:1000E0005F0100085F0100085F0100085F01000870
:1000F0005F0100085F0100085F0100085F01000860
:100100005F0100085F0100085F0100085F0100084F
:100110005F0100085F0100085F0100085F0100083F
:100120005F0100085F0100085F0100085F0100082F
:10013000DFF80CD000F018F80048004771050008FF
:10014000600400200648804706480047FEE7FEE7B7
:10015000FEE7FEE7FEE7FEE7FEE7FEE7FEE7FEE777
:100160002105000831010008064C074D06E0E06853
:1001700040F0010394E8070098471034AC42F6D3EE
:10018000FFF7DAFF280A0008480A0008FEE7704770
:1001900042F22831414383484160002181600121BE
:1001A0000160016801F001110129FAD0002101600C
:1001B00081607047F8B5D94F06463C6897F8410012
:1001C00020283DD15E4D01211922234605F57020DE
:1001D00000F006F9A0BB97F84000012830D00120BC
:1001E00087F8400078680168C90703D1016841F0C9
:1001F000010101600168A5F1021221F400610160B2
:10020000212187F84110102187F8421000217964DC
:100210000421F985F98D3A63BE62B985396B11F510
:10022000803F18BF012961D1016841F480710160EC
:100230004FF0011000216422234600F0D1F800B1F4
:10024000F8BD7869B0F5804F08D07868F021016179
:10025000A81D214600F0ECF80028F1D178684E2165
:1002600001612846214600F0E3F80028E8D100208B
:100270000090786841690091816900910099B98D79
:1002800000294FD04169090609D400F091F80028EF
:100290003FD13868001B64282ED87868F2E7B96A25
:1002A0000A4612F8013B0361FB8D013BFB85BA62F4
:1002B000BA8D551EBD852D04436918BF13F0040384
:1002C00008D04B7802310361B962911EB985F98D6E
:1002D0000139F98541694907D1D400F069F8C0B9FD
:1002E0003868001B642807D87868F3E708299BD092
:1002F000796B122998D09BE700202021786387F83A
:10030000411087F8420087F84000786C40F02000E8
:100310007864786C042893D17868016841F400719E
:100320000160F8BD016841F400710160202087F888
:100330004100002087F8400087F84200F8BD00BF68
:1003400002000100B0B516494FF47A734A68B2FB57
:10035000F3F20023013AB3EB126F1FD1114CF025D9
:100360000F286260104AD575A3604FF00703236021
:1003700014D813684FF0FF35C3F30223DC1E83F05B
:10038000070338BF0024042B28BF042305FA03F316
:1003900020EA0303A3401B01D3750860B0BD00BF72
:1003A0000000002010E000E00CED00E0FEE700009F
:1003B0005A494A68506940054FF000000FD56FF464
:1003C000806353612022486381F8412081F8420014
:1003D00081F84000486C40F00400486401207047F8
:1003E000F0B500F47F04182580B2B4F5803F4B4C83
:1003F00008BF14256668775907403F1AB7FA87F790
:100400007F098F4212D12768FF1A9742F3D9002043
:100410002021606384F8411084F8420084F8400091
:10042000606C40F0200060640120F0BD0020F0BD51
:10043000B0B53A4A84B200F47F005368B0F5803F0B
:100440000CBF5D699D692540A54213D05D696D05AE
:1004500012D415686D1A652DF0D300202021506349
:1004600082F8411082F8420082F84000506C40F05F
:10047000200014E00020B0BD1868202140F4007076
:1004800018606FF4806058610020506382F841105A
:1004900082F8420082F84000506C40F00400506442
:1004A0000120B0BDE0B5010100F0F00001F108024B
:1004B0000C318DF8061000F108010C308DF8072082
:1004C0008DF8040001A88DF80510FFF773FE8CBDB0
:1004D000BCB5044601AD2078A8B1010100F0F000E0
:1004E00001F109020D318DF8061000F109010D30FE
:1004F0008DF807208DF8040028468DF80510FFF7C9
:1005000059FE0134E7E7BCBDFEE77047704770470E
:100510000248016801310160704700BF08000020F7
:100520000E480F4A016841F0010101604168114025
:100530000C4A4160016811400160016821F480218A
:100540000160416821F4FE0141604FF41F018160A8
:1005500005484FF000610160704700BF0010024085
:100560000000FFF8FFFFF6FE08ED00E0FEE70000E8
:1005700082B0D94E4FF6FF02306840F01000306074
:10058000D64801681140D64A114301600020FFF7A8
:10059000D9FED44C0222606940F0010060616069BC
:1005A00000F0010001900198A06940F08050A06126
:1005B000A06900F0805001900198CB48016862F377
:1005C0001A610160206800F00C00042808D154F87A
:1005D000040C206800F00C0008281AD120683BE0C9
:1005E000206800F00C00082802D12068C003EED477
:1005F00054F8040C40F4803044F8040CE5480168D9
:1006000054F8042C9203E4D40268521A642AF7D9ED
:1006100022E0E14900200860DE48026854F8043C0A
:100620009B0104D503689B1A022BF7D914E02268BA
:1006300022F400322260226822F4741202F5E812D9
:10064000226001220A60016854F8042C920103D44C
:100650000268521A022AF7D93068D04D10F0060FFE
:1006600009D13068022161F302003060306800F087
:10067000070002285CD1206840F4E0602060206818
:1006800040F460502060206820F0F000206054F8B2
:10069000040C80014CD52068022141F2883261F3BC
:1006A00001002060BB480168236803F00C03082B9D
:1006B00004D003685B1A9342F6D939E0306800F041
:1006C0000700032809D33068022161F3020030607B
:1006D000306800F0070002282AD12068042161F365
:1006E0000A202060206820F460502060AC48216817
:1006F00001F00C02082A10D1C1F38342A9A3C90357
:100700009A5C02D402FB05F007E021685043A9A2DD
:10071000C1F34041515CB0FBF1F02168A6A2C1F3E6
:100720000311515CC840A84948600868FFF70AFEF9
:100730006069A64FDFF85CC2A54E4FF480410022ED
:1007400040F004003B466061606900F004000190E5
:100750000198606940F008006061CCF81410CCE9A1
:100760000322CCF80870CCF804606169CCE9062259
:10077000CCE9082201F00801019101999CF841108F
:10078000C1BB8CF840209348BA46B046A946012721
:100790004FF00F0E00266169834641F00801616148
:1007A000616901F00801019101990021082913D024
:1007B00007FA01F010F0C00F0BD030465B46082955
:1007C00028BF203828BF04331D680EFA00F02843E4
:1007D000186004360131E9E7A06946464D465746A0
:1007E00040F40010A061A06900F40010019001988D
:1007F000DCF8083024208CF84100306820F001003B
:10080000306071484068216873A4C1F30221615CC3
:1008100020FA01F47248791C84424FF0000038BF7E
:100820000120A54288BF01228B4238BF0246002A20
:1008300040F090806B488B42B4FBF0F2706820F07F
:100840003F0040EA02007060306A20F03F0512D29B
:10085000501C611E4CF6FF72284330625800B1FBF9
:10086000F0F0411C6FF31F31042998BF0421F06997
:1008700020EA020243E04FF496704FF47A71013C93
:100880005043B0FBF1F04CF6FF7101302843306269
:10089000F06920EA0102DCF80C1041B1192058433C
:1008A000B4FBF0F0451C042060F31F3506E003EBB9
:1008B0004300B4FBF0F0451C6FF31F35280509D049
:1008C000A1B119205843B4FBF0F0411C042060F39F
:1008D0001F3112E0012112E0002002400CED00E087
:1008E0000003FA05041002400400014003EB43003A
:1008F000B4FBF0F0411C6FF31F3141F4004141EAB9
:1009000002000CF11004F061DCF82000316821F0E5
:10091000C0010843DCF82410084348F2FF3130607E
:10092000B06888431ECC104308432021B060F068B3
:1009300020F0FF0018432043F060306840F00100D1
:1009400030600020CCF844008CF84110CCF8340022
:100950008CF84200244C2820A047244D0120A847B1
:100960000820A0470120A8470120A0470120A84750
:100970000620A0470120A8470C20A0471CA0FFF795
:10098000A7FD4FF47A70A847C020A0471BA0FFF72F
:100990009FFDFEE7080000206000424200093D0084
:1009A00000127A0002030405060708090A0B0C0D61
:1009B0000E0F1010010200000000000000000000F7
:1009C000010203040607080900000020A0860100B8
:1009D00000540040000C014000000000010203042C
:1009E00080841E0040420F00A50400089101000809
:1009F00048454C4C4F20574F524C44004D656E209B
:100A0000597568616E00000002E008C8121F08C135
:100A1000002AFAD170477047002001E001C1121F7F
:100A2000002AFBD170470000480A0008000000209F
:100A300008000000080A0008500A0008080000200A
:100A400058040000180A0008100000000024F400F8
:0400000508000131BD
:00000001FF
