:020000040800F2
:100000001804002045010008610900085D09000886
:100010005F0900088D010008010A000800000000C7
:10002000000000000000000000000000650900085A
:100030008F0100080000000063090008670900083C
:100040005F0100085F0100085F0100085F01000810
:100050005F0100085F0100085F0100085F01000800
:100060005F0100085F0100085F0100085F010008F0
:100070005F0100085F0100085F0100085F010008E0
:100080005F0100085F0100085F0100085F010008D0
:100090005F0100085F0100085F0100085F010008C0
:1000A0005F0100085F0100085F0100085F010008B0
:1000B0005F0100085F0100085F0100085F010008A0
:1000C0005F0100085F0100085F0100085F01000890
:1000D0005F0100085F0100085F0100085F01000880
:1000E0005F0100085F0100085F0100085F01000870
:1000F0005F0100085F0100085F0100085F01000860
:100100005F0100085F0100085F0100085F0100084F
:100110005F0100085F0100085F0100085F0100083F
:100120005F0100085F0100085F0100085F0100082F
:10013000DFF80CD000F018F800480047290A000842
:10014000180400200648804706480047FEE7FEE7FF
:10015000FEE7FEE7FEE7FEE7FEE7FEE7FEE7FEE777
:10016000B509000831010008064C074D06E0E068BB
:1001700040F0010394E8070098471034AC42F6D3EE
:10018000FFF7DAFF240B0008440B0008FEE7704776
:1001900042F228314143074841600021816001213A
:1001A0000160016801F001110129FAD0002101600C
:1001B0008160704710E000E02DE9FC4F81465B480C
:1001C00006235C4E4FF0000B4FF001084FF00F0E6E
:1001D0004FF0000A8145564808BF052348444FEABE
:1001E000B022052A4FF0000238BF4FEAB023009337
:1001F0000C6834FA02F508BFBDE8FC8F08FA02F576
:100200002C4200F08F804F68032F16D9112F26D073
:10021000122F28D04948874213D04948874210D02E
:10022000484887420DD0484887420AD0474887420D
:1002300007D04748874204D022E0DFE807F00218E1
:100240001B1F8C6844B1012C14BFC9F81450C9F8A5
:1002500010504FF0080A13E04FF0040A10E0CC6889
:1002600004F1040A0CE0CC6804F10C0A08E0D1F8AF
:100270000CA005E0CC6804F1080A01E04FF0000A88
:100280005C464846082A334628BF203C28BF043035
:1002900006680EFA04F70AFA04F4BE433443046015
:1002A000C879C00601D41E463CE05A4C22F0030631
:1002B0001E44206840F001002060206800F001002A
:1002C00001900BF00C00019F0EFA00F4214FBC4688
:1002D000F75927EA0404009F07FA00F0204346F884
:1002E0000C001E464F68F803186854BF20EA050446
:1002F00040EA05041C60104BB803706854BF20EA44
:10030000050440EA05047460F802B06854BF20EAAE
:10031000050440EA0504B460B802186854BFA84355
:10032000284318600BF1040B013261E7001C014007
:1003300000F8FEBF000401400C0401400000111051
:1003400000001210000021100000221000003110E7
:100350000000321008FCFFFF002A08BF09040161F9
:100360007047000005480068704700BF1A480349FD
:1003700000780A6810440860704700BF1000002031
:1003800080B58748016841F010010160032000F04A
:1003900061F8002000F004F800F020F8002080BD93
:1003A00070B50D4E04464FF47A713078B1FBF0F021
:1003B0007D490968B1FBF0F000F0BCFA01250F2C73
:1003C00008D838B94FF0FF3021460022002500F050
:1003D00025F87460284670BD0000002082B00D48EA
:1003E0000222016841F001010160016801F0010190
:1003F00001910199416841F080514160406800F0ED
:100400008050009000980448016862F31A6101600E
:1004100002B07047181002400400014070B5134B41
:100420004FF0FF351B68C3F30223DC1E83F0070384
:1004300038BF0024042B28BF042305FA04F605FA6C
:1004400003F3B2439943A1401143BDE8704000F06B
:10045000D9BA00BF05494FF6FF030A681A4060F396
:100460000A22034810430860704700BF0CED00E00B
:100470000000FA052DE9F84300286AD0884648496B
:100480000446086800F0070040450AD2086820F0DA
:10049000070040EA08000860086800F007004045CF
:1004A00057D120684F4B8946810711D5410703D5A5
:1004B000196841F4E0611960010703D5196841F436
:1004C00060511960A1681A6822F0F00211431960A6
:1004D000C00737D1D9F8000000F0070040450DD91A
:1004E000D9F8000020F0070040EA0800C9F8000031
:1004F000D9F8000000F0070040452AD120684107E4
:1005000005D5E1681A6822F4E0621143196000071A
:1005100006D52069196821F4605141EAC0001860CD
:100520001C4600F045F821681E4AC1F30311515CD6
:10053000C8401D4908601D480068FFF731FF0020D2
:10054000BDE8F8836068012806D153F8041C8903CC
:100550000BD40120BDE8F88353F8041C022802D113
:100560008901F6D501E08907F3D519681D4621F008
:10057000030108431860FFF7F5FE064641F288378D
:10058000606829682B4601F00C01B1EB800FA1D007
:10059000FFF7E8FE801BB842F2D90320BDE8F883DC
:1005A00000200240120B0008080000200400002078
:1005B00010B50C490C480A6802F00C03082B07D14F
:1005C000C2F3834309A4D203E35C02D40C4858432A
:1005D00010BD096809A25843C1F34041515CB0FB0A
:1005E000F1F010BD0410024000127A00020304056D
:1005F000060708090A0B0C0D0E0F1010010200006F
:1006000000093D002DE9FC41002800F0A6800446C9
:100610000078F74EC00725D0706800F00C00042861
:100620001AD0706800F00C00082802D17068C0036E
:1006300012D46068002800F00C81B0F5803F07D02C
:100640003168B0F5A02F40F0388141F4802030604F
:10065000306840F4803036E13068800302D560684D
:1006600000287AD02078800718D5706810F00C0F19
:1006700007D0706800F00C00082824D17068C0030F
:1006800021D43068800702D52069012865D16069CE
:10069000316821F0F80141EAC0003060207800079D
:1006A00041D5A06910B3A0480121C0F88014FFF71C
:1006B00059FE0546706A800728D4FFF753FE401B99
:1006C0000228F7D90CE121699748002900F09A80A7
:1006D00001210160FFF746FE054630688007D6D449
:1006E000FFF740FE401B0228F7D9F9E08E480021B1
:1006F000C0F88014FFF736FE0546706A800712D5F1
:10070000FFF730FE401B0228F7D9E9E087484FF495
:10071000FA510068B0FBF1F0019000BF0198411E52
:1007200000280191F9D12078400719D4E7698FB1E9
:10073000706800F00C00082845D1012F0DD0216A07
:10074000706800F480328A4207D1616A00F4701048
:10075000884202D10020BDE8FC810120BDE8FC8177
:10076000F069C0000BD4F0694FF0010840F08050F0
:10077000F061F06900F080500090009801E04FF0C7
:1007800000086B4F3868C0050FD4386840F480709B
:100790003860FFF7E7FD05463868C00505D4FFF768
:1007A000E1FD401B6428F7D99AE0E068D0B3012846
:1007B00005D0316A052862D141F004003062306A08
:1007C00040F0010061E05849002088460866FFF7C4
:1007D000C9FD0546022F0BD147463068800140F124
:1007E0008280FFF7BFFD411B03200229F5D9B2E744
:1007F00030688001AED5FFF7B5FD411B032002290B
:10080000F6D9A8E700210160FFF7ACFD0546306886
:1008100080077FF543AFFFF7A5FD411B03200229A9
:10082000F5D998E7306A20F001003062306A20F094
:1008300004003062FFF796FD054641F28837306AC2
:10084000800731D5FFF78EFD411B0320B942F6D951
:1008500081E7306820F480303060306820F48020F8
:100860003060FFF77FFD0546306880037FF5FAAE04
:10087000FFF778FD411B03206429F5D96BE721F0D0
:1008800001003062306A20F004003062FFF76AFD38
:10089000054641F28837306A800705D4FFF762FDCC
:1008A000401BB842F7D91BE0B8F1000F3FF43EAF50
:1008B000F06920F08050F06138E721F4803030603A
:1008C000306820F480203060FFF74CFD054630682A
:1008D00080033FF5C7AEFFF745FD401B6428F6D9FE
:1008E0000320BDE8FC81206AB0F5803F05D1A168F6
:1008F000726822F4003211437160616A08437168C2
:1009000021F474110843706001203866FFF72AFD56
:100910000446306880013FF51DAFFFF723FD011B42
:1009200003200229F5D916E7000042420800002002
:1009300000700040411E0020B0EB116F1CBF012071
:100940007047044AF023516003490B7007219060FF
:100950001160704710E000E023ED00E0FEE7FEE7E5
:10096000704770477047FFF701BDB0B590B00024E5
:100970004FF4E0100225CDE90B44CDE909440F9076
:100980004FF480300D950E90CDE9070401200690BC
:100990000A9006A8FFF736FE4FF480600594022106
:1009A00004900F20CDE90254019001A8FFF762FDE9
:1009B00010B0B0BD0E480F4A016841F0010101605E
:1009C000416811400C4A41600168114001600168B2
:1009D00021F480210160416821F4FE0141604FF45F
:1009E0001F01816005484FF000610160704700BF42
:1009F000001002400000FFF8FFFFF6FE08ED00E0E7
:100A0000FEE7000010B5074C00F00F03044AB0F1F8
:100A1000FF3F2344C8BF83180801187010BD00BFF2
:100A200000E400E014ED00E084B0FFF7A9FCFFF75C
:100A30009CFF2D482D4C00224FF020084FF000095C
:100A4000016804F5406541F040010160016801F072
:100A5000400100910099016841F0040101600168C2
:100A600001F0040100910099016841F00801016062
:100A70002021006800F00800009000982846FFF749
:100A80006BFC204620210022FFF766FC6E464FF0EB
:100A9000020A012728463146CDE9029ACDE90087AE
:100AA000FFF78AFB20463146CDE9029ACDE900875F
:100AB000FFF782FB0E4E204620210022B047284639
:100AC00020210122B0474FF4FA70FFF761FB204666
:100AD00020210122B047284620210022B0474FF4B0
:100AE000FA70FFF755FBE6E718100240000C0140D2
:100AF0005903000802E008C8121F08C1002AFAD1F1
:100B000070477047002001E001C1121F002AFBD18D
:100B10007047000000000000000001020304060707
:100B200008090000480B0008000000201000000029
:100B3000F40A0008580B0008100000200804000008
:100B4000040B00080000000001000000100000007D
:080B50000024F4000000000085
:0400000508000131BD
:00000001FF
