:020000040800F2
:10000000E0C600201502000815640008211A000847
:100010001164000809070008359800080000000076
:100020000000000000000000000000005D890008E2
:10003000A5140008000000004D6600089992000811
:100040002F0200082F0200082F0200082F020008CC
:100050002F0200082F0200082F0200082F020008BC
:100060002F0200082F0200082F0200082F020008AC
:100070002F0200082F0200082F0200082F0200089C
:100080002F0200082F0200082F0200082F0200088C
:10009000359700082F0200082F0200082F020008E1
:1000A0002F0200082F0200082F0200082F0200086C
:1000B0002F0200082F0200082F0200082F0200085C
:1000C0002F0200082F0200082F0200082F0200084C
:1000D0002F020008359300082F0200082F020008A5
:1000E0002F0200082F020008579500082F02000871
:1000F0002F0200082F0200082F0200082F0200081C
:100100002F020008F96F00082F0200082F020008D4
:100110002F0200082F0200082F0200082F020008FB
:100120002F0200082F0200082F0200082F020008EB
:1001300000F002F800F05FF80AA090E8000C82449A
:100140008344AAF10107DA4501D100F054F8AFF277
:10015000090EBAE80F0013F0010F18BFFB1A43F0A5
:10016000010318470CBE00002CBE00000A444FF0EB
:10017000000C10F8013B13F0070408BF10F8014B06
:100180001D1108BF10F8015B641E05D010F8016B4B
:10019000641E01F8016BF9D113F0080F1EBF10F8AF
:1001A000014BAD1C0C1B09D16D1E58BF01F801CBD2
:1001B000FAD505E014F8016B01F8016B6D1EF9D555
:1001C0009142D6D37047000000230024002500266A
:1001D000103A28BF78C1FBD8520728BF30C148BFAA
:1001E0000B607047782900F01181002070471FB51F
:1001F0001FBD10B510BD00F037FA1146FFF7F7FF2D
:1002000009F000FE00F055FA03B4FFF7F2FF03BC5B
:1002100009F070FD0948804709480047FEE7FEE7FE
:10022000FEE7FEE7FEE7FEE7FEE7FEE7FEE7FEE7A6
:1002300004480549054A064B704700009D92000896
:1002400031010008E0C00020E0C60020E0C200202C
:10025000E0C20020704753EA020C00F069802DE9EB
:10026000F04B4FF00006002B1FBFB3FA83F503FAE3
:1002700005F424FA05F65E4012BF1643B2FA82F581
:1002800002FA05F4C5F120051EBF22FA05FC44EA76
:100290000C04203556EA044C4FEA144418BF641C81
:1002A0004FF000084FF00009904271EB030C39D376
:1002B000002919BFB1FA81F701FA07F6B0FA80F701
:1002C00000FA07F6C7F120071EBF20FA07FC46EA2E
:1002D0000C062037B6FBF4FCA7EB0507103F07F030
:1002E0001F0BCBF120060CFA0BFB2CFA06F644BFD1
:1002F000B3460026202FA4BF5E464FF0000B5BEAFA
:10030000060C08BF4FF0010B19EB0B09ABFB027C8D
:1003100048EB0608C01B06FB02CC0BFB03CC71EBC1
:100320000C01C1E70B46024641464846BDE8F08B4A
:1003300013B54FF000004FF00001AFF30080BDE8AF
:100340001C40704710B54C1084EA530404D5404259
:10035000C1F1000138BF491E1B4204D55242C3F10E
:10036000000338BF5B1EFFF776FF14F0804F04D008
:100370004042C1F1000138BF491E14F0004F04D0C3
:100380005242C3F1000338BF5B1E10BD0FB40449D5
:1003900010B503AA029800F007F910BC5DF814FB31
:1003A000300000202DE9F0410E4604460020206276
:1003B0002046E168884730B3252805D0D4E90121DB
:1003C0009047206A401CF2E7E168204600278847F2
:1003D000050018D0A5F14100192802D820354FF4A6
:1003E00000673246294620462760FFF7FBFE40B1F2
:1003F000012804D0F61D26F007060836D8E7361D7A
:10040000D6E72846DAE7206ABDE8F08170B50446F1
:100410000D4621461068AFF300802188090502D5FA
:100420000F4A7A4402E00E4A7A440E32002104F167
:10043000240305E000F00F060009965D5E54491C98
:100440000028F7D120780023000704D5702D02D0B2
:1004500009B1022311322046BDE8704000F04BB8CC
:1004600020BB0000032A40F2308010F0030C00F0A3
:10047000158011F8013BBCF1020F624498BF11F8DE
:1004800001CB00F8013B38BF11F8013BA2F1040297
:1004900098BF00F801CB38BF00F8013B11F003030F
:1004A00000F09480083AC0F0088051F8043B083A04
:1004B00051F804CBA0E80810F5E7121D5CBF51F815
:1004C000043B40F8043BAFF30080D20724BF11F88F
:1004D000013B11F801CB48BF11F8012B24BF00F8F4
:1004E000013B00F801CB48BF00F8012B7047704773
:1004F0007047704770472DE9F0470D469946924680
:10050000044600F124080168880604D5E06921F05A
:100510001001216000E00120A84201DD471B00E03E
:100520000027A1697A1902EB0900081AA061207856
:10053000C00602D42046AFF30080002608E0D4E9CC
:1005400001211AF806009047206A401C761C2062A0
:100550004E45F4DB2078C0060AD52046AFF3008074
:1005600006E0D4E9012130209047206A401C206237
:10057000381EA7F10107F4DC07E0D4E9012118F8DF
:1005800005009047206A401C2062281EA5F1010545
:10059000F3DC2046AFF300802078000602D502206D
:1005A000BDE8F0870120FBE7074B70B50D467B44A3
:1005B00000F043F80446284600F052F810B14FF01E
:1005C000FF3070BD204670BD3798000010B5203A4E
:1005D000C0F00B80B1E81850203AA0E81850B1E8FC
:1005E0001850A0E81850BFF4F5AF5FEA027C24BFB2
:1005F000B1E81850A0E8185044BF18C918C0BDE8A9
:1006000010405FEA827C24BF51F8043B40F8043B71
:1006100008BF7047D20728BF31F8023B48BF11F826
:10062000012B28BF20F8023B48BF00F8012B704780
:1006300001694A1C02610878704700B58FB0CDE9A6
:1006400001310021059105497944CDE90310114696
:100650006846FFF7A7FE0FB000BD0000E5FFFFFFF3
:10066000007B00F080007047754600F029F8AE4628
:1006700005006946534620F00700854618B020B5AE
:10068000FFF7D6FDBDE820404FF000064FF0000711
:100690004FF000084FF0000B21F00701AC46ACE82A
:1006A000C009ACE8C009ACE8C009ACE8C0098D4697
:1006B00070470446AFF300802046FFF7A5FD000019
:1006C0000048704780C0002010B5044624B1012CBA
:1006D00007D0022C15D10AE01021012008F000FA01
:1006E00010E04FF48051022008F0A2F90AE0102136
:1006F000012008F0F5F94FF48051022008F098F934
:1007000000E000BF00BF10BD00BFFEE70146CAB257
:100710000B1243EA0220704710B5002405E0A848F8
:100720000068005DA7490855641CA74800888442FA
:10073000F5D3A4484068A5494860A248806888600D
:10074000A14800881F280FD00220FFF7BDFF00201E
:100750009C490860487B1A22052108F085FA00218F
:10076000012008F063FA10BD9648C07B282803D00A
:100770009448C07B2A2816D19248407C01069148B3
:10078000807C41EA00418F48C07C41EA00208D49CD
:10079000097D08438E4908608A48C17D807D41EA11
:1007A00000208C490860874800688B4988426FD1D7
:1007B0008448407B89490968884207D88148807B02
:1007C000012803DB7F48807B10280DDD0220FFF726
:1007D0007BFF7C49487B2422052108F045FA002153
:1007E000012008F023FAE8E07648C07B25285FD096
:1007F0001BDC15286FD00EDC08286DD006DC002825
:100800005BD0032830D0042867D176E00A286ED068
:100810001228F9D12DE01A380A285ED2DFE800F05C
:10082000392EB17D33B1B1B1B1438A286FD00EDC1E
:10083000552867D006DC282844D02A284ED02F28F7
:10084000E2D155E05A2829D08828DDD176E0A828C1
:100850006DD004DC8F286FD09E28D5D173E0AA28F4
:100860007BD0AF28D0D182E05649487B06F080FA91
:1008700095E05449487B06F053F990E05149487B94
:1008800006F08AFA8BE04F49487B06F085FA86E04D
:1008900086E04C49487B06F093F980E04949487B63
:1008A00006F084F97BE04749487B06F01DFA76E0C4
:1008B0004449487B06F0CAF971E04249487B06F09A
:1008C00073FA6CE03F49487B42490A68404909682D
:1008D00006F080F963E01BE024E052E03949487BF0
:1008E0003C490A683A49096806F09AFA57E02FE04D
:1008F0003449487B06F074FA51E03249487B06F0EF
:10090000F7F84CE02F49487B06F02EF947E029E044
:100910002C49487B06F028F941E02A49487B06F03B
:1009200023F93CE02749487B06F01EF937E02549CA
:10093000487B06F019F932E01EE00EE02149487BC1
:1009400006F012F92BE01F49487B06F00DF926E06E
:100950001C49487B06F008F921E01A49487B06F05B
:1009600003F91CE01749487B06F0FEF817E015492B
:10097000487B06F0F9F812E01249487B06F0F4F8DB
:100980000DE00220FFF7A0FE0E49487B2022052142
:1009900008F06AF90021012008F048F900BF0CE0D6
:1009A0000220FFF791FE0749487B2022052108F02D
:1009B0005BF90021012008F039F900BFD3E60000FF
:1009C0005401002030C000205801002050C00020F9
:1009D0005C0100206001002055534243BC0100200F
:1009E00008B50020009022E19748008800F00F0031
:1009F000964908700846007800287CD19448006821
:100A0000944908800846008800F030009249088028
:100A10009048008800F440508E4908808C4909684D
:100A20004BF6BF7201EA020080F4005080F0200013
:100A300040F4004141F08001854A116082480088FD
:100A400000F0100090BB1046006848F60F71084097
:100A50001146086000F0EAFF7D4909684BF6BF7255
:100A600001EA02007B49098801F4805109B180F450
:100A700080507849098801F4005109B180F4005090
:100A80007549098801F0100109B180F01000724920
:100A9000098801F0200109B180F0200081B241F401
:100AA000004141F080016A4A116008BDFFE76848D3
:100AB000006880B20090BDF8000000F40060B0B3A0
:100AC00063480068C0F30E0048F68F710840604923
:100AD000086008F0D9F85E4909684BF6BF7201EA70
:100AE00002005C49098801F4805109B180F480500A
:100AF0005849098800E056E001F4005109B180F43A
:100B000000505549098801F0100109B180F010002A
:100B10005149098801F0200109B180F0200081B21B
:100B200041F4004141F08001494A1160BDE7FFE70F
:100B3000BDF8000000F40040002878D04448006868
:100B4000C0F30E0048F68F7108404149086005F077
:100B500041FD3F4909684BF6BF7201EA02003D4979
:100B6000098801F4805109B180F48050394909881D
:100B700001F4005109B180F400503749098801F0AF
:100B8000100109B180F010003349098801F02001FB
:100B900009B180F0200081B241F4004141F08001B0
:100BA0002B4A116081E7294800782C4901EB80002D
:100BB000D0F8000C80B20090BDF8000000F40040B6
:100BC000C0B12248007801EB8000D0F8000CC0F3DF
:100BD0000E0048F68F7108401C4909781F4A02EB45
:100BE0008101C1F8000C19490978491E1C4A52F8C4
:100BF00021008047BDF8000000F08000B8B1134824
:100C00000078164901EB8000D0F8000C48F60F710F
:100C100008400E490978114A02EB8101C1F8000C25
:100C20000A490978491E0F4A52F8210080470848AE
:100C30004430006880B20449088000F40040002875
:100C40007FF4D2AE00BF30E7800100206C000020AE
:100C5000005C004080000020820000200050004026
:100C6000A0010020840100200B4A02EB8001D1F892
:100C7000001C01F4804171B102EB8001D1F8001C2D
:100C800048F68F7211404CF280021143024B03EB85
:100C90008002C2F8001C7047005000400B4A02EB73
:100CA0008001D1F8001C01F0400171B102EB80011C
:100CB000D1F8001C48F68F72114048F2C00211436F
:100CC000024B03EB8002C2F8001C7047005000404A
:100CD000084A02EB8001D1F8001C48F68F621140EF
:100CE00048F280021143034B03EB8002C2F8001C60
:100CF000704700000050004070B500254FF480346C
:100D000004E0802006F064F900B103E02000A4F1C3
:100D10000104F6D100BF0CB9032070BD40F2FF50B2
:100D200006F010F92846F8E770B5044605E01548C6
:100D3000456B05F0450000B100E0F8E700BF042076
:100D400006F046F920B1042006F0FCF8032070BD3F
:100D5000012006F03DF920B1012006F0F3F8012052
:100D6000F5E708480069A04201D01020EFE740F203
:100D7000FF50044988630846406908210840C0B212
:100D8000E5E700000080014070B500264FF4803593
:100D900005E01148446B04F0450000B103E0280071
:100DA000A5F10105F5D100BF15B104F0040028B18B
:100DB0000326042006F0C6F8304670BD012006F078
:100DC00007F918B10126012006F0BCF840F2FF50E7
:100DD00006F0B8F83046F0E70080014010B505E0B5
:100DE0000B48446B04F0450000B100E0F8E700BF99
:100DF000042006F0EDF820B1042006F0A3F803204B
:100E000010BD40F2FF5006F09DF80020F8E700000A
:100E1000008001402DE9F04105460E464FF00008E4
:100E200005E01F48476B07F0450000B100E0F8E718
:100E300000BF042006F0CCF828B1042006F082F8A8
:100E40000320BDE8F081012006F0C2F820B10120A6
:100E500006F078F80120F4E711480069A84201D0B3
:100E60001020EEE740F2FF5006F06CF80C484469A1
:100E700004F4604018B9200C30804046E1E704F4E7
:100E8000005008B11320DCE704F4804008B11020C2
:100E9000D7E704F4004008B10F20D2E74046D0E77E
:100EA0000080014070B500264FF4803505E00F4802
:100EB000446B04F0450000B103E02800A5F10105F2
:100EC000F5D100BF15B104F0040028B103260420B9
:100ED00006F038F8304670BD04F0400018B1002626
:100EE000402006F02FF83046F5E700000080014072
:100EF00021B1026842F00102026004E002684FF68C
:100F0000FE731A400260704701684FF6FE7211408E
:100F100001600021016041608160C1604B498842ED
:100F200008D14A490839496841F00F01474A083A4F
:100F300051608AE045491431884208D14349083953
:100F4000496841F0F001414A083A51607DE03F496B
:100F50002831884208D13D490839496841F4706117
:100F60003A4A083A516070E038493C31884208D129
:100F700036490839496841F47041344A083A5160A9
:100F800063E032495031884208D130490839496814
:100F900041F470212D4A083A516056E02B496431E2
:100FA000884208D129490839496841F47001274A23
:100FB000083A516049E025497831884208D12349EF
:100FC0000839496841F07061204A083A51603CE0B4
:100FD0001F49884206D1011F096841F00F01021F15
:100FE000116032E01A491431884208D11849091FAA
:100FF000096841F0F001164A121F116025E01449FA
:101000002831884208D11249091F096841F47061EA
:101010000F4A121F116018E00D493C31884208D177
:101020000B49091F096841F47041094A121F1160F8
:101030000BE007495031884207D10549091F09686B
:1010400041F47021024A121F1160704708000240EB
:101050000804024010B50022026847F6F0739A4374
:101060000C6A8B6823430C6923434C6923438C69C6
:101070002343CC6923434C6A23438C6A23431A439A
:101080000260CB6843600B6883604B68C36010BD2F
:101090002DE9F0472848006800F110052E88264801
:1010A0000068077AD6B9042F18D12448007801289F
:1010B0000FD100212248006880B2801C214A42F8EA
:1010C000101030202049088000BF00201B49087004
:1010D00003E0072710201C49088027E0AC88A642BF
:1010E00001D8042000E002200746B44200D934466B
:1010F000A0B2A96888478046002000F059FC8146CC
:10110000A2B24946404608F097FBA1B2002007F082
:10111000D9FC2888001B28806888204468803020FB
:101120000949088000020949088000BF024909688E
:101130000F72BDE8F0870000700000206A000020F8
:10114000505C0040006000408200002080000020D1
:101150002DE9F0412848006800F110042688A068B5
:10116000C0B1BEB1A588B54200D93546A8B2A168C4
:10117000884707462088401B20806088284460807C
:10118000002000F0E7FB8046AAB24146384605F051
:1011900049FA00BF208850B14FF4405017490880E9
:1011A0000021084607F08EFC302015490880208871
:1011B000A188884204DB03200F490968087218E0FF
:1011C0002088002804DD05200B490968087210E01A
:1011D000208870B90620084909680872002109486A
:1011E000006880B2801C084A42F810103020044980
:1011F0000880BDE8F0810000700000208000002021
:1012000082000020505C0040006000402DE9F84F53
:101210009B48006845780027BA46062D1BD19848A0
:101220000068007800F07F00002813D19449096815
:101230008878012803D193490968CF690AE0022818
:1012400003D1904909680F6A04E0032802D18D494F
:1012500009684F6A94E0002D64D18948006840888D
:1012600000285FD186480068C08802285AD1844887
:1012700000680079002855D181480068007800F0A6
:101280007F0028B97E480068808808B97E4F77E0E3
:101290007B480068007800F07F00012810D1784971
:1012A00009684879774909688A69002190470028C8
:1012B00066D173480068807A002861D0724F5FE081
:1012C0006F480068007800F07F00022858D16C4811
:1012D0000068407900F00F0669480068407900F026
:1012E000700967480068407900F0800038B16749AC
:1012F00001EB8600D0F8000C00F0300806E06349EE
:1013000001EB8600D0F8000C00F4405860480078EB
:10131000B04235D9B9F1000F32D1B8F1000F2FD05A
:10132000594F2DE0082D07D155480068007800F08E
:101330007F0028BB574F23E00A2D21D15048006879
:10134000007800F07F0001281AD14D480068807AAB
:10135000B0B14B480068408890B9494800680079AE
:1013600070B947480068C088012809D14449096814
:101370004879444909688A690021904700B9464F75
:1013800057B13F480068A0F812A03D480068876147
:101390000020B84700240FE0394A12685078394AD3
:1013A0001268116988470446032C05D10920344985
:1013B00009680872BDE8F88F31480068008A4FF666
:1013C000FF71884204D109202D4909680872F1E7AC
:1013D000022C03D02A480068008A20B90820284936
:1013E00009680872E6E726480068007800F0800087
:1013F000E0B323480068C088009021480068008A54
:101400000099884204D91E4900980968088223E09F
:101410001B480068008A1A490968C98888421BDA93
:1014200017480068008A1749096891F82C1088420B
:1014300003DA0020194908700EE011480068008A9C
:101440001049096891F82C1090FBF1F201FB120091
:1014500010B90120114908700A48006890F82C1052
:10146000074800688182FFF713FE07E0FFE70320CB
:1014700003490968087200030949088000BF99E719
:101480007000002074000020298F000800500040E8
:10149000BD010020AD8E0008FD8E00086A0000200E
:1014A00080000020704710B504F0EAFE10BD10B5B2
:1014B00004F03AFF10BD00000149086070470000C9
:1014C00014040140002123498279002A3AD00A46B7
:1014D000126803689A430B461A600A1D1268036873
:1014E0009A430B1D1A60027911440A6803681A4373
:1014F0000A60184A0832126803689A43154B083389
:101500001A601A1D126803689A43124B0C331A6052
:101510004279102A0ED11A1F126803681A430D4B24
:1015200008331A601A1D126803681A43094B0C33FA
:101530001A600DE00749427911440A6803681A43AA
:101540000A6005E0027911440A6803689A430A6058
:10155000704700000004014010B503A0FEF716FF1D
:1015600003200849086010BD75736220656E7465BC
:1015700072206C6F7720706F776572206D6F646575
:101580000D0A00004C02002051B18200A2F1C042BD
:10159000126842F001038200A2F1C042136009E028
:1015A0008200A2F1C0421268034B1A408300A3F1EB
:1015B000C0431A6070470000FEFF0F00D0E901121F
:1015C0001143C268114302691143426911438269A0
:1015D0001143C2691143026A1143426A1143826A8C
:1015E0001143C26A1143026B114302689200A2F1D7
:1015F000C0421160816808290BD101688900A1F1FE
:10160000C041096841F0400201688900A1F1C04170
:101610000A60416B0968426B526841EA0211426BF1
:10162000926841EA0221426B928941EA0241426B8F
:10163000128A41EA0251426B127D41EA0261426B19
:10164000926911430268521C9200A2F1C0421160DB
:10165000C16AB1F5804F1BD1816B0968826B5268FA
:1016600041EA0211826B926841EA0221826B128A7E
:1016700041EA0251826B127D41EA0261826B9269FA
:10168000114302689200A2F1C042C2F8041107E0BF
:101690006FF0704201688900A1F1C041C1F80421D6
:1016A000704700002DE9FC4107460D460026002446
:1016B00000200090019008205B49086010204860DD
:1016C000402088600020C8604FF4806008610846B0
:1016D00005F0B4FC1020FFF727FB044614B12046A8
:1016E000BDE8FC815148008800044F49086037205C
:1016F0004860402088600020C8604FF48060086126
:10170000084605F09BFC3720FFF70EFB04460CB1A2
:101710002046E5E74FF0FF30454908600820486063
:10172000302088600220C8600020086101204861E4
:10173000084605F023FC00203B4908603320486040
:10174000402088600020C8604FF48060086108462F
:1017500005F074FC3320FFF7E7FA04460CB120468D
:10176000BEE70CE04FF4001005F032FC38B105F094
:101770005FFC4DF82600761C022E00D306E02D48B3
:10178000406B40F22A6108400028EBD000BF0820DF
:1017900005F01EFC20B1082005F0D4FB04209FE7D3
:1017A000022005F015FC20B1022005F0CBFB022041
:1017B00096E7202005F00CFC20B1202005F0C2FBAC
:1017C00006208DE74FF4007005F002FC28B14FF4BD
:1017D000007005F0B7FB072082E740F2FF5005F0EC
:1017E000B1FB00980006009901F47F4140EA012016
:1017F000009901F47F0140EA1120009940EA11604C
:10180000686001980006019901F47F4140EA0120D7
:10181000019901F47F0140EA1120019940EA116029
:10182000286020465CE70000801200202000002095
:1018300094120020008001402DE9F041024600256D
:101840000026002000230024002791F803C00CF09C
:101850000F0591F803C00CF0100CBCF1000F03D081
:1018600091F802C04CEA050591F800C0BCF1000FE8
:1018700031D0146800202BE04FF0010C0CFA00F37B
:10188000B1F800C00CEA03069E4220D183004FF05D
:101890000F0C0CFA03F7BC4305FA03FC4CEA0404F2
:1018A00091F803C0BCF1280F06D14FF0010C0CFADF
:1018B00000FCC2F814C00AE091F803C0BCF1480F64
:1018C00005D14FF0010C0CFA00FCC2F810C0401C0E
:1018D0000828D1D31460B1F800C0BCF1FF0F34DD8B
:1018E000546800202EE000F1080C4FF0010808FABF
:1018F0000CF3B1F800C00CEA03069E4221D183002C
:101900004FF00F0C0CFA03F7BC4305FA03FC4CEA4A
:10191000040491F803C0BCF1280F05D100F1080CB4
:1019200008FA0CF8C2F8148091F803C0BCF1480F13
:1019300007D100F1080C4FF0010808FA0CF8C2F8C2
:101940001080401C0828CED35460BDE8F0810161AE
:101950007047000001460548006880B200EBC100F6
:10196000001D034A32F8100080B27047505C0040FE
:101970000060004001460648006880B200EBC100EC
:10198000801D044A32F81000C0F3090070470000BF
:10199000505C0040006000400146044A02EB8100B8
:1019A000D0F8000C00F44050704700000050004098
:1019B00001460548006880B200EBC100034A32F8D6
:1019C000100080B270470000505C00400060004092
:1019D000014629B90120034A12681082002070478D
:1019E0000148FCE770000020BC01002070B50A48E7
:1019F0000468001D0568001D0668344454B10822BF
:101A00000649204600F04AF80422044910312846CD
:101A100000F044F870BD0000E8F7FF1F66010020E9
:101A200000BFFEE772B6704762B6704710B518483F
:101A30000068047A022C01D0042C05D1FFF728FBA2
:101A400013480068047A1CE0062C19D1104800687D
:101A5000407805280ED10E480068007800F07F001D
:101A600040B90B490968C87806F082FF094909683E
:101A7000086A80470849096888688047082400E0A8
:101A80000824034909680C7204F0E2FD10BD00004F
:101A9000700000207C0000207400002030B50B4650
:101AA000002100BF16E00A24B4EB107F05D93024D2
:101AB00004EB107403F8114005E0412404EB1074AA
:101AC0000A3C03F81140000100254C00641C1D5520
:101AD0004C1CE1B29142E6DB30BD00001CB504466F
:101AE00000200190009021480088000420490860EF
:101AF0000D204860402088600020C8604FF480605E
:101B00000861084605F09AFA1A48406B009002E016
:101B10001848406B0090009800F045000028F7D06E
:101B2000012005F055FA20B1012005F00BFA012043
:101B30001CBD042005F04CFA20B1042005F002FA87
:101B40000320F5E70B4800690D2801D01020EFE7CE
:101B500040F2FF5005F0F6F90648406901900198FF
:101B6000C0F3432020700020E2E7000020000020A6
:101B7000801200200080014070B5044600261748FE
:101B80000588408845431548808846F60401884208
:101B900016D112488079012812D100200F4988718E
:101BA0002A2048812B2088810021084603F08EFFDF
:101BB00001200A4988712B2048812A20888103E06E
:101BC0000021084603F082FF04F072F9002602E0CB
:101BD00003480480761CAE42FAD370BD5802002040
:101BE0000008006C10B50446002C66D16C49887161
:101BF000F02008804FF4A07048800846808849F2A1
:101C0000413188420BD06648808846F604018842FC
:101C100005D06348808845F2103188421AD12C20C3
:101C20005F4908812A2048812B20888108468088C6
:101C300046F60401884205D05948808845F21031A3
:101C4000884206D14FF4A070554908804FF4F070D7
:101C50004880A1E05248808845F21051884210D156
:101C60004FF430504E4908814FF4285048814FF4CA
:101C70002C5088814FF4F07008804FF448704880F1
:101C80008AE04748808841F6631188420DD12C20B4
:101C9000434908812B2048812A2088814FF4F07025
:101CA00008804FF44870488076E022203C49088143
:101CB00020204881212088816EE0012038498871E8
:101CC0004FF4A0700880F02048800846808849F2D0
:101CD0004131884205D03248808845F2103188422F
:101CE00007D12C202E4908812A2048812B20888169
:101CF0003FE02B48808846F60401884207D12C201B
:101D0000274908812B2048812A20888131E02448F6
:101D1000808845F21051884210D14FF4305020494C
:101D200008814FF4285048814FF42C5088814FF49B
:101D3000487008804FF4F07048801AE01848808896
:101D400041F6631188420DD12C20154908812A20C3
:101D500048812B2088814FF4487008804FF4F07040
:101D6000488006E022200E49088121204881202059
:101D700088810B48808846F60401884205D00848CF
:101D8000808845F21031884206D14FF4F070044942
:101D900008804FF4A0704880002003F021FD10BDA2
:101DA0005802002030B503460C4615465A48808834
:101DB00049F24131884205D05748808845F21031B8
:101DC000884214D15449488904F06CF8181204F080
:101DD00063F8D8B204F060F84F49888904F062F8DB
:101DE000201204F059F8E0B204F056F88CE04A48AA
:101DF000808845F21051884220D14749488904F033
:101E000051F8181204F048F843494989491C88B22E
:101E100004F048F8D8B204F03FF83F49888904F04C
:101E200041F8201204F038F83B498989491C88B2EE
:101E300004F038F8E0B204F02FF865E03648808806
:101E400041F66311884228D13348807920B932485D
:101E50000088401EC01A83B22F49488904F022F836
:101E6000181204F019F8D8B204F016F8181204F099
:101E700013F8D8B204F010F82749888904F012F852
:101E8000201204F009F8E0B204F006F8201204F081
:101E900003F8E0B204F000F836E01F48808846F608
:101EA000040188421DD11C488079012804D11A48B8
:101EB0000088401EC01A83B21749488903F0F2FF18
:101EC000181203F0E9FFD8B203F0E6FF124988893F
:101ED00003F0E8FF201203F0DFFFE0B203F0DCFFC5
:101EE00012E00D488079012804D10B480088401E7B
:101EF000C01A83B208494889194603F0E3FF06492E
:101F00008889214603F0DEFF0348008903490880E1
:101F1000881C058030BD000058020020FE07006CC0
:101F20002DE9FC4F05460E4617469846DDF82C90E5
:101F3000002001902748808846F60401884229D174
:101F400024488079012825D1AB46354621480088B0
:101F5000C01B401E86B247461E480088A0EB0B00FF
:101F6000401E1FFA80F800201A4988712A204881F3
:101F70002B20888143463A4631462846CDF80090CA
:101F8000FFF7CEFF0120134988712B2048812A20BA
:101F900088811CE0781B401C80B20190344614E01C
:101FA0002146284603F092FD03F082FF4FF0000A1D
:101FB00006E00948A0F800900AF101001FFA80FA33
:101FC00001988245F5DB601C84B24445E8DDBDE83C
:101FD000FC8F0000580200200008006C00B59FB084
:101FE0000121080204F078FB01214FF4B47004F0E1
:101FF00093FB0120ADF8780010208DF87B000320C2
:102000008DF87A001EA9FE48FFF716FC4CF23370DB
:10201000ADF8780018208DF87B0003208DF87A0049
:102020001EA9F848FFF708FC4FF68070ADF878005D
:1020300018208DF87B0003208DF87A001EA9F24845
:10204000FFF7FAFB41F20100ADF8780018208DF897
:102050007B0003208DF87A001EA9EC48FFF7ECFB0B
:1020600001200890002009900F200A9000200B907A
:102070000C900D900E900190029003200390002090
:10208000049005900690079006200F900020109075
:10209000119010201290002013901590149016901B
:1020A00017904FF480501890002019904FF4804002
:1020B0001A9000201B9008A81C9001A81D900FA842
:1020C000FFF77CFA01210620FFF75EFA322007F0C5
:1020D0003FFE002003F04EFBCD49888008468088F3
:1020E000FF280ADB084680884FF6FF71884204D03B
:1020F000C7488088B0F5134F7ED1D32003F0D2FEBD
:1021000003F02EFBC249888003F02AFBC049888077
:1021100003F026FBBE498880084680884FF6FF7191
:1021200001EA0020BA49888003F01AFBB84989887F
:102130000843B74988800846808849F2413188427F
:102140005AD0BF2003F0AEFE03F00AFBB0498880EE
:1021500003F006FBAE49888003F002FBAC4988809F
:1021600003F0FEFAAA498880084680884FF6FF717E
:1021700001EA0020A649888003F0F2FAA449898880
:102180000843A34988800846808846F604018842AF
:102190007AD0D42003F086FE03F0E2FA9C498880CE
:1021A00003F0DEFA9A49888003F0DAFA98498880C9
:1021B000084680884FF6FF7101EA00209449888024
:1021C00003F0CEFA924989880843914988800846ED
:1021D000808845F21031884256D04FF45A4003F0BF
:1021E00061FE03F0BDFA8A4988804FF45B4003F03A
:1021F00059FE03F0B5FA00E046E0854988800846BC
:1022000080884FF6FF7101EA0020814988804FF4F1
:102210005C4003F047FE03F0A3FA7D498988084338
:102220007B49888008468088B0F5004F02D145F28E
:10223000105088807648808845F21051884223D01B
:10224000A12003F02FFE03F08BFA7149888003F080
:1022500087FA6F498880084680884FF6FF7101EA47
:1022600000206B49888003F07BFA6949898808431C
:10227000674988800846808845F26171884203D1A9
:1022800041F66310624988806148818861A0FEF749
:102290007DF85F48808849F2413188427ED1CF2065
:1022A00003F000FE002003F0F7FDC12003F0F4FD71
:1022B000302003F0F1FDED2003F0F4FD642003F085
:1022C000EBFD032003F0E8FD122003F0E5FD812083
:1022D00003F0E2FDE82003F0E5FD852003F0DCFDDE
:1022E000102003F0D9FD7A2003F0D6FDCB2003F0B7
:1022F000D9FD392003F0D0FD2C2003F0CDFD0020C6
:1023000003F0CAFD342003F0C7FD022003F0C4FD32
:10231000F72003F0C7FD202003F0BEFDEA2003F004
:10232000C1FD002003F0B8FD002003F0B5FDC02082
:1023300003F0B8FD1B2003F0AFFDC12003F0B2FD98
:10234000012003F0A9FDC52003F0ACFD302003F00F
:10235000A3FD302003F0A0FDC72003F0A3FDB720AC
:1023600003F09AFD362003F09DFD482003F094FD14
:102370003A2003F097FD552003F08EFDB12003F0C5
:1023800091FD002003F088FD1A2003F085FDB620A2
:1023900003F088FD0A2003F07FFD00E0AAE0A22000
:1023A00003F07AFDF22003F07DFD002003F074FDC0
:1023B000262003F077FD012003F06EFDE02003F0FE
:1023C00071FD0F2003F068FD2A2003F065FD282031
:1023D00003F062FD082003F05FFD0E2003F05CFDBA
:1023E000082003F059FD542003F056FDA92003F006
:1023F00053FD432003F050FD0A2003F04DFD11E092
:10240000000C014000140140001801400020014070
:1024100058020020204C43442049443A25780D0AB4
:10242000000000000F2003F037FD002003F034FD12
:10243000002003F031FD002003F02EFD002003F00A
:102440002BFDE12003F02EFD002003F025FD1520DB
:1024500003F022FD172003F01FFD072003F01CFDF1
:10246000112003F019FD062003F016FD2B2003F0C8
:1024700013FD562003F010FD3C2003F00DFD052058
:1024800003F00AFD102003F007FD0F2003F004FD08
:102490003F2003F001FD3F2003F0FEFC0F2003F07E
:1024A000FBFC2B2003F0FEFC002003F0F5FC0020D9
:1024B00003F0F2FC012003F0EFFC3F2003F0ECFC02
:1024C0002A2003F0EFFC002003F0E6FC002003F0DC
:1024D000E3FC002003F0E0FCEF2003F0DDFC112022
:1024E00003F0E0FC782007F033FC292003F0DAFC4D
:1024F00003F01AB9FE48808846F6040188427CD170
:10250000112003F0CFFC142007F022FCD02003F0B0
:10251000C9FC072003F0C0FC422003F0BDFC1D20D5
:1025200003F0BAFCD12003F0BDFC002003F0B4FCA2
:102530001A2003F0B1FC092003F0AEFCD22003F016
:10254000B1FC012003F0A8FC222003F0A5FCC02070
:1025500003F0A8FC102003F09FFC3B2003F09CFC40
:10256000002003F099FC022003F096FC112003F0F8
:1025700093FCC52003F096FC032003F08DFCC820DB
:1025800003F090FC002003F087FC252003F084FC7E
:10259000212003F081FC052003F07EFC002003F0E5
:1025A0007BFC0A2003F078FC652003F075FC2520F5
:1025B00003F072FC772003F06FFC502003F06CFCFA
:1025C0000F2003F069FC002003F066FCF82003F004
:1025D00069FC012003F060FCFE2003F063FC002096
:1025E00003F05AFC022003F057FC202003F05AFCB1
:1025F000362003F057FC082000E02CE003F04CFCF0
:102600003A2003F04FFC552003F046FC2B2003F04A
:1026100049FC002003F040FC002003F03DFC0120B9
:1026200003F03AFC3F2003F037FC2A2003F03AFC89
:10263000002003F031FC002003F02EFC012003F009
:102640002BFCDF2003F028FC782007F081FB2920F9
:1026500003F028FC4CE7A648808845F210318842F8
:1026600040F07C87ED2003F01DFC012003F014FCFA
:10267000FE2003F011FCEE2003F014FCDE2003F03A
:102680000BFC212003F008FCF12003F00BFC0120DF
:1026900003F002FCDF2003F005FC102003F0FCFB3C
:1026A000C42003F0FFFB8F2003F0F6FBC62003F0ED
:1026B000F9FB002003F0F0FBE22003F0EDFBE22049
:1026C00003F0EAFBE22003F0E7FBBF2003F0EAFBA4
:1026D000AA2003F0E1FBB02003F0E4FB0D2003F09F
:1026E000DBFB002003F0D8FB0D2003F0D5FB00201E
:1026F00003F0D2FB112003F0CFFB002003F0CCFB52
:10270000192003F0C9FB002003F0C6FB212003F0D1
:10271000C3FB002003F0C0FB2D2003F0BDFB002015
:1027200003F0BAFB3D2003F0B7FB002003F0B4FB3D
:102730005D2003F0B1FB002003F0AEFB5D2003F051
:10274000ABFB002003F0A8FBB12003F0ABFB802023
:1027500003F0A2FB002003F09FFB8B2003F09CFB07
:10276000002003F099FB962003F096FB002003F075
:1027700093FBB22003F096FB002003F08DFB0020BA
:1027800003F08AFB022003F087FB002003F084FBA8
:10279000032003F081FB002003F07EFBB32003F055
:1027A00081FB002003F078FB002003F075FB002084
:1027B00003F072FB002003F06FFB002003F06CFBC2
:1027C000002003F069FB002003F066FB002003F00B
:1027D00063FB002003F060FB002003F05DFB0020A2
:1027E00003F05AFB002003F057FB002003F054FBDA
:1027F000002003F051FB002003F04EFB002003F00B
:102800004BFB002003F048FB002003F045FB0020B9
:1028100003F042FB002003F03FFB002003F03CFBF1
:10282000002003F039FB002003F036FB002003F00A
:1028300033FBB42003F036FB8B2003F02DFB00208C
:1028400003F02AFB962003F027FB002003F024FB73
:10285000A12003F021FB002003F01EFBB52003F0B4
:1028600021FB022003F018FB002003F015FB0320DE
:1028700003F012FB002003F00FFB042003F00CFB1D
:10288000002003F009FBB62003F00CFB002003F04E
:1028900003FB002003F000FBB72003F003FB002044
:1028A00003F0FAFA002003F0F7FA3F2003F0F4FAFD
:1028B000002003F0F1FA5E2003F0EEFA002003F0AE
:1028C000EBFA642003F0E8FA002003F0E5FA8C202C
:1028D00003F0E2FA002003F0DFFAAC2003F0DCFAA8
:1028E000002003F0D9FADC2003F0D6FA002001E042
:1028F0005802002003F0D0FA702003F0CDFA002037
:1029000003F0CAFA902003F0C7FA002003F0C4FADB
:10291000EB2003F0C1FA002003F0BEFADC2003F044
:10292000BBFA002003F0B8FAB82003F0BBFA00208D
:1029300003F0B2FA002003F0AFFA002003F0ACFA83
:10294000002003F0A9FA002003F0A6FA002003F00B
:10295000A3FA002003F0A0FA002003F09DFABA20A9
:1029600003F0A0FA242003F097FA002003F094FA71
:10297000002003F091FA002003F08EFAC12003F04A
:1029800091FA202003F088FA002003F085FA542001
:1029900003F082FA002003F07FFAFF2003F07CFAB4
:1029A000002003F079FAC22003F07CFA0A2003F039
:1029B00073FA002003F070FA042003F06DFA00208F
:1029C00003F06AFAC32003F06DFA3C2003F064FAC6
:1029D000002003F061FA3A2003F05EFA002003F0D1
:1029E0005BFA392003F058FA002003F055FA37203B
:1029F00003F052FA002003F04FFA3C2003F04CFAA7
:102A0000002003F049FA362003F046FA002003F0D4
:102A100043FA322003F040FA002003F03DFA2F2061
:102A200003F03AFA002003F037FA2C2003F034FACE
:102A3000002003F031FA292003F02EFA002003F0E1
:102A40002BFA262003F028FA002003F025FA242090
:102A500003F022FA002003F01FFA242003F01CFAEE
:102A6000002003F019FA232003F016FA002003F0E7
:102A700013FA3C2003F010FA002003F00DFA362080
:102A800003F00AFA002003F007FA322003F004FAF8
:102A9000002003F001FA2F2003F0FEF9002003F0DC
:102AA000FBF92C2003F0F8F9002003F0F5F92920B8
:102AB00003F0F2F9002003F0EFF9262003F0ECF91F
:102AC000002003F0E9F9242003F0E6F9002003F0E8
:102AD000E3F9242003F0E0F9002003F0DDF92320DE
:102AE00003F0DAF9002003F0D7F9C42003F0DAF993
:102AF000622003F0D1F9002003F0CEF9052003F0A5
:102B0000CBF9002003F0C8F9842003F0C5F90020B8
:102B100003F0C2F9F02003F0BFF9002003F0BCF984
:102B2000182003F0B9F9002003F0B6F9A42003F04F
:102B3000B3F9002003F0B0F9182003F0ADF900203C
:102B400003F0AAF9502003F0A7F9002003F0A4F93C
:102B50000C2003F0A1F9002003F09EF9172003F0E8
:102B60009BF9002003F098F9952003F095F90020D7
:102B700003F092F9F32003F08FF9002003F08CF9B1
:102B8000E62003F089F9002003F086F9C52003F060
:102B900089F9322003F080F9002003F07DF9442008
:102BA00003F07AF9002003F077F9652003F074F957
:102BB000002003F071F9762003F06EF9002003F095
:102BC0006BF9882003F068F9002003F065F9C6204E
:102BD00003F068F9202003F05FF9002003F05CF9AE
:102BE000172003F059F9002003F056F9012003F0F3
:102BF00053F9002003F050F9C72003F053F90020E7
:102C000003F04AF9002003F047F9002003F044F9EB
:102C1000002003F041F9C82003F044F9002003F03C
:102C20003BF9002003F038F9002003F035F90020CB
:102C300003F032F9C92003F035F9002003F02CF934
:102C4000002003F029F9002003F026F9002003F00A
:102C500023F9002003F020F9002003F01DF90020E3
:102C600003F01AF9002003F017F9002003F014F91B
:102C7000002003F011F9002003F00EF9002003F00A
:102C80000BF9002003F008F9002003F005F90020FB
:102C900003F002F9002003F0FFF8E02003F002F94E
:102CA000162003F0F9F8002003F0F6F81C2003F0DA
:102CB000F3F8002003F0F0F8212003F0EDF80020F5
:102CC00003F0EAF8362003F0E7F8002003F0E4F818
:102CD000462003F0E1F8002003F0DEF8522003F074
:102CE000DBF8002003F0D8F8642003F0D5F80020CA
:102CF00003F0D2F87A2003F0CFF8002003F0CCF8EC
:102D00008B2003F0C9F8002003F0C6F8992003F0E7
:102D1000C3F8002003F0C0F8A82003F0BDF800209D
:102D200003F0BAF8B92003F0B7F8002003F0B4F8C4
:102D3000C42003F0B1F8002003F0AEF8CA2003F07D
:102D4000ABF8002003F0A8F8D22003F0A5F800208B
:102D500003F0A2F8D92003F09FF8002003F09CF8BC
:102D6000E02003F099F8002003F096F8F32003F038
:102D700093F8002003F090F8E12003F093F8162078
:102D800003F08AF8002003F087F81C2003F084F891
:102D9000002003F081F8222003F07EF8002003F0E9
:102DA0007BF8362003F078F8002003F075F8452012
:102DB00003F072F8002003F06FF8522003F06CF873
:102DC000002003F069F8642003F066F8002003F0A7
:102DD00063F87A2003F060F8002003F05DF88B20A0
:102DE00003F05AF8002003F057F8992003F054F844
:102DF000002003F051F8A82003F04EF8002003F063
:102E00004BF8B92003F048F8002003F045F8C4203F
:102E100003F042F8002003F03FF8CA2003F03CF82A
:102E2000002003F039F8D22003F036F8002003F038
:102E300033F8D82003F030F8002003F02DF8E0201C
:102E400003F02AF8002003F027F8F32003F024F819
:102E5000002003F021F8E22003F024F8052003F01D
:102E60001BF8002003F018F80B2003F015F80020E1
:102E700003F012F81B2003F00FF8002003F00CF809
:102E8000342003F009F8002003F006F8442003F092
:102E900003F8002003F000F84F2002F0FDFF0020AF
:102EA00002F0FAFF612002F0F7FF002002F0F4FFC9
:102EB000792002F0F1FF002002F0EEFF882002F0FE
:102EC000EBFF002002F0E8FF972002F0E5FF002072
:102ED00002F0E2FFA62002F0DFFF002002F0DCFF9C
:102EE000B72002F0D9FF002002F0D6FFC22002F086
:102EF000D3FF002002F0D0FFC72002F0CDFF00205A
:102F000002F0CAFFD12002F0C7FF002002F0C4FF88
:102F1000D62002F0C1FF002002F0BEFFDD2002F04B
:102F2000BBFF002002F0B8FFF32002F0B5FF002045
:102F300002F0B2FFE32002F0B5FF052002F0ACFF83
:102F4000002002F0A9FF0A2002F0A6FF002002F0F4
:102F5000A3FF1C2002F0A0FF002002F09DFF332001
:102F600002F09AFF002002F097FF442002F094FF45
:102F7000002002F091FF502002F08EFF002002F0AE
:102F80008BFF622002F088FF002002F085FF78208E
:102F900002F082FF002002F07FFF882002F07CFF19
:102FA000002002F079FF972002F076FF002002F067
:102FB00073FFA62002F070FF002002F06DFFB72023
:102FC00002F06AFF002002F067FFC22002F064FFF7
:102FD000002002F061FFC72002F05EFF002002F037
:102FE0005BFFD12002F058FF002002F055FFD520F2
:102FF00002F052FF002002F04FFFDD2002F04CFFF4
:10300000002002F049FFF32002F046FF002002F00A
:1030100043FFE42002F046FF012002F03DFF0020C4
:1030200002F03AFF012002F037FF002002F034FFE7
:10303000022002F031FF002002F02EFF2A2002F0D1
:103040002BFF002002F028FF3C2002F025FF00208B
:1030500002F022FF4B2002F01FFF002002F01CFFB5
:103060005D2002F019FF002002F016FF742002F02C
:1030700013FF002002F010FF842002F00DFF00205B
:1030800002F00AFF932002F007FF002002F004FF85
:10309000A22002F001FF002002F0FEFEB32002F0A9
:1030A000FBFE002002F0F8FEBE2002F0F5FE00203C
:1030B00002F0F2FEC42002F0EFFE002002F0ECFE6F
:1030C000CD2002F0E9FE002002F0E6FED32002F05F
:1030D000E3FE002002F0E0FEDD2002F0DDFE002035
:1030E00002F0DAFEF32002F0D7FE002002F0D4FE58
:1030F000E52002F0D7FE002002F0CEFE002002F014
:10310000CBFE002002F0C8FE002002F0C5FE022027
:1031100002F0C2FE002002F0BFFE292002F0BCFE39
:10312000002002F0B9FE3C2002F0B6FE002002F0C2
:10313000B3FE4B2002F0B0FE002002F0ADFE5D2099
:1031400002F0AAFE002002F0A7FE742002F0A4FE06
:10315000002002F0A1FE842002F09EFE002002F07A
:103160009BFE932002F098FE002002F095FEA22024
:1031700002F092FE002002F08FFEB32002F08CFEDF
:10318000002002F089FEBE2002F086FE002002F040
:1031900083FEC42002F080FE002002F07DFECD20E0
:1031A00002F07AFE002002F077FED32002F074FED7
:1031B000002002F071FEDC2002F06EFE002002F022
:1031C0006BFEF32002F068FE002002F065FEE620B0
:1031D00002F068FE112002F05FFE002002F05CFEAB
:1031E000342002F059FE002002F056FE562002F074
:1031F00053FE002002F050FE762002F04DFE00202B
:1032000002F04AFE772002F047FE002002F044FE62
:10321000662002F041FE002002F03EFE882002F00F
:103220003BFE002002F038FE992002F035FE00201F
:1032300002F032FEBB2002F02FFE002002F02CFE36
:10324000992002F029FE002002F026FE662002F0FE
:1032500023FE002002F020FE552002F01DFE00207B
:1032600002F01AFE552002F017FE002002F014FEB4
:10327000452002F011FE002002F00EFE432002F075
:103280000BFE002002F008FE442002F005FE0020A4
:1032900002F002FEE72002F005FE322002F0FCFD03
:1032A000002002F0F9FD552002F0F6FD002002F0AA
:1032B000F3FD762002F0F0FD002002F0EDFD662027
:1032C00002F0EAFD002002F0E7FD672002F0E4FDD5
:1032D000002002F0E1FD672002F0DEFD002002F098
:1032E000DBFD872002F0D8FD002002F0D5FD9920FB
:1032F00002F0D2FD002002F0CFFDBB2002F0CCFD99
:10330000002002F0C9FD992002F0C6FD002002F065
:10331000C3FD772002F0C0FD002002F0BDFD442077
:1033200002F0BAFD002002F0B7FD562002F0B4FD15
:10333000002002F0B1FD232002F0AEFD002002F0DB
:10334000ABFD332002F0A8FD002002F0A5FD4520D2
:1033500002F0A2FD002002F09FFDE82002F0A2FD95
:10336000002002F099FD002002F096FD992002F065
:1033700093FD002002F090FD872002F08DFD0020DB
:1033800002F08AFD882002F087FD002002F084FD13
:10339000772002F081FD002002F07EFD662002F021
:1033A0007BFD002002F078FD882002F075FD0020F2
:1033B00002F072FDAA2002F06FFD002002F06CFD09
:1033C000BB2002F069FD002002F066FD992002F0AA
:1033D00063FD002002F060FD662002F05DFD00202C
:1033E00002F05AFD552002F057FD002002F054FD76
:1033F000552002F051FD002002F04EFD442002F065
:103400004BFD002002F048FD442002F045FD002065
:1034100002F042FD552002F03FFD002002F03CFD8D
:10342000E92002F03FFDAA2002F036FD002002F064
:1034300033FD002002F030FD002002F02DFD0020C1
:1034400002F030FDAA2002F027FDCF2002F02AFD75
:10345000002002F021FD002002F01EFD002002F0FD
:103460001BFD002002F018FD002002F015FD0020D9
:1034700002F012FD002002F00FFD002002F00CFD12
:10348000002002F009FD002002F006FD002002F0FD
:1034900003FD002002F000FD002002F0FDFC0020F2
:1034A00002F0FAFC002002F0F7FC002002F0F4FC2D
:1034B000002002F0F1FCF02002F0F4FC002002F009
:1034C000EBFC502002F0E8FC002002F0E5FC0020BC
:1034D00002F0E2FC002002F0DFFCF32002F0E2FC4C
:1034E000002002F0D9FCF92002F0DCFC062002F0FA
:1034F000D3FC102002F0D0FC292002F0CDFC0020EB
:1035000002F0CAFC3A2002F0CDFC552002F0C4FCC7
:10351000112002F0C7FC642006F01AFC292002F0FA
:10352000C1FC352002F0BEFC002002F0B5FC5120A9
:1035300002F0B8FCFF2002F0AFFC532002F0B2FC16
:103540002C2002F0A9FC552002F0ACFC822002F0F5
:10355000A3FC2C2002F0A6FC02F0E6B8FE4880880E
:1035600045F2105188427DD155214FF4704002F050
:10357000A9FCAA214FF2010002F0A4FC52214FF253
:10358000020002F09FFC08214FF2030002F09AFCB7
:1035900001214FF2040002F095FC0D214FF4304060
:1035A00002F090FC0D214BF2010002F08BFC0D218A
:1035B0004BF2020002F086FC34214FF4364002F058
:1035C00081FC34214BF2016002F07CFC34214BF28F
:1035D000026002F077FC0D214FF4314002F072FCE2
:1035E0000D214BF2011002F06DFC0D214BF2021087
:1035F00002F068FC34214FF4374002F063FC3421C0
:103600004BF2017002F05EFC34214BF2027002F0CA
:1036100059FC00214FF4324002F054FC00214BF2DF
:10362000012002F04FFC00214BF2022002F04AFC84
:1036300024214FF4384002F045FC24214BF60100D0
:1036400002F040FC24214BF6020002F03BFC012179
:103650004FF43F4002F036FC0F214FF4334002F0AC
:1036600031FC00E0FDE30F214BF2013002F02AFCB7
:103670000F214BF2023002F025FC34214FF4394087
:1036800002F020FC34214BF6011002F01BFC342127
:103690004BF6021002F016FC08214FF4354002F000
:1036A00011FC08214BF2015002F00CFC08214BF2F6
:1036B000025002F007FC03214FF4424002F002FCEA
:1036C00024214FF43A4002F0FDFB24214BF6012067
:1036D00002F0F8FB24214BF6022002F0F3FB00215C
:1036E0004FF43C4002F0EEFB78214BF6014002F033
:1036F000E9FB00214BF6024002F0E4FB00214FF40D
:103700003D4002F0DFFB78214BF6015002F0DAFB7E
:1037100000214BF6025002F0D5FB00214FF43E4051
:1037200002F0D0FB64214BF6016002F0CBFB0021DC
:103730004FF4514002F0C6FB33214DF2011002F06C
:10374000C1FB00214DF2021002F0BCFB34214DF20E
:10375000031002F0B7FB00214DF2041002F0B2FB9F
:103760003A214DF2051002F0ADFB00214DF206109A
:1037700002F0A8FB4A214DF2071002F0A3FB002142
:103780004DF2081002F09EFB5C214DF2091002F090
:1037900099FB00214DF20A1002F094FB81214DF2B9
:1037A0000B1002F08FFB00214DF20C1002F08AFB8F
:1037B000A6214DF20D1002F085FB00214DF20E10F6
:1037C00002F080FBE5214DF20F1002F07BFB01219E
:1037D0004DF2101002F076FB13214DF2111002F0A1
:1037E00071FB01214DF2121002F06CFB54214DF2DD
:1037F000131002F067FB01214DF2141002F062FB7E
:1038000082214DF2151002F05DFB01214DF21610E0
:1038100002F058FBCA214DF2171002F053FB0221AF
:103820004DF2181002F04EFB00214DF2191002F07B
:1038300049FB02214DF21A1002F044FB01214DF226
:103840001B1002F03FFB02214DF21C1002F03AFB6C
:1038500034214DF21D1002F035FB02214DF21E10F5
:1038600002F030FB67214DF21F1002F02BFB02210A
:103870004DF2201002F026FB84214DF2211002F0BF
:1038800021FB02214DF2221002F01CFBA4214DF27B
:10389000231002F017FB02214DF2241002F012FB5C
:1038A000B7214DF2251002F00DFB02214DF226103A
:1038B00002F008FBCF214DF2271002F003FB02219A
:1038C0004DF2281002F0FEFADE214DF2291002F02E
:1038D000F9FA02214DF22A1002F0F4FAF2214DF227
:1038E0002B1002F0EFFA02214DF22C1002F0EAFA4E
:1038F000FE214DF22D1002F0E5FA03214DF22E10BB
:1039000002F0E0FA10214DF22F1002F0DBFA032151
:103910004DF2301002F0D6FA33214DF2311002F0A0
:10392000D1FA03214DF2321002F0CCFA6D214DF2A2
:10393000331002F0C7FA00214FF4524002F0C2FAED
:1039400033214DF2012002F0BDFA00214DF2022098
:1039500002F0B8FA342101E0580200204DF20320B1
:1039600002F0B0FA00214DF2042002F0ABFA3A2145
:103970004DF2052002F0A6FA00214DF2062002F0D9
:10398000A1FA4A214DF2072002F09CFA00214DF2E3
:10399000082002F097FA5C214DF2092002F092FA19
:1039A00000214DF20A2002F08DFA81214DF20B2008
:1039B00002F088FA00214DF20C2002F083FAA621D1
:1039C0004DF20D2002F07EFA00214DF20E2002F0A1
:1039D00079FAE5214DF20F2002F074FA01214DF23F
:1039E000102002F06FFA13214DF2112002F06AFA52
:1039F00001214DF2122002F065FA54214DF21320FC
:103A000002F060FA01214DF2142002F05BFA8221EB
:103A10004DF2152002F056FA01214DF2162002F067
:103A200051FACA214DF2172002F04CFA02214DF250
:103A3000182002F047FA00214DF2192002F042FA54
:103A400002214DF21A2002F03DFA01214DF21B2015
:103A500002F038FA02214DF21C2002F033FA342130
:103A60004DF21D2002F02EFA02214DF21E2002F02E
:103A700029FA67214DF21F2002F024FA02214DF2AB
:103A8000202002F01FFA84214DF2212002F01AFAC0
:103A900002214DF2222002F015FAA4214DF223203A
:103AA00002F010FA02214DF2242002F00BFAB721A5
:103AB0004DF2252002F006FA02214DF2262002F0F6
:103AC00001FACF214DF2272002F0FCF902214DF23C
:103AD000282002F0F7F9DE214DF2292002F0F2F958
:103AE00002214DF22A2002F0EDF9F2214DF22B20B5
:103AF00002F0E8F902214DF22C2002F0E3F9FE2158
:103B00004DF22D2002F0DEF903214DF22E2002F0BD
:103B1000D9F910214DF22F2002F0D4F903214DF2F2
:103B2000302002F0CFF933214DF2312002F0CAF9F2
:103B300003214DF2322002F0C5F96D214DF2332000
:103B400002F0C0F900214FF4534002F0BBF93321D9
:103B50004DF2013002F0B6F900214DF2023002F0D0
:103B6000B1F934214DF2033002F0ACF900214DF2ED
:103B7000043002F0A7F93A214DF2053002F0A2F923
:103B800000214DF2063002F09DF94A214DF2073036
:103B900002F098F900214DF2083002F093F95C210F
:103BA0004DF2093002F08EF900214DF20A3002F098
:103BB00089F981214DF20B3002F084F900214DF298
:103BC0000C3002F07FF9A6214DF20D3002F07AF9A7
:103BD00000214DF20E3002F075F9E5214DF20F3063
:103BE00002F070F901214DF2103002F06BF913214F
:103BF0004DF2113002F066F901214DF2123002F05F
:103C000061F954214DF2133002F05CF901214DF2BB
:103C1000143002F057F982214DF2153002F052F9BA
:103C200001214DF2163002F04DF9CA214DF2173044
:103C300002F048F902214DF2183002F043F9002158
:103C40004DF2193002F03EF902214DF21A3002F025
:103C500039F901214DF21B3002F034F902214DF205
:103C60001C3002F02FF934214DF21D3002F02AF9F8
:103C700002214DF21E3002F025F967214DF21F306E
:103C800002F020F902214DF2203002F01BF98421CC
:103C90004DF2213002F016F902214DF2223002F0ED
:103CA00011F9A4214DF2233002F00CF902214DF25A
:103CB000243002F007F9B7214DF2253002F002F965
:103CC00002214DF2263002F0FDF8CF214DF22730CF
:103CD00002F0F8F802214DF2283002F0F3F8DE216C
:103CE0004DF2293002F0EEF802214DF22A3002F0B6
:103CF000E9F8F2214DF22B3002F0E4F802214DF206
:103D00002C3002F0DFF8FE214DF22D3002F0DAF80F
:103D100003214DF22E3002F0D5F810214DF22F3054
:103D200002F0D0F803214DF2303002F0CBF833210D
:103D30004DF2313002F0C6F803214DF2323002F07C
:103D4000C1F86D214DF2333002F0BCF800214FF480
:103D5000544002F0B7F833214DF2014002F0B2F8BE
:103D600000214DF2024002F0ADF834214DF2034043
:103D700002F0A8F800214DF2044002F0A3F83A2125
:103D80004DF2054002F09EF800214DF2064002F08F
:103D900099F84A214DF2074002F094F800214DF2C3
:103DA000084002F08FF85C214DF2094002F08AF8D9
:103DB00000214DF20A4002F085F881214DF20B40BE
:103DC00002F080F800214DF20C4002F07BF8A621B1
:103DD0004DF20D4002F076F800214DF20E4002F057
:103DE00071F8E5214DF20F4002F06CF801214DF21F
:103DF000104002F067F813214DF2114002F062F812
:103E000001214DF2124002F05DF854214DF21340B1
:103E100002F058F801214DF2144002F053F88221CB
:103E20004DF2154002F04EF801214DF2164002F01D
:103E300049F8CA214DF2174002F044F802214DF230
:103E4000184002F03FF800214DF2194002F03AF814
:103E500002214DF21A4002F035F801214DF21B40CB
:103E600000E006E302F02EF802214DF21C4002F0C1
:103E700029F834214DF21D4002F024F802214DF2C0
:103E80001E4002F01FF867214DF21F4002F01AF8A1
:103E900002214DF2204002F015F884214DF221401C
:103EA00002F010F802214DF2224002F00BF8A4219A
:103EB0004DF2234002F006F802214DF2244002F0B8
:103EC00001F8B7214DF2254001F0FCFF02214DF22F
:103ED000264001F0F7FFCF214DF2274001F0F2FF1D
:103EE00002214DF2284001F0EDFFDE214DF2294084
:103EF00001F0E8FF02214DF22A4001F0E3FFF22138
:103F00004DF22B4001F0DEFF02214DF22C4001F07A
:103F1000D9FFFE214DF22D4001F0D4FF03214DF2D7
:103F20002E4001F0CFFF10214DF22F4001F0CAFFCB
:103F300003214DF2304001F0C5FF33214DF23140F5
:103F400001F0C0FF03214DF2324001F0BBFF6D21B3
:103F50004DF2334001F0B6FF00214FF4554001F01F
:103F6000B1FF33214DF2015001F0ACFF00214DF2C1
:103F7000025001F0A7FF34214DF2035001F0A2FFDF
:103F800000214DF2045001F09DFF3A214DF2055001
:103F900001F098FF00214DF2065001F093FF4A21F5
:103FA0004DF2075001F08EFF00214DF2085001F054
:103FB00089FF5C214DF2095001F084FF00214DF290
:103FC0000A5001F07FFF81214DF20B5001F07AFF82
:103FD00000214DF20C5001F075FFA6214DF20D505D
:103FE00001F070FF00214DF20E5001F06BFFE52152
:103FF0004DF20F5001F066FF01214DF2105001F01B
:1040000061FF13214DF2115001F05CFF01214DF2CF
:10401000125001F057FF54214DF2135001F052FF9E
:1040200001214DF2145001F04DFF82214DF2155047
:1040300001F048FF01214DF2165001F043FFCA2163
:104040004DF2175001F03EFF02214DF2185001F0E1
:1040500039FF00214DF2195001F034FF02214DF2D9
:104060001A5001F02FFF01214DF21B5001F02AFFE1
:1040700002214DF21C5001F025FF34214DF21D505C
:1040800001F020FF02214DF21E5001F01BFF6721BD
:104090004DF21F5001F016FF02214DF2205001F0A9
:1040A00011FF84214DF2215001F00CFF02214DF24D
:1040B000225001F007FFA4214DF2235001F002FF2E
:1040C00002214DF2245001F0FDFEB7214DF22550A2
:1040D00001F0F8FE02214DF2265001F0F3FECF214F
:1040E0004DF2275001F0EEFE02214DF2285001F072
:1040F000E9FEDE214DF2295001F0E4FE02214DF2ED
:104100002A5001F0DFFEF2214DF22B5001F0DAFED1
:1041100002214DF22C5001F0D5FEFE214DF22D5022
:1041200001F0D0FE03214DF22E5001F0CBFE102104
:104130004DF22F5001F0C6FE03214DF2305001F038
:10414000C1FE33214DF2315001F0BCFE03214DF28E
:10415000325001F0B7FE6D214DF2335001F0B2FE46
:1041600000214FF4564001F0ADFE33214DF20160C5
:1041700001F0A8FE00214DF2026001F0A3FE3421FF
:104180004DF2036001F09EFE00214DF2046001F04B
:1041900099FE3A214DF2056001F094FE00214DF2A6
:1041A000066001F08FFE4A214DF2076001F08AFEA1
:1041B00000214DF2086001F085FE5C214DF209609E
:1041C00001F080FE00214DF20A6001F07BFE8121AA
:1041D0004DF20B6001F076FE00214DF20C6001F013
:1041E00071FEA6214DF20D6001F06CFE00214DF232
:1041F0000E6001F067FEE5214DF20F6001F062FEF6
:1042000001214DF2106001F05DFE13214DF21160AD
:1042100001F058FE01214DF2126001F053FE5421CD
:104220004DF2136001F04EFE01214DF2146001F0D9
:1042300049FE82214DF2156001F044FE01214DF24C
:10424000166001F03FFECA214DF2176001F03AFE00
:1042500002214DF2186001F035FE00214DF2196087
:1042600001F030FE02214DF21A6001F02BFE012117
:104270004DF21B6001F026FE02214DF21C6001F0A0
:1042800021FE34214DF21D6001F01CFE02214DF291
:104290001E6001F017FE67214DF21F6001F012FE53
:1042A00002214DF2206001F00DFE84214DF22160CB
:1042B00001F008FE02214DF2226001F003FEA4216C
:1042C0004DF2236001F0FEFD02214DF2246001F069
:1042D000F9FDB7214DF2256001F0F4FD02214DF208
:1042E000266001F0EFFDCF214DF2276001F0EAFDDD
:1042F00002214DF2286001F0E5FDDE214DF229603A
:1043000001F0E0FD02214DF22A6001F0DBFDF22117
:104310004DF22B6001F0D6FD02214DF22C6001F030
:10432000D1FDFE214DF22D6001F0CCFD03214DF2B7
:104330002E6001F0C7FD10214DF22F6001F0C2FD8B
:1043400003214DF2306001F0BDFD33214DF23160AB
:1043500001F0B8FD03214DF2326001F0B3FD6D2193
:104360004DF2336001F0AEFD55214FF4704001F085
:10437000A9FDAA214FF2010001F0A4FD52214FF244
:10438000020001F09FFD08214FF2030001F09AFDA9
:1043900000214FF2040001F095FDCC214FF4314093
:1043A00001F090FD00214BF2011001F08BFD052181
:1043B0004FF4364001F086FD70214FF4374001F094
:1043C00081FD70214BF2017001F07CFD01214FF461
:1043D000384001F077FD03214BF6010001F072FD3A
:1043E00003214BF6020001F06DFD03214BF60300A3
:1043F00001F068FD02214FF43C4001F063FD002113
:104400004BF6014001F05EFD00214BF6024001F049
:1044100059FDD0214FF4494001F054FD02214CF6E2
:10442000011001F04FFD50214CF6021001F04AFD41
:1044300050214CF6031001F045FD50214CF60410BC
:1044400001F040FD00214FF4545001F03BFD552197
:104450004FF4685001F036FD4FF4885001F022FD12
:10446000782005F09BFC4FF4245001F01BFD01F077
:104470005BB9FE48808849F2253188427ED147F6F3
:10448000F001E52001F01EFD4FF48071012001F0E4
:1044900019FD4FF4E061022001F014FD41F23001FA
:1044A000032001F00FFD0021042001F00BFD40F27C
:1044B0000221082001F006FD0021092001F002FD83
:1044C00000210A2001F0FEFC00210C2001F0FAFC82
:1044D00000210D2001F0F6FC00210F2001F0F2FC7C
:1044E0000021102001F0EEFC0721112001F0EAFC70
:1044F0000021122001F0E6FC0021132001F0E2FC73
:104500000021072001F0DEFC41F29061102001F053
:10451000D9FC40F22721112001F0D4FC9D2112206A
:1045200001F0D0FC4FF4C851132001F0CBFC252141
:10453000292001F0C7FC0D212B2001F0C3FC07212D
:10454000302001F0BFFC40F20331312001F0BAFC11
:104550000321322001F0B6FC40F20621352001F0A3
:10456000B1FC0821362001F0ADFC40F206413720B5
:1045700001F0A8FC4FF44171382000E057E001F051
:10458000A1FC0721392001F09DFC40F202613C2092
:1045900001F098FC08213D2001F094FC00215020FE
:1045A00001F090FCEF21512001F08CFC0021522001
:1045B00001F088FC40F23F11532001F083FC4FF4DE
:1045C0002741602001F07EFC0121612001F07AFC8E
:1045D00000216A2001F076FC0021802001F072FCAD
:1045E0000021812001F06EFC0021822001F06AFC94
:1045F0000021832001F066FC0021842001F062FC90
:104600000021852001F05EFC1021902001F05AFC71
:104610004FF4C061922001F055FC40F233110720A5
:1046200001F050FC2221002001F04CFC1FE78F48D4
:10463000808849F2283188427ED141F28F01EC20F6
:1046400001F040FC41F23421EF2001F03BFC4FF43B
:104650008071012001F036FC4FF4E061022001F08E
:1046600031FC41F23001032001F02CFC0021042038
:1046700001F028FC40F20221082001F023FC002177
:10468000092001F01FFC00210A2001F01BFC012180
:104690000C2001F017FC00210D2001F013FC00217B
:1046A0000F2001F00FFC0021102001F00BFC07216E
:1046B000112001F007FC0021122001F003FC002171
:1046C000132001F0FFFB0121072001F0FBFB32204A
:1046D00005F03EFB41F29041102001F0F3FB40F267
:1046E0002721112001F0EEFB322005F031FB8A2159
:1046F000122001F0E7FB322005F02AFB4FF4D051E5
:10470000132001F0DFFB0621292001F0DBFB0D2146
:104710002B2001F0D7FB322005F01AFB00212020CE
:1047200001F0D0FB0021212001F0CCFB322005F06C
:104730000FFB0021302000E074E001F0C3FB40F2E9
:104740000461312001F0BEFB40F20531322001F05E
:10475000B9FB0021352001F0B5FB40F609413620B8
:1047600001F0B0FB4FF40171372001F0ABFB40F2D8
:104770000131382001F0A6FB40F20771392001F029
:10478000A1FB00213C2001F09DFB40F60A213D20C9
:1047900001F098FB322005F0DBFA0021502001F0F7
:1047A00091FBEF21512001F08DFB0021522001F0FF
:1047B00089FB40F23F11532001F084FB4FF4274165
:1047C000602001F07FFB0121612001F07BFB0021D3
:1047D0006A2001F077FB0021802001F073FB0021AB
:1047E000812001F06FFB0021822001F06BFB002192
:1047F000832001F067FB0021842001F063FB00218E
:10480000852001F05FFB1021902001F05BFB4FF44D
:10481000C061922001F056FB40F23311072001F0F5
:1048200051FB24E61148808849F2203188427DD12D
:104830000021084601F046FB4FF48071012001F091
:1048400041FB4FF4E061022001F03CFB41F23001FA
:10485000032001F037FB0021042001F033FB40F27C
:104860000221082001F02EFB002101E05802002067
:10487000092001F027FB00210A2001F023FB012180
:104880000C2001F01FFB00210D2001F01BFB00217B
:104890000F2001F017FB322005F05AFA40F2011107
:1048A000072001F00FFB322005F052FA4FF4865139
:1048B000102001F007FB0721112001F003FB4FF44A
:1048C0008871122001F0FEFA4FF43061132001F0DC
:1048D000F9FA0021292001F0F5FA44F210012B2009
:1048E00001F0F0FA0021502001F0ECFAEF21512004
:1048F00001F0E8FA0021522001F0E4FA40F23F1101
:10490000532001F0DFFA4FF41C51602001F0DAFA75
:104910000121612001F0D6FA00216A2001F0D2FACB
:104920000021802001F0CEFA002100E031E081205A
:1049300001F0C8FA0021822001F0C4FA002183208E
:1049400001F0C0FA0021842001F0BCFA002185208A
:1049500001F0B8FA1021902001F0B4FA0021922061
:1049600001F0B0FA0121932001F0ACFA4FF4887104
:10497000952001F0A7FA0021972001F0A3FA002169
:10498000982001F09FFA40F27311072001F09AFA83
:104990006DE5FE48808849F2313188427DD141F28F
:1049A0001401E72001F08EFA4FF48071012001F02C
:1049B00089FA4FF40071022001F084FA41F23801C3
:1049C000032001F07FFA40F20221082001F07AFA78
:1049D0000021092001F076FA00210A2001F072FA84
:1049E00000210C2001F06EFA00210D2001F06AFA7E
:1049F00000210F2001F066FA0021102001F062FA78
:104A00000721112001F05EFA0021122001F05AFA6C
:104A10000021132001F056FAC82005F099F941F25F
:104A20009061102001F04EFA40F22721112001F090
:104A300049FA322005F08CF90C21122001F042FADB
:104A4000322005F085F94FF40061132001F03AFAA5
:104A50001121292001F036FA0B212B2001F032FA26
:104A6000322005F075F90021202001F02BFA40F2E8
:104A70003F11212001F026FA0021302001F022FA16
:104A80004FF48371312001F01DFA0021322001F032
:104A900019FA4FF40171352000E064E001F012FAD8
:104AA00041F20A61362001F00DFA40F20771372019
:104AB00001F008FA4FF48371382001F003FA40F254
:104AC0000771392001F0FEF940F202413C2001F06B
:104AD000F9F940F60F413D2001F0F4F90021502092
:104AE00001F0F0F9EF21512001F0ECF90021522002
:104AF00001F0E8F940F23F11532001F0E3F94FF4DF
:104B00001C51602001F0DEF90121612001F0DAF989
:104B100000216A2001F0D6F90021802001F0D2F9AD
:104B20000021812001F0CEF90021822001F0CAF994
:104B30000021832001F0C6F90021842001F0C2F990
:104B40000021852001F0BEF91021902001F0BAF972
:104B50004FF4C061922001F0B5F940F23311072003
:104B600001F0B0F983E48948808845F20841884221
:104B70007ED14FF48071012001F0A4F94FF4E0617F
:104B8000022001F09FF941F23001032001F09AF96F
:104B90000021042001F096F940F20721082001F0DD
:104BA00091F90021092001F08DF900210A2001F07E
:104BB00089F900210C2001F085F900210D2001F078
:104BC00081F900210F2001F07DF9142005F0C0F8D3
:104BD00041F2B061102001F075F90121112001F0BE
:104BE00071F90121172001F06DF94FF49C71122029
:104BF00001F068F94FF40061132001F063F9092115
:104C0000292001F05FF909212A2001F05BF9002138
:104C1000A42001F057F90021502001F053F9EF21B1
:104C2000512001F04FF90021522001F04BF940F2E0
:104C30003F11532001F046F94FF41C51602001F060
:104C400041F90121612001F03DF900216A2001F0C4
:104C500039F90021802001F035F90021812001F08F
:104C600031F90021822001F02DF90021832000E09C
:104C700023E001F027F90021842001F023F900212D
:104C8000852001F01FF91321902001F01BF900216C
:104C9000922001F017F90321932001F013F94FF44A
:104CA0008871952001F00EF940F27311072001F090
:104CB00009F9322005F04CF8B8E43448808841F214
:104CC000055188427ED10021072001F0FBF83220F7
:104CD00005F03EF84FF48E71122001F0F3F8012137
:104CE000A42001F0EFF80F21082001F0EBF80821D3
:104CF0000A2001F0E7F808210D2001F0E3F840F266
:104D00000771302001F0DEF80721312001F0DAF8D8
:104D100040F20361322001F0D5F84FF4E061332016
:104D200001F0D0F840F20221342001F0CBF802214A
:104D3000352001F0C7F841F60F71362001F0C2F8B6
:104D400040F20771372001F0BDF80021382001F052
:104D5000B9F80021392001F0B5F840F207713A2086
:104D600001F0B0F800213B2001F0ACF807213C2015
:104D700001F0A8F800213D2001F0A4F8322004F051
:104D8000E7FF0121072001F09DF801E05802002013
:104D90000121172001F096F8322004F0D9FF4FF4DA
:104DA000BD51102001F08EF840F21721112001F0C2
:104DB00089F84FF48F71122001F084F84FF470617C
:104DC000132000E097E001F07DF800212A2001F097
:104DD00079F80A21292001F075F84FF49F7112200B
:104DE00001F070F80021502001F06CF8EF21512003
:104DF00001F068F80021522001F064F840F23F1100
:104E0000532001F05FF84FF41C51602001F05AF874
:104E10000121612001F056F800216A2001F052F8CA
:104E20000021802001F04EF80021812001F04AF895
:104E30000021822001F046F80021832001F042F891
:104E40000021842001F03EF80021852001F03AF88D
:104E50001321902001F036F84FF44071922001F0B8
:104E600031F80521932001F02DF80021952001F063
:104E700029F80021972001F025F80021982001F061
:104E800021F84FF48071012001F01CF84FF4E0612B
:104E9000022001F017F841F23801032001F012F866
:104EA0000021042001F00EF800210C2001F00AF886
:104EB00000210F2001F006F80021202001F002F867
:104EC0000021212000F0FEFF2121072000F0FAFF41
:104ED000142004F03DFF6121072000F0F3FF1420AF
:104EE00004F036FF40F27311072000F0EBFF1420AE
:104EF00004F02EFF95E4FE4880884BF2055188426D
:104F00007ED10021084600F0DDFF0021084600F0B8
:104F1000D9FF0021084600F0D5FF0021084600F027
:104F2000D1FF0121A42000F0CDFF142004F010FFD8
:104F30004FF41C51602000F0C5FF40F20221082010
:104F400000F0C0FF4FF40571302000F0BBFF43F2CA
:104F50001571312000F0B6FF40F20461322000F0FC
:104F6000B1FF40F61661332000F0ACFF42F2112190
:104F7000342000F0A7FF4FF4A851352000F0A2FF25
:104F800048F20751362000F09DFF41F207413720DB
:104F900000F098FF41F20341382000F093FF2021F8
:104FA000392000F08FFF1A21902000F08BFF0021A4
:104FB000102000F087FF0721112000F083FF00215F
:104FC000122000F07FFF0021132000F07BFF14204F
:104FD00004F0BEFE4FF4E661102000F073FF40F2D3
:104FE0003711112000F06EFF142004F0B1FE4FF4D1
:104FF000DC71122000F066FF142004F0A9FE00E02E
:1050000083E04FF47061132000F05CFF80212A20C0
:1050100000F058FF4821292000F054FF142004F02C
:1050200097FE4FF48071012000F04CFF4FF4E061D7
:10503000022000F047FF41F23801032000F042FF58
:1050400040F20221082000F03DFF00210A2000F07C
:1050500039FF00210C2000F035FF00210D2000F069
:1050600031FF30210E2000F02DFF0021502000F0F4
:1050700029FFEF21512000F025FF0021522000F0F0
:1050800021FF40F23F11532000F01CFF4FF41C5150
:10509000602000F017FF0121612000F013FF0021C4
:1050A0006A2000F00FFF1121902000F00BFF4FF459
:1050B000C061922000F006FF40F20241932000F010
:1050C00001FF0221942000F0FDFE142004F040FEB8
:1050D0000121072000F0F6FE142004F039FE6121C2
:1050E000072000F0EFFE40F27311072000F0EAFE07
:1050F0000021202000F0E6FE0021212000F0E2FE49
:105100002221002000F0DEFE0EE3794880884CF278
:10511000055188427ED10021084600F0D3FE0021CF
:10512000084600F0CFFE142004F012FE00210846CD
:1051300000F0C8FE0021084600F0C4FE0021084629
:1051400000F0C0FE0021084600F0BCFE0121A420B2
:1051500000F0B8FE142004F0FBFD4FF41C51602059
:1051600000F0B0FE40F60601082000F0ABFE40F271
:105170000371302000F0A6FE0121312000F0A2FED4
:105180000421322000F09EFE4FF48171332000F0A4
:1051900099FE4FF44071342000F094FE40F2031168
:1051A000352000F08FFE1F21362000F08BFE40F2EC
:1051B0000371372000F086FE0121382000F082FEC6
:1051C0000421392000F07EFE1521902000F07AFEA7
:1051D0004FF48261102000F075FE40F2472111204B
:1051E00000F070FE4FF4DE71122000F06BFE4FF401
:1051F0006061132000F066FE782004F0A9FD4FF4F2
:105200008071012000F05EFE4FF40071022000F07A
:1052100059FE00E050E041F23001032000F052FE60
:1052200008210A2000F04EFE00210C2000F04AFE6A
:1052300020210E2000F046FE00210F2000F042FE4B
:105240000021202000F03EFE0021212000F03AFE47
:105250003D212A2000F036FE142004F079FD2D2196
:10526000292000F02FFE0021502000F02BFE4DF2EF
:10527000EF01512000F026FE0021522000F022FE16
:1052800040F23F11532000F01DFE0021612000F08C
:1052900019FE00216A2000F015FE4FF440719220A3
:1052A00000F010FE0521932000F00CFE4FF48071F9
:1052B000072000F007FE37E20D48808844F23151A4
:1052C00088427CD10121002000F0FCFD0A2004F07E
:1052D0003FFD41F22861102000F0F4FD0E21122064
:1052E00000F0F0FD40F63921132000F0EBFD01E065
:1052F000580200200A2004F02BFD4021112000F06C
:10530000E1FD5021152000F0DDFD0A2004F020FD14
:105310001E21122000F0D6FD0A2004F019FD4FF4E2
:10532000B151102000F0CEFD42F63921132000F0DB
:10533000C9FD0A2004F00CFD4FF48071012000F03B
:10534000C1FD4FF44071022000F0BCFD41F2380174
:10535000032000F0B7FD40F20221082000F0B2FD6A
:1053600008210A2000F0AEFD0021302000F0AAFD47
:1053700040F20241312000F0A5FD4FF4837132204C
:1053800000F0A0FD40F20351332000F09BFD4FF4EC
:105390008271342000F096FD40F20131352000F09A
:1053A00091FD40F20771362000F08CFD40F205318E
:1053B000372000F087FD4FF40271382000E040E014
:1053C00000F080FD40F60B71392000F07BFD0221DA
:1053D000412000F077FD4FF41C51602000F072FD79
:1053E0000121612000F06EFD4FF40471902000F067
:1053F00069FD4FF48571922000F064FD0421932033
:1054000000F060FD4FF48071A02000F05BFD0121F1
:10541000072000F057FD2121072000F053FD232134
:10542000072000F04FFD3321072000F04BFD40F234
:105430003311072000F046FD0021A02000F042FDBE
:1054400072E1BF48808844F2355188427ED13021D4
:10545000152000F037FD10219A2000F033FD2021A7
:10546000112000F02FFD43F22841102000F02AFD0A
:105470000221122000F026FD41F23801132000F035
:1054800021FD282004F064FC1221084600F01AFDDA
:10549000282004F05DFC43F22041102000F012FDB2
:1054A00043F23801132000F00DFD462004F050FCBB
:1054B0000021302000F006FD40F20241312000F0D2
:1054C00001FD40F20731322000F0FCFC4FF4417145
:1054D000332000F0F7FC0421342000F0F3FC40F20C
:1054E0000141352000F0EEFC40F20771362000F05B
:1054F000E9FC40F20531372000F0E4FC4FF4C261D2
:10550000382000F0DFFC4FF4C261392000F0DAFCF3
:105510004FF48071012000F0D5FC4FF4407102205F
:1055200000F0D0FC41F23001032000F0CBFC40F64B
:105530000801082000F0C6FC08210A2000F0C2FC87
:105540004FF41C51602000F0BDFC00E031E001216F
:10555000612000F0B7FC4FF49F71902000F0B2FC86
:105560004FF48071922000F0ADFC4FF480719320D5
:1055700000F0A8FC4FF44051A02000F0A3FC102143
:10558000A32000F09FFC0121072000F09BFC2121BB
:10559000072000F097FC2321072000F093FC332123
:1055A000072000F08FFC40F23311072000F08AFC46
:1055B000BAE06348808841F663118842F8D1E2205E
:1055C00000F070FC232000F067FC022000F064FC77
:1055D000042000F061FC642004F0E0FBE02000F017
:1055E00061FC012000F058FC0A2004F0B1FBE0202F
:1055F00000F058FC032000F04FFC0C2004F0A8FB46
:10560000012000F04FFC0A2004F0A2FBE62000F08D
:1056100049FC032000F040FCFF2000F03DFCFF208F
:1056200000F03AFCB02000F03DFC202000F034FCFB
:10563000002000F031FC032000F02EFC40F21F306F
:1056400000F02AFC012000F027FC40F2DF1000F0FF
:1056500023FC002000F020FCB42000F023FC0420F8
:1056600000F01AFC40F21F4000F016FC002000F091
:1056700013FCD22000F010FC002000F00DFC0020F4
:1056800000F00AFC002000F007FC002000F004FC01
:10569000B62000F007FC022000F0FEFB4FF4037080
:1056A00000F0FAFB002000F0F7FB222000F0F4FBF2
:1056B000092000F0F1FB002000F0EEFB002000F0DC
:1056C000EBFBF02000F0EEFB032000F0E5FB2920CF
:1056D00000F0E8FBD02000F0E5FB002000F0DCFB50
:1056E000BE2000F0DFFB052000F0D6FBFE2000F01E
:1056F000D3FB012000F0D0FBFF2000F0CDFB002009
:1057000000F0CAFBB82000F0CDFB0F2000F0C4FB76
:10571000012000F0C1FBBA2000F0C4FB012000F022
:10572000BBFB642000F032F80020FCF75BFA01209C
:10573000044908604FF6FF70FCF71EFA1FB000BD69
:10574000580200208081214210B50246012000E06D
:1057500050430B00A1F10104E1B2F9D110BD0000EA
:1057600008B5034800880090BDF8000008BD00009F
:105770000008006C10B50446204600F093FB05209D
:1057800004F00CFBFFF7ECFF10BD00002DE9F04723
:105790000446BE2000F086FB052000F07DFB20467D
:1057A00004F08BFE07464FF066320C4B04F098FE77
:1057B000054604F055FE1FFA80F9484600F06CFBE0
:1057C000012000F069FBFF2000F066FB002000F0E4
:1057D00063FB002000F060FBBDE8F08766660440D4
:1057E00070B5044600230026B748807901280BD104
:1057F000B548808846F60401884205D0B2488088C2
:1058000041F66311884208D1AF488079F0B9AE48BB
:10581000808841F66311884218D1082C15D2DFE840
:1058200004F00406080A0C0E101206240DE00724EA
:105830000BE0042409E0052407E0012405E000242E
:1058400003E0032401E0022400BF00BF9E488088DB
:1058500049F24131884217D09B48808846F60401BE
:10586000884211D09848808845F2103188420BD088
:105870009548808845F21051884205D0924880882A
:1058800041F6631188427DD1082C1CD2DFE804F078
:105890000406090C0F12151800BF14E043F0800332
:1058A00011E043F040030EE043F0C0030BE043F08F
:1058B000200308E043F0600305E043F0A00302E0AA
:1058C00043F0E00300BF00BF7F48808845F21051DD
:1058D000884202D14FF4585600E036267A48808834
:1058E00045F2103188420DD07748808845F210513A
:1058F000884207D07448808841F66311884201D0FD
:1059000043F008037048808846F60401884201D1BC
:1059100043F002031946304600F0D4FA6A48808802
:1059200041F6631188421DD003F0200068B166483B
:10593000008865494988884214DA634805884088A8
:1059400061490880084645800CE05F4800885E4950
:105950004988884206DD5C48058840885A490880A5
:10596000084645805848808845F21051884254D1F5
:105970005549488900F096FA002000F08DFA524906
:10598000498900E078E0491C88B200F08BFA0020D9
:1059900000F082FA4C494989891C88B200F082FAE9
:1059A00049490988491EC1F30F2000F075FA46499C
:1059B0004989C91C88B200F075FA43490978491E23
:1059C000C8B200F069FA4049888900F06BFA0020FB
:1059D00000F062FA3C498989491C88B200F062FAF9
:1059E000002000F059FA38498989891C88B200F0F2
:1059F00059FA35494988491EC1F30F2000F04CFA85
:105A000031498989C91C88B200F04CFA2E4989783D
:105A1000491EC8B200F040FA55E02B49488900F011
:105A200041FA002000F038FA002000F035FA26494B
:105A30000988491EC1F30F2000F02EFA2249097887
:105A4000491EC8B200F028FA1F49888900F02AFAD6
:105A5000002000F021FA002000F01EFA1A494988BF
:105A6000491EC1F30F2000F017FA17498978491E23
:105A7000C8B200F011FA26E0082C1CD2DFE804F0CE
:105A800004070A0D0F12151843F0300313E043F01A
:105A9000100310E043F020030DE000BF0BE043F0E3
:105AA000380308E043F0280305E043F0180302E060
:105AB00043F0080300BF00BF032643F48053194698
:105AC000304600F0FFF970BD5802002010B50346C3
:105AD0000C466748808849F24131884205D06448C5
